:020000040800F2
:1000000070090020C10100084B300008E12B0008F6
:100010004930000869060008F138000800000000B7
:10002000000000000000000000000000D9320008BD
:1000300069070008000000006D300008DB3200088E
:10004000DB010008DB010008DB010008DB01000820
:10005000DB010008DB0100086B070008DB0100087A
:10006000DB010008DB010008DB010008DB01000800
:10007000DB010008DB010008DB010008DB010008F0
:1000800089060008950600082D050008DB01000818
:10009000DB010008DB010008DB010008DB010008D0
:1000A000DB010008DB010008DB010008DB010008C0
:1000B000DB010008DB010008DB010008DB010008B0
:1000C000DB010008DB010008DB010008DB010008A0
:1000D000DB010008D9380008E5380008DB0100081A
:1000E00071070008DB010008DB010008DB010008E4
:1000F000DB010008DB010008DB010008DB01000870
:10010000DB010008DB010008DB010008DB0100085F
:10011000DB010008DB010008DB010008DB0100084F
:10012000DB010008A1060008AD060008DB0100089D
:10013000DB010008DB010008DB010008DB0100082F
:10014000DB010008DB010008DB010008DB0100081F
:10015000DB010008DB010008B9060008DB0100082C
:10016000DB010008DB010008DB010008DB010008FF
:10017000DB010008DB010008DB01000800000000D3
:10018000DB010008DB010008DB010008DB010008DF
:10019000DB010008DB010008DB010008DB010008CF
:1001A000DB010008DB010008DB010008DFF80CD0F0
:1001B00000F0AAF900480047CD3A00087009002075
:1001C0000648804706480047FEE7FEE7FEE7FEE7F1
:1001D000FEE7FEE7FEE7FEE7FEE7FEE7B1330008D5
:1001E000AD0100082DE9F05F0546002092469B46D0
:1001F00088460646814640241BE02846414647463D
:10020000224600F0DCF853465A46C01A914110D3FA
:1002100011461846224600F0C3F82D1A67EB010874
:100220004F4622460120002100F0BAF817EB0009E2
:100230004E41201EA4F10104DFDC484631462A4627
:100240004346BDE8F09F40EA01039B0703D009E065
:1002500008C9121F08C0042AFAD203E011F8013BB2
:1002600000F8013B521EF9D270472DE9FE4F81EA9A
:10027000030404F0004421F0004100944FF0000B0F
:1002800023F0004350EA01045ED052EA03045BD03D
:10029000C3F30A54C1F30A552C44A4F2F334019475
:1002A000A0FB0254C1F3130141F48011C3F3130303
:1002B00043F4801301FB024400FB034E840A970AB7
:1002C00044EA815447EA8357A4FB076802958D0AE4
:1002D00005FB07854FEA932C04FB0C542705029D70
:1002E0004FEA065847EA1637B5EB08056EEB070CE0
:1002F000870E920E47EA811742EA8312A7FB02019A
:10030000B6EB0B0164EB00042B0D43EA0C335E18D3
:1003100044EB1C50DA465146E7FB0201C5F31304D7
:100320004FEA0B3343EA14534FEA0432019C43EA89
:100330000603A4F10C040294009CCDE900B400F083
:1003400094F803B0BDE8F08F00200146F9E70EB540
:1003500040F2334102910021CDE900110A460B46DB
:1003600000F083F803B000BD01F0004330B421F089
:10037000004150EA010206D00A0DA2F56072C1F3F5
:100380001301002A02DC30BC00207047440F44EA0D
:10039000C104C100E01830BC00EBC25000F01FB82F
:1003A000202A04DB203A00FA02F100207047914035
:1003B000C2F1200320FA03F3194390407047202A2A
:1003C00004DB203A21FA02F00021704721FA02F3FF
:1003D000D040C2F1200291400843194670470029DD
:1003E000A8BF7047401C490008BF20F001007047BB
:1003F00010B4B0FA80FC00FA0CF050EA010404BF1B
:1004000010BC704749B1CCF1200421FA04F411FA70
:100410000CF118BF012121430843A3EB0C01CB1DB4
:100420004FEA00614FEA102042BF002010BC704725
:1004300000EBC35010440029A4BF10BC7047401CFF
:10044000490008BF20F0010010BC704710B5141E11
:1004500073F1000408DA401C41F1000192185B417D
:100460001A4301D120F0010010BD2DE9F04D924654
:100470009B4611B1B1FA81F202E0B0FA80F220326B
:100480009046FFF78DFF04460F4640EA0A0041EA16
:100490000B0153465A46084313D0114653EA010054
:1004A00019D0C8F140025046FFF789FF05460E46B5
:1004B000504659464246FFF773FF084305D00120D6
:1004C00004E020463946BDE8F08D0020054346EAA9
:1004D000E0762C4337430A986305E40AA0EB080052
:1004E0000022FD0A44EA47540A3002D500200146A2
:1004F000E9E7010510196941DDE90845001969417D
:10050000BDE8F04DA2E70000064C074D06E0E068AC
:1005100040F0010394E8070098471034AC42F6D34A
:10052000FFF748FED43E0008F43E000810B504482A
:1005300000F018FCBDE81040014800F007BD0000C5
:1005400020020020454910B54A6822F440324A6032
:100550004A6843681A434A6001684A6822F4807214
:100560004A6001684A68036942EA03224A600168F6
:100570004A6822F040724A6001684A6883681A43F8
:100580004A6001688A6822F400628A6001688A68A9
:10059000C3681A438A60816A6FF07062D142016851
:1005A0008A6822F070628A6001688A680CD0836A67
:1005B0001A438A6001688A6822F040528A600168A2
:1005C0008A68C36A1A4301E022F040528A600168D7
:1005D0008A6822F002028A6001688A68836942EAB6
:1005E00043028A60016A002901684A680FD042F418
:1005F00000624A6001684A6822F460424A60016809
:100600004A68174C436A04EB43331A4301E022F46F
:1006100000624A600168CA6A22F47002CA62016814
:10062000CA6A838B0F4C04EB03531A43CA620168F6
:100630008A6822F400728A6001688A68036B42EA61
:1006400043228A6001688A6822F480628A600168B5
:100650008A68406942EA8020886010BD002301401A
:1006600000E0FFFF0000F0FFFEE710B50023C9B275
:10067000914203DC445C491C2344F8E7181410FA47
:1006800083F0C0B210BD0000014800F001BD0000C1
:1006900090040020014800F0FBBC0000F0040020A2
:1006A000014800F0F5BC0000F0020020014800F015
:1006B000EFBC0000D0030020014800F0E9BC0000BE
:1006C0003004002001681823CAB2103AB2FBF3F2DA
:1006D000054B6FF30901032A9B5CC36500D9091D13
:1006E0008165084670470000B43E000810B5014619
:1006F00000208B698A6A4FF0C07453B1B3F5005F74
:1007000015D072B1012A0CD0022A0AD0032A09D1CD
:1007100004E01AB1012A06D0022A03D1C96AC9012C
:1007200000D5012010BDC96AA142FAD010BD002A2F
:10073000F7D0012AF2D0022AF3D0032AF3D010BD59
:1007400030B50468256825F4802525600468636059
:100750008368402B036803D099600068C26030BD95
:100760009A600068C16030BD7047012000F0B4BFDE
:100770004FF4005000F0B0BF30B587B00D460446CE
:1007800000F0A4FE2049F3200860204600F06AF93A
:100790000446284600F066F9011B002005900090F1
:1007A0000220491C0294CDE9031005A9684600F017
:1007B000F7FD18B1A42115A003F0CEF812480C38AB
:1007C000016821F480610160016821F40071016019
:1007D000016841F480510160016821F48051016099
:1007E000016841F400610160016821F40061016069
:1007F000016841F400710160016841F480610160A9
:1008000007B0002030BD00000C3C02402E2E5C439F
:100810006F72655C5372635C666C6173682E630013
:10082000002229B101291DD002291ED04FF44072A7
:100830000B2800D9001D0E490B6823F440730B6090
:100840000B6813430B600A6822F0F8020A600A681A
:10085000022303EBC00002430A60086840F48030C2
:10086000086070474FF48072E2E74FF40072DFE7F0
:10087000103C02401348016889050FD5016821F436
:1008800000710160016841F400610160016821F4B8
:1008900000610160016841F400710160016849056F
:1008A0000FD5016821F480610160016841F4805135
:1008B0000160016821F480510160016841F48061A8
:1008C00001607047003C02400E4A136823F44073F5
:1008D000136003290DD0012911680FD041F40041A4
:1008E000116011684FF4803343EA00200143116026
:1008F0007047116848F204031943F1E741F004011D
:10090000EEE70000103C0240064A136823F44073EF
:10091000136013681360136843F0010313600170E0
:1009200070470000103C0240084910B50C6824F4E0
:1009300040740C600C6844F440740C600C6844F023
:1009400001040C600260436010BD0000103C0240D6
:10095000074A136823F440731360136843F48073E9
:100960001360136843F001031360018070470000B7
:10097000103C0240074A136823F440731360136865
:1009800043F400731360136843F0010313600160C4
:1009900070470000103C02401C490868C2061C4811
:1009A00005D5C26942F01002C26110220A600A68CD
:1009B000920605D5C26942F00802C26120220A608F
:1009C0000A68520605D5C26942F00402C26140229B
:1009D0000A600A68120605D5C26942F00202C261C5
:1009E00080220A600A68D20506D5C26942F0010277
:1009F000C2614FF480720A600A68920705D5C26925
:100A000042F02002C2610220086070470C3C0240A4
:100A10005005002070B5114904460020C86100F05F
:100A20005BFF06460E4D09E0601C07D024B100F0C4
:100A300053FF801BA04201D9032070BD2868C0036A
:100A4000F2D42868C00701D001202860286810F47B
:100A5000F970F2D0FFF7A0FF012070BD5005002013
:100A60000C3C024010B50021A0F100634FF480421D
:100A7000934204D345490144914201D2012182E0CD
:100A800043490144914201D202217CE041490144A1
:100A9000914201D2032176E03F494FF48033014473
:100AA000994201D204216EE03C4944184FF40031D0
:100AB0008C4201D2052166E0394C04448C4201D2BB
:100AC000062160E0374C04448C4201D207215AE0F1
:100AD000354C04448C4201D2082154E0334C044488
:100AE0008C4201D209214EE0314C04448C4201D2A7
:100AF0000A2148E02F4C04448C4201D20B2142E0F1
:100B0000A0F10164944201D20C213CE02A4C04443F
:100B1000944201D20D2136E0284C0444944201D283
:100B20000E2130E0264C0444944201D20F212AE0E9
:100B3000244A02449A4201D2102124E0224A02446B
:100B40008A4201D211211EE0204A02448A4201D287
:100B5000122118E01E4A02448A4201D2132112E0F7
:100B60001C4A02448A4201D214210CE01A4A02446F
:100B70008A4201D2152106E0184A1044884201D267
:100B8000162100E01721084610BD000000C0FFF745
:100B90000080FFF70040FFF70000FFF70000FEF7BE
:100BA0000000FCF70000FAF70000F8F70000F6F785
:100BB0000000F4F70000F2F700C0EFF70080EFF755
:100BC0000040EFF70000EFF70000EEF70000ECF751
:100BD0000000EAF70000E8F70000E6F70000E4F79D
:100BE0007047000078B50024009490F83C20012A5A
:100BF00019D0012280F83C200A6807230568092AD9
:100C000013D9EE680A3A02EB420293409E43EE602B
:100C10000A788B680A3A02EB420293400268D56870
:100C20002B43D36010E0022078BD2E6902EB420214
:100C300093409E432E610A788B6802EB42029340F8
:100C4000026815692B4313614A681F23072A13D2D0
:100C500005686E6B521E02EB820293409E436E63E8
:100C60000B790A885B1E92B203EB83039A400368F8
:100C70005D6B2A435A6327E005680D2A12D22E6B5A
:100C8000D21F02EB820293409E432E630B790A88A7
:100C9000DB1F92B203EB83039A4003681D6B2A4368
:100CA0001A6311E0EE6A0D3A02EB820293409E4312
:100CB000EE620B790A880D3B92B203EB83039A40F4
:100CC0000368DD6A2A43DA62174B0568154A9D42BC
:100CD00006D10D68122D03D1556845F48005556085
:100CE00005689D4219D1114D0B68AB4201D0112B03
:100CF00013D1536843F4000353600968A9420CD12F
:100D00000B490C4A0968B1FBF2F101EB8101490082
:100D100000E0491E00910029FBD180F83C400020F2
:100D200078BD0000002301400020014012000010A7
:100D30006400002040420F00064910B5884207D1E8
:100D4000084600F00CF802F017FE034880ED0A0A8E
:100D500010BD0000200200202C0100207047006818
:100D6000C06C704770B50446006801684268C1F302
:100D70004001C2F3401251B34AB3216CC90603D4F7
:100D8000216C41F400712164816811F0405F17D13A
:100D9000A169A9B9C16A11F4700F02D0816849052F
:100DA0000ED4416821F020014160206C20F4807055
:100DB0002064206CC00403D4206C40F00100206447
:100DC0002046FFF7B9FF21686FF012000860206825
:100DD00001684268C1F38001C2F3C01289B382B3D3
:100DE000216CC90603D4216C41F40051216481684F
:100DF00011F4401F1ED1816B11F4401F02D0816895
:100E0000490517D44168490514D4816811F0405F41
:100E100010D1A16971B9416821F080014160206C55
:100E200020F480502064206CC00503D4206C40F076
:100E3000010020642046FFF7D3FE21686FF00C000C
:100E4000086020680168426811F0010FC2F3801247
:100E50000ED06AB10068C0070AD0206C40F4803020
:100E60002064204600F046F821686FF00100086019
:100E7000206801684268C1F34011C2F38062002912
:100E80000DD0002A0BD0616C41F0020161646FF05B
:100E9000200505602046FFF761FF2068056070BDF2
:100EA00070B504004FF0000503D0206C002610B18F
:100EB00007E0012070BD666484F83C60204600F0C5
:100EC0001BF8206CC00610D4206C20F4885040F031
:100ED000020020642046FFF735FB6664206C20F09A
:100EE000020040F00100206400E0012584F83C602D
:100EF000284670BD7047000000B50068104987B0F3
:100F000088421AD10F480021026842F480720260C0
:100F1000006800F480700590022000900320CDE965
:100F200001016946084800F0E3FB0022022112207B
:100F300000F068FD122000F059FD07B000BD000070
:100F400000200140443802400000024018B5002152
:100F5000009190F83C20012A07D0012280F83C2023
:100F600002689368DB0702D011E0022018BD936885
:100F700043F001039360224A224B1268B2FBF3F262
:100F800002EB420200E0521E0092002AFBD10268EE
:100F90009368DB0732D0036C40F20164A34343F44F
:100FA0008073036453685B0505D5036C23F4005319
:100FB00043F480530364036CDB0404D5436C23F0D7
:100FC0000603436400E0416480F83C100E4B6FF070
:100FD0002201116001684A680C4C22434A6059683A
:100FE0000068C90602D00A49884207D1816811F019
:100FF000405F03D1816841F080418160002018BDCD
:101000006400002040420F00002301402000000443
:101010000020014090F83510022903D0802141655D
:1010200001207047052180F835100068016821F023
:10103000010101600020704770B5040025D094F8CC
:101040003500022820D02068016821F001010160EC
:10105000206800250560206845602068856020685C
:10106000C560206805612168212048612046FFF79E
:1010700029FB94F85C203F2191408160656584F8EC
:10108000355084F83450002070BD012070BD000040
:101090002DE9F84304464FF00009CDF8009063486D
:1010A0004FF41651A56D0068B0FBF1F72E6894F867
:1010B0005C10082000FA01F131420FD021680A6863
:1010C00052070BD50A6822F004020A6094F85C10FB
:1010D0008840A860606D40F00100606594F85C1085
:1010E0004FF0010808FA01F0304208D02168496940
:1010F000090604D5A860606D40F00200606594F8B0
:101100005C1004208840304208D0216809688907B3
:1011100004D5A860606D40F00400606594F85C1030
:1011200010208840304218D021680968090714D57A
:10113000A86020680168490304D50068000308D549
:10114000A16C07E00168C90503D4016821F008011A
:101150000160216C09B12046884794F85C1020207A
:101160008840304231D021680968C9062DD5A86071
:1011700094F8350005282068016806D0490347D552
:10118000006800031DD4616C1CE021F016010160B1
:101190002068416921F080014161206C08B9A06C90
:1011A00020B12068016821F00801016094F85C100A
:1011B0003F208840A86084F8349084F83580216D01
:1011C0001FE0E16B09B120468847606D00282BD0F5
:1011D000606DC00714D0052084F8350020680168D0
:1011E00021F0010101600098401C0090B84203D832
:1011F00020680068C007F6D184F8349084F8358000
:10120000E16C002910D001B02046BDE8F04308474A
:101210000168C905D5D4016821F01001016084F886
:10122000349084F83580CCE7BDE8F8836400002072
:101230002DE9F041044600F04FFB06465CB1002565
:1012400084F83450022084F835002068016821F0C9
:10125000010101600DE00120BDE8F08100F03CFBE0
:10126000801B052805D920206065032084F83500FF
:10127000F2E720680068C007F0D1226811682048B2
:101280000140D4E901031843D4E90336334318433A
:1012900063691843A3691843E3691843236A184331
:1012A0000843616A042903D1D4E90B1319430843A5
:1012B000106020684069666A20F0070130460E43DE
:1012C000012704280CD1A06A0643E06A40B12046F9
:1012D000FFF70CFA20B14020606584F83570BAE75A
:1012E000206846612046FFF7EDF994F85C203F2125
:1012F00091408160656584F835700020ACE700009E
:101300003F8010F02DE9F0410446866D90F83400DE
:10131000002501280DD0012084F8340094F83570A0
:101320000020012F07D084F8340002252846BDE8AC
:10133000F0810220FBE7022784F8357060652046C3
:10134000FFF7FEF994F85C103F208840B0602068F9
:10135000016841F0160101602068416941F0800197
:101360004161206C20B12068016841F008010160F2
:101370002068016841F001010160D7E770B50446BB
:1013800000F0AAFA0546601C02D004480078044424
:1013900000F0A2FA401BA042FAD370BD5800002012
:1013A0002DE9F047044623480F46017E01290AD063
:1013B0000121804601764CF250394846FFF72AFB5E
:1013C000020003D030E00220BDE8F0874FF0FF308C
:1013D00038602068184D012801D0A6681DE0207CE7
:1013E0006168FFF771FA4846FFF714FB0246286868
:1013F00048F204018843286014E0217C3046FFF75E
:101400000FFA4846FFF706FB0200286820F0FA00B2
:10141000286001D03E6005E0761CD4E90210084443
:10142000B042EAD8FFF726FA002188F818101046D3
:10143000CAE7000050050020103C02400348016844
:1014400041F000410160002070470000103C024064
:101450002DE9F0471B4E05461446307E1F4689464F
:10146000012808D0012030764CF250384046FFF772
:10147000D1FA18B114E00220BDE8F0879DB1012D2A
:1014800016D0022D19D022463B464846FFF74CFAAB
:101490004046FFF7BFFA0C490A6822F001020A60D1
:1014A00000213176E8E7E1B24846FFF72DFAEFE791
:1014B000A1B24846FFF74CFAEAE721464846FFF753
:1014C00059FAE5E750050020103C0240074900208A
:1014D0000A68002A09DA054A054B0C3A1360054BE5
:1014E00013600968002900DA01207047103C0240AF
:1014F00023016745AB89EFCD2DE9F04FDFF838B117
:1015000000224FF001094FF00F0A00BF09FA02F460
:1015100001EA0403A3427DD1066857000325BD40BC
:10152000AE430660D60800EB8606D6F820C0570703
:101530004FEAD7680AFA08F72CEA070CC6F820C069
:101540008668AE4386604668A6434660C468AC437E
:10155000C46022F003055D44D5F808789407260F8F
:101560000AFA06F4DFF8D4C02740604502D14FF0F4
:10157000000C40E0DFF8C8C0604502D14FF0010C1C
:1015800039E0DFF8C0C0604502D14FF0020C32E014
:10159000DFF8B4C0604502D14FF0030C2BE0DFF858
:1015A000ACC0604502D14FF0040C24E0DFF8A0C0CD
:1015B000604502D14FF0050C1DE0DFF898C0604592
:1015C00002D14FF0060C16E0DFF88CC0604502D166
:1015D0004FF0070C0FE0DFF884C0604502D14FF0F8
:1015E000080C08E0DFF878C0604502D14FF0090C24
:1015F00001E04FF00A0C0CFA06FCBC4516D1D5F8F8
:101600000868A643C5F80868164C25689D43256000
:10161000241D00E00AE025689D432560241D2568FF
:101620009D432560241D25689D432560521C102A7A
:10163000FFF46CAFBDE8F08F0030014000000240C5
:101640000004024000080240000C0240001002406A
:101650000014024000180240001C0240002002401A
:1016600000240240003C01402DE9F041154F0126C5
:10167000154C164DB0F5005F10D001280CD101219A
:10168000134800F01BF9012815D06868002803DD15
:1016900000206F6084F82F00BDE8F0816F60207D2E
:1016A0000028F9D10B48007820772675606828302B
:1016B000A0616675F0E740F6B830686084F82F6086
:1016C000EAE70000A0BB0D002C0100200400002070
:1016D0000000024000000020044910B50A680242E0
:1016E00002D00860FFF7C0FF10BD0000143C0140AD
:1016F0002DE9F84FDFF890B100224FF001084FF0CC
:10170000030A4FF00F090BF1040E00BF0B6808FA33
:1017100002F42340A3426ED14D68022D01D0122D58
:101720000ED1D50800EB850CDCF820505607F70EDB
:1017300009FA07F6B5430E69BE402E43CCF8206087
:10174000066855000F790AFA05FC07F0030726EA38
:101750000C06AF40374307604E68012E05D0022EBD
:1017600003D0112E01D0122E0ED18768CE6827EA41
:101770000C07AE403E4386604668A6430C79C4F32E
:101780000014944034434460C4688E6824EA0C0416
:10179000AE402643C6604C68E4006FD53B4C2568DC
:1017A00045F480452560246822F0030504F4804454
:1017B0000094374C2E19D6F8084895072F0F09FAD0
:1017C00007F5AC43334DA84201D100252EE0324D40
:1017D000A84201D1012529E0304DA84201D10225BE
:1017E00024E02F4DA84201D103251FE02D4DA84232
:1017F00002D104251AE041E02B4DA84201D1052574
:1018000014E02A4DA84201D106250FE0284DA84238
:1018100001D107250AE0274DA84201D1082505E09E
:10182000254DA84201D1092500E00A25BD402543E8
:10183000C6F80858DBF800405D464E689C43F60346
:1018400000D51C432C60DEF8004075464E689C4372
:10185000B60300D51C432C600B4D08352C684E6830
:101860009C43F60200D51C432C60074D0C352C68B8
:101870004E689C43B60200D51C432C60521C102AB3
:10188000FFF444AFBDE8F88F003C0140443802400B
:101890000030014000000240000402400008024005
:1018A000000C0240001002400014024000180240E8
:1018B000001C024000200240002402400069084051
:1018C00000D00120704742694A40426170470AB126
:1018D000816170470904FBE7014880687047000098
:1018E00058000020024881680278114481607047E6
:1018F000580000200B4810B5016841F400710160E8
:10190000016841F480610160016841F48071016007
:10191000032000F097F8002000F006F800F024F80B
:10192000002010BD003C024070B50D4D04464FF440
:101930007A712878B1FBF0F00A490968B1FBF0F040
:1019400000F0ACFE48B9102C07D200222146501EF0
:1019500000F058F800206C6070BD012070BD0000E0
:1019600058000020640000201F4808B5016841F4B9
:1019700080410160006800F4804000901A48001F18
:10198000016841F080510160006800F080500090D3
:10199000032000F057F8002211466FF00B0000F012
:1019A00031F8002211466FF00A0000F02BF80022F7
:1019B00011466FF0090000F025F800221146501F73
:1019C00000F020F800221146101F00F01BF8002242
:1019D0001146901E00F016F80022BDE8084011469E
:1019E000501E00F00FB800004438024000F01F0203
:1019F000012191404009800000F1E020C0F8001171
:101A000070470000F0B40E4B1B680C46C3F3022372
:101A1000C3F10705042D00D90425191D072901D29A
:101A2000002300E0DB1E012606FA05F1491E2140D5
:101A300099409E40761E16403143F0BC01F006BB33
:101A40000CED00E0064900F0070208684FF6FF03BE
:101A5000184040EA0220034A104308607047000023
:101A60000CED00E00000FA052DE9F8431748016885
:101A700041F0805101600068154F00F08050012650
:101A800000903E64FFF728FF05464FF47A78114C2A
:101A900005E000BFFFF720FF401B40450DD8606800
:101AA000C003F7D57E64FFF717FF0546464607E0FB
:101AB000FFF712FF401BB04202D90320BDE8F883B4
:101AC00060688003F4D50020F8E700004038024049
:101AD00000000E420070004002494A6882434A609A
:101AE000704700000070004002494A6802434A60A3
:101AF00070470000007000400548016841F0020195
:101B000001600448016841F00401016030BF704782
:101B10000070004010ED00E02DE9F84F0446006829
:101B2000DFF804A2814F824DC1074FF001084FF04A
:101B3000000601D180073CD5CAF86860FFF7CCFEEB
:101B4000814605E0FFF7C8FEA0EB0900022878D81F
:101B500028680001F6D42078C107764805D061686E
:101B6000227A890141EA027101602178890711D541
:101B700001686268237B9201C1F3027142EA036249
:101B800042EA017101603868E16920F01F00491ED6
:101B900008433860CAF86880FFF79EFE814605E07A
:101BA000FFF79AFEA0EB090002284AD82868000136
:101BB000F6D52068410701D400074CD5CAF87060FB
:101BC000FFF78AFE814605E0FFF786FEA0EB0900DD
:101BD000022836D82868C0438000F5D52078410710
:101BE000554814D501682269237D9201C1F3027121
:101BF00042EA036242EA017101603968226A6FF0C9
:101C0000FF0321F4F85103EB0222114339602178DC
:101C1000090710D501682269C1F30361920142EA04
:101C20000161227E41EA027101603868616A20F434
:101C3000403008433860CAF87080FFF74DFE074611
:101C400005E048E0FFF748FEC01B022843D828689B
:101C5000C0438000F6D42078800653D53448403005
:101C6000016841F0805101600068344D00F08050FF
:101C70000090286840F480702860FFF72DFE07462A
:101C800005E000BFFFF728FEC01B022823D8286804
:101C9000C005F7D5274D143D286810F4407020D0BA
:101CA000218D01F4407181421BD02868244920F421
:101CB0004070C1F800800E6028602868C00710D00E
:101CC000FFF70AFE064641F2883707E0FFF704FEF9
:101CD000801BB84202D90320BDE8F88F286880072E
:101CE000F4D5A16A1248C1F301220830032A13D0A7
:101CF000016821F4F81101602868218DC1F30B01FE
:101D0000084328602078C00604D50E4994F82C00BA
:101D1000C1F8E0010020DFE702680B4B22F4F81263
:101D200019400A430260E7E7000047428C3802404E
:101D30000038024084380240883802400070004079
:101D4000400E474200104742FFFCFF0F2DE9F047CD
:101D50000E46050065D0DFF81481D8F80000F7B210
:101D600000F00F00B04207D288F80070D8F80000E9
:101D700000F00F00B04254D128683D4C810712D5C5
:101D8000400703D5206840F4E05020602878000721
:101D900003D5206840F4604020602068A96820F0E6
:101DA000F000084320602878C0072DD030496868CB
:101DB0000839012812D0022813D0032811D009684D
:101DC000890700292DDA216821F0030101432160F0
:101DD000FFF782FD814641F2883A0EE009688903E7
:101DE000EFE709688901ECE7FFF776FDA0EB090151
:101DF000514502D90320BDE8F0872068696800F0EA
:101E00000C00B0EB810FEFD1D8F80010404601F084
:101E10000F01B14207D90770006800F00F00B0420F
:101E200001D00120E7E72878400705D52068E96858
:101E300020F4E050084320602878000706D5206889
:101E4000296920F4604040EAC100206000F03CF8BD
:101E50002168084AC1F30311515CC8400649086073
:101E60000020FFF761FD0020C5E70000003C0240B4
:101E700008380240BC3E00086400002001480068A9
:101E800070470000640000200448054900680968A4
:101E9000044AC1F38221515CC840704764000020AD
:101EA00008380240CC3E000804480549006809682B
:101EB000044AC1F34231515CC840704764000020BD
:101EC00008380240CC3E0008154810B5006810F0F4
:101ED0000C02144813D04110042A0FD0082A0ED146
:101EE0000F4C241F2268236802F03F025B0207D5D3
:101EF0002068C0F38810A0FB010106E0084610BD71
:101F00002168C1F38811A1FB00010023FEF76AF9E3
:101F10002168C1F30141491C4900B0FBF1F010BD3B
:101F2000083802400024F4002DE9F84F050076D06F
:101F30002878DFF8F8B2BE4CC00749D0DBF80010B3
:101F40005846C1F38101012908D00068C0F381001F
:101F500002280AD1201D0068400206D520688003AF
:101F600036D568680028E2D032E06868B0F5803F76
:101F700010D0B0F5A02F206810D020F48030206061
:101F8000206820F4802020606868A0B1FFF7A4FCDE
:101F900006460CE0206840F48030F4E740F48020EE
:101FA0002060F7E7FFF798FC801B642873D820684F
:101FB0008003F7D50CE0FFF78FFC064605E000BF75
:101FC000FFF78AFC801B6428F0D820688003F7D4D0
:101FD0002878DFF8608280074FF000093ED5DBF8F3
:101FE0000010584611F00C0F09D00068C0F38100B2
:101FF00002280BD18D48001F0068400206D42068DB
:10200000800715D5E868012809D111E0E868B8B162
:102010000120C8F80000FFF75FFC064605E002E17A
:10202000FFF75AFC801B0228C0D820688007F7D52C
:102030002068296920F0F80040EAC10020600DE026
:10204000C8F80090FFF748FC064604E0FFF744FCA0
:10205000801B02281FD820688007F7D42878000743
:1020600022D5724E744869696C3671B101210160E4
:10207000FFF732FC074604E0FFF72EFCC01B0228E6
:1020800009D830688007F7D50EE0C0F80090FFF758
:1020900023FC074605E083E0FFF71EFCC01B022877
:1020A0007ED830688007F7D42878400768D5DFF8F5
:1020B0007CA100270AF1380ADAF80000C0000BD42E
:1020C000DAF8001041F08051CAF80010DAF8000088
:1020D000012700F080500090584E3068C00510D4A1
:1020E000306840F480703060FFF7F6FB009005E048
:1020F000FFF7F2FB0099401A022851D83068C0055A
:10210000F6D54A4EA868683601280FD005283068F1
:1021100010D020F001003060306820F00400306002
:10212000A868B8B1FFF7D8FB00900FE0306840F026
:102130000100F4E740F004003060F7E7FFF7CCFB64
:102140000099411A41F28830814264D83068800792
:10215000F4D50EE0FFF7C0FB009007E0FFF7BCFBF3
:102160000099411A41F28830814254D83068800782
:10217000F4D42FB1DAF8001021F08051CAF8001021
:10218000A869C0B3DBF80010C1F3810102294AD06D
:102190000228484607D0C8F86000FFF79DFB00E022
:1021A00039E005463AE04746C8F86000FFF794FB7F
:1021B000064604E0FFF790FB801B02282BD820681E
:1021C0008001F7D4D5E907010843A96A1C4A4908E8
:1021D00002EB01416A6A41EA8211084395F82C102A
:1021E00040EA01611148001F016001203866FFF7D5
:1021F00073FB054605E014E0FFF76EFB401B022869
:1022000009D820688001F7D50BE000BFFFF764FB19
:10221000401B022802D90320BDE8F88F2068800106
:10222000F4D40020F8E70120F6E700000838024067
:102230000038024000004742800E474200700040D4
:102240000000FFFF70B504001BD0022084F881005D
:102250002068002505612168681E8861204600F01D
:10226000ABFF2068416841F008014160204600F062
:10227000C7F8C4F8845084F8815084F88050002056
:1022800070BD012070BD00000B2101A001F084B9D8
:10229000736169206572726F720D0A0070B5040077
:1022A0004FF0000504D094F88100002610B106E03C
:1022B000012070BD84F88060204600F0C7F802203D
:1022C00084F88100204600F077FF204600F01EFFD2
:1022D000206AA8B1204600F08FFF216A00EB800041
:1022E00040004902B0FBF1F10A22B1FBF2F0B1FB70
:1022F000F2F302FB13116062082901D9401C6062ED
:1023000060684FF4007170B102280CD0206C012875
:1023100000D00021A06878B1012808D0022809D097
:10232000032809D106E0206C0128F2D0F2E74FF42F
:10233000806501E04FF40065206802682E4B1A406A
:102340000260626B60681043D4E90E231A431043A5
:102350000843A16A28430843216908436169084387
:10236000A18C40EA01512068026811430160206895
:1023700041684EF20F029143416021684868A269AA
:102380001043D4E90B231A43104348602068816846
:102390001A4A11408160626DE06C616C0243206DED
:1023A000491E08430243A06C6FF0FF0101EB0020BF
:1023B0000243206883681A4382602068C2684FF233
:1023C00020031A40C260D4E916021043226E01EBCA
:1023D0000221B4F8642041EA024108432168CA6836
:1023E0001043C860C4F88460012084F8810084F838
:1023F0008060002070BD000010C005FF0080F8FF65
:1024000010B5044600680D49884215D10C4908688A
:10241000401E086004D10B48016821F4800101606E
:1024200074210948FFF768F8606FFEF705FE206F1A
:10243000BDE81040FEF700BE10BD0000045801408A
:1024400054000020443802400010024070B5064697
:102450000068204986B088423AD11F4A0025116899
:1024600041B91E48036843F480030360006800F428
:1024700080000590491C1160742000900220CDE975
:1024800001050620CDE9035069461548FFF730F9EC
:10249000154C1448C4E900050015A560C4E90350B3
:1024A000800060618000A0618011E06140022062D4
:1024B0000420C4E90905E56220462563FEF7B8FE5D
:1024C00018B1832109A001F047FA7467A663346745
:1024D00006B070BD0458014054000020443802404A
:1024E0000010024028640240F00200202E2E2F43EC
:1024F0006F72652F5372632F7361692E6300000042
:1025000070B5044629B122B194F88100012802D0A7
:1025100043E0012070BD94F8800001283DD00120E7
:1025200084F88000A166A4F86C20A4F86E20002531
:10253000C4F88450222084F88100616F1848086430
:10254000616F1848C863616F1748C864606F05659C
:102550002168B4F86C301C31A26E606FFEF7D2FEB9
:1025600010B184F88050D4E720680168C90303D40F
:10257000016841F4803101600021204600F094FEA2
:1025800021680A69104308612068016841F400313C
:10259000016084F88050002070BD022070BD0000F2
:1025A000AD310008713100082D310008104A30B4F7
:1025B0001378114C03EB43004006010E0D482144F3
:1025C0005B1C0578CD7044780C7184784C7104796B
:1025D0008C714479CC7180790872D8B210700A2855
:1025E00004D30020107030BC00F014BB30BC704726
:1025F000000000200C000020EA00002070474FF08F
:10260000E0210428086903D020F004000861704725
:1026100040F00400FAE7000070B5FFF75DF91C49CF
:1026200005461C4E087810B14868002806DC304684
:10263000BDE8704000222021FFF749B9164C03285D
:1026400001DA00222274401E4860E06D002808DD97
:10265000B5FBF0F100FB115068B920213046FFF7BF
:1026600032F9E06D38B94FF0FF30E06501222021EA
:102670003046FFF72CF94FF4FA60B5FBF0F100FBA0
:102680001150002803D1BDE8704000F003BD70BDBB
:1026900004000020000002402C01002010B5401E64
:1026A000B0F1807F01D3012010BD4FF0E0246061C4
:1026B0000F21601700F0CAFC0020A06107202061F4
:1026C000002010BD10B5FFF7A7FF10BD7047000038
:1026D00070B5026804461068D168536910F00F0F96
:1026E00050D003F0010501F4907635435DD0C20768
:1026F00005D0CA0503D5E26B42F00102E26342074E
:1027000005D5DA0703D0E26B42F00202E2638207EA
:1027100005D5DA0703D0E26B42F00402E263020758
:1027200005D5DA0703D0E26B42F00802E263E26B00
:10273000002A33D0800604D5880602D5204600F052
:10274000E4FE20684069E16BC0F38010090700D403
:1027500028B3204600F0C2FE2068416949061AD518
:10276000416921F040014161606BA0B11B490165E5
:10277000606BFEF74FFC002810D0606B016DBDE868
:1027800070400847830610D58B060ED52046BDE85D
:10279000704000F0BABE2046FFF798FF70BD20469B
:1027A000FFF794FF0020E06370BD030606D50B061B
:1027B00004D52046BDE8704001F05CB84006F3D572
:1027C0004806F1D5D168204621F04001D160202192
:1027D00084F8391000F0C2F970BD0000053400081B
:1027E00070B5040004D094F83900002510B106E05B
:1027F000012070BD84F83850204600F023F82420D2
:1028000084F839002068C16821F40051C160204675
:1028100000F0DAFE2068016921F49041016120682E
:10282000416921F02A0141612068C16841F40051E9
:10283000C160E563202084F8390084F83A00002064
:1028400070BD00002DE9F04F04460068634A02277E
:1028500007210025032687B04FF001094FF0006AD9
:102860004FF4806B90424ED15D48026842F01002F6
:102870000260006800F010000590CDE9036170026D
:102880008DE8810269465748FEF732FF574E564899
:1028900057463060C6E901A5C6E9035B801575613E
:1028A000C6E906504002C6E90805D8463046FEF79C
:1028B000BFFC18B185214EA001F04EF86663B463E9
:1028C0004A4E494860367830E6E802074020A6E8DC
:1028D00021014FF4403046F81459B561C6E907505C
:1028E000424875626030FEF7A3FC18B1972140A002
:1028F00001F032F82663002211462520B463FFF769
:1029000081F8252064E03F4A904263D13448001F9B
:10291000026842F4003202600068884600F4003029
:1029200005901820CDE9000702AA694682E86001F7
:102930003548FEF7DDFE60208DE88102CDE90368B1
:1029400069463148FEF7D4FE284F3048C037D0469C
:102950003860C7E901A5C7E9035B80157D61C7E958
:102960000650C7E90A6540024FF0040A3D63C7E913
:10297000080AD9463846FEF75BFC18B1D0211CA0E6
:1029800000F0EAFF6763BC632048214F1830E7E896
:1029900002084020A7E821024FF4403047F81459BC
:1029A000C7F824A0BD61C7E90750C7E90A65184800
:1029B0003D63FEF73DFC18B1E5210DA000F0CCFF12
:1029C0002763002211462620BC63FFF71BF8262050
:1029D000FFF70CF807B0BDE8F08F000000100140D1
:1029E000443802400000024040640240D00300200E
:1029F0002E2E2F436F72652F5372632F7573617282
:102A0000742E630000440040000C024088600240C5
:102A1000F0040020F8B5044690F83A0020283CD194
:102A2000C1B3BAB394F83800012836D0012084F835
:102A30003800A162A2850025E563222084F83A00CF
:102A4000636B1748D863636B16481864636B16484A
:102A5000D864606B134605650846666B21680246BC
:102A60003046091DFEF74EFC206801684168009160
:102A700084F83850C16841F48071C16020684169B0
:102A800041F0010141612068416941F0400141612B
:102A90000020F8BDFFE70120FBE70220F9E7000076
:102AA0005F3400089B340008153400080749884249
:102AB00002D14021064805E00649884204D1044875
:102AC0004021403001F094B87047000050030020CE
:102AD000A0010020900300207047000070B504465C
:102AE00090F83900202830D169B362B394F83800E7
:102AF00001282AD0012084F838002162A284E284CF
:102B00000025E563212084F83900236B1048D86341
:102B1000236B10481864236B0F48D864206B13464E
:102B200005652668206B321DFEF7ECFB21686FF00F
:102B30004000086084F838502068416941F0800105
:102B40004161002070BD012070BD022070BD0000F9
:102B5000A5340008D33400081534000870477047C6
:102B600070B51C4C002550B96068C043800730D454
:102B7000194E01213046FEF7A1FE01281FD0002585
:102B800001F066F918B16D1CEDB2322DF8D313497E
:102B9000002081F82F004FF4FA70FEF7EFFB4FF49E
:102BA00080752846FEF798FF206840F004002060FA
:102BB0002846FEF799FFBDE87040FEF79DBF6420F0
:102BC000FEF7DCFB6D1C1E2DD3DB206840F00800F7
:102BD000206070BD00700040000002402C01002009
:102BE000FEE7000010B5012251030848FEF76FFE12
:102BF000074C012211462046FEF769FE20460022BE
:102C0000BDE810400221FEF762BE0000000802404D
:102C10000010024010B50E4C207C002813D0A07884
:102C200010B9207D00280ED0207810B960780028D7
:102C300009D001F035F8002805D1A06910F10A0F7C
:102C400002DD0A38A06110BD0020207510BD000013
:102C50002C0100207FB515481349002401604FF472
:102C60008031C0E901140461846111490462C0E942
:102C70000A140125C460C56145610463FEF710F9BB
:102C800018B148210BA000F067FE0095CDE9015472
:102C900069460648FDF7A6FF002803D0522105A08B
:102CA00000F05AFE7FBD00000020014020020020FD
:102CB0000100000F2E2E2F436F72652F5372632F6A
:102CC0006164632E630000001D4808B5016841F48B
:102CD00080010160016801F480010091016841F404
:102CE000001101600068002200F4001000901146FD
:102CF0001020FEF787FE1020FEF778FE0022114616
:102D00001120FEF77FFE1120FEF770FE0022114613
:102D10003920FEF777FE3920FEF768FE00221146C3
:102D20003A20FEF76FFE3A20FEF760FE00221146C1
:102D30004620FEF767FEBDE808404620FEF756BE77
:102D4000303802402DE9F04F6F4887B00025016808
:102D500041F010010160016801F010010591016866
:102D600041F004010160016801F00401059101686E
:102D700041F080010160016801F080010591016866
:102D800041F001010160016801F001010591016854
:102D900041F002010160016801F002010591016842
:102DA00041F0080101600068DFF8609100F0080060
:102DB000059000224FF401514846FEF788FD544F1C
:102DC000002238213846FEF782FDDFF848B10122A3
:102DD00011035846FEF77BFDDFF83CA101220321D9
:102DE0005046FEF774FD00224FF458715846FEF726
:102DF0006EFD002203214948FEF769FD01244FF4CE
:102E00000058CDE9008469464846CDE90245FEF701
:102E10006FFC43486946CDE9004002953846FEF70D
:102E200067FC1820CDE9000469463846CDE9024523
:102E3000FEF75EFC2020022603958DE851006946CE
:102E40003846FEF755FC4FF440770097CDE9015422
:102E500069463248FEF74CFC4FF48350CDE900043C
:102E600069465846CDE90245FEF742FC2D48CDF8AB
:102E70000080CDE9010569465846FEF739FCA003FC
:102E8000CDE90005694602945046FEF731FC40202A
:102E900003958DE8510069464846FEF729FC8020DD
:102EA000CDE90005694602944846FEF721FC03255A
:102EB000CDE90054CDE9024669465046FEF718FCBC
:102EC0000097CDE90146694658460396FEF710FC87
:102ED0000095CDE90146694610480396FEF708FCC7
:102EE000002211460620FEF78DFD0620FEF77EFD2E
:102EF000002211462820FEF785FD2820FEF776FDEA
:102F000007B0BDE8F08F00003038024000080240F2
:102F10000000024000040240000C02400010024089
:102F20000000311000001110174810B5154901605C
:102F300001220021C0234260C0E90D13C0E90F1235
:102F4000530303618160C0E90512C16140224264FC
:102F5000016220228264D202C0E913219200C0E9FA
:102F600015218021C1650221016603214166FFF719
:102F700095F9002805D0BDE81040512103A000F0CC
:102F8000EBBC10BD04580140680200202E2E2F43D8
:102F90006F72652F5372632F7361692E6300000097
:102FA0000D4810B50B4901600C494160002181605A
:102FB0000C22C160C0E904128161C161FFF710FCFD
:102FC000002805D0BDE81040482105A000F0C4BC91
:102FD00010BD0000001001405003002060E3160007
:102FE0002E2E2F436F72652F5372632F757361728C
:102FF000742E63000D4810B50B4901600C49416007
:10300000002181600C22C160C0E904129201C0E974
:103010000621FFF7E5FB002805D0BDE810405B2145
:1030200004A000F099BC10BD0044004090030020B3
:1030300060E316002E2E2F436F72652F5372632F9D
:1030400075736172742E6300FEE770470907090EFD
:10305000002806DA00F00F0000F1E02080F8141DCF
:10306000704700F1E02080F80014704770470000BE
:1030700010B5074B002207E01C78FF2C00D12AB1C5
:103080008454521CD2B25B1C8A42F5D3002010BD7E
:103090000000010870B5194D4FF400712846FEF785
:1030A0000DFCE0B10020164C4FF4807184F82C0028
:1030B0002846FEF703FC84F82E0080211148FEF715
:1030C000FDFB70B15FF0000084F82D0094F82C1027
:1030D0000D4889B194F82E1029B1002105E0012096
:1030E000E1E70120F0E74FF4FA710022E165BDE865
:1030F00070400121FEF7EBBB0122F8E7001002400F
:103100002C01002000080240000C0240C068002191
:1031100038B1012802D0022803D101E0102100E0DB
:1031200020210148016070470058014010B5846BB0
:10313000D4F8840040F08000C4F88400206F406D13
:10314000012803D0606F406D01280DD1206801680F
:1031500021F400310160204600F02EF8012084F8AF
:1031600081000020A4F86E002046FFF78DF810BD06
:1031700010B5846B00680068C00513D4206801682E
:1031800021F4003101600020A4F86E0001462046C1
:1031900000F08AF80146206802698A430261012032
:1031A00084F881002046FFF701FA10BD10B5806B4E
:1031B000FFF724FA10BD000010B50E4941F6583251
:1031C00003680968B1FBF2F18A001C68002124F44D
:1031D00080341C60521E06D250F8841F41F040011A
:1031E0000160032103E003681B68DB03F2D4084697
:1031F00010BD00006400002010B5254C254903686F
:10320000C269A3420B6804D123F4401313430B603B
:1032100004E023F4400343EA82020A601D4A883A2C
:10322000136812685B0202F03F0201D41A4B00E0FF
:103230001A4BC069B3FBF2F240B1B0F5801F14D055
:1032400017490120C1F85C01164810BD114B1B1F26
:1032500018681B68C0F30360C3F388135343B3FBC0
:10326000F0F20868C0F304200DE00A48083803684B
:103270000068C3F30363C0F388105043B0FBF3F25C
:10328000086800F01F00401CB2FBF0F010BD000009
:10329000045801408C3802400024F40000127A00E7
:1032A000000047420080BB000122012900D1092211
:1032B000416B4068082905D1032801D0012803D1BA
:1032C00042F01002032804D0022802D042F0040089
:1032D000704742F060007047704710B5FEF702FB80
:1032E000BDE81040FFF7EEB970B52F489EB00168F9
:1032F00021F4401101602C4800264C38016841F04F
:1033000080510160006800F080501D9027480168DE
:1033100041F4404101600068022400F440401D90E7
:1033200001200090000401908001CDE906400425B1
:10333000B420CDE908506846CDE90A45FEF7F4FD12
:1033400000B1FEE7FEF790FB00B1FEE718A90F20E1
:1033500081E851004FF4A0501B904FF480501C9016
:10336000052118A8FEF7F2FC00B1FEE740200C95FD
:10337000CDE91005192014900CA8FEF7CDFB00B183
:10338000FEE7FEF77BFD4FF47A71B0FBF1F0FFF73B
:1033900085F90420FFF733F900221146501EFEF78D
:1033A00031FB1EB070BD00008C3802400070004040
:1033B0001048016841F4700101600F48016841F054
:1033C000010101600C4A00210832116002680B4BB8
:1033D0001A400260031D0A4A1A60026822F4802221
:1033E000026005480C3001600249580680390860C7
:1033F0007047000088ED00E000380240FFFFF6FE55
:103400001030002410B5806B0021C185C184FFF706
:103410005DF910BD70B5846B2068406994F839106F
:10342000C0F3C0100025212904D118B1E58420463D
:1034300000F062F82068406994F83A10C0F38010F8
:10344000222904D118B1E585204600F047F8E06B49
:1034500040F01000E0632046FFF738F970BD10B56A
:103460000146806B09680968C90513D40021C1852C
:103470000168CA6822F48072CA6001684A6922F051
:1034800001024A6101684A6922F040024A61202132
:1034900080F83A10FFF70AFB10BD10B5806BFFF7FC
:1034A0001BFB10BD10B50146806B09680968C90592
:1034B0000CD40021C18401684A6922F080024A616B
:1034C0000068C16841F04001C16010BDFFF746FBD4
:1034D00010BD10B5806BFFF742FB10BD0168CA68D4
:1034E00022F49072CA6001684A6922F001024A61BE
:1034F000202180F83A1070470168CA6822F0C002A3
:10350000CA60202180F83910704710B590F83A1041
:10351000222901D0022010BD8168B1F5805F11D051
:103520000169002901681FD0496801F07F03816AA1
:103530004A1C82620B70C18D491E0904090CC185A9
:1035400018D026E00269816A002A0268526805D014
:10355000D2B20A80816A491C8162ECE7C2F3080298
:103560000A80816A891CF7E74A68816A4B1C83627A
:103570000A70E0E70168CA6822F49072CA600168C4
:103580004A6922F001024A61202180F83A10FFF7CF
:103590008DFA002010BD000010B5084C94F82C20C6
:1035A0000AB1074B00E0074B0A4601461846FFF7F1
:1035B00095FA022801D13221E16510BD2C010020CD
:1035C00050030020900300202DE9F04104460068DC
:1035D000016921F44052E168114301612168C86822
:1035E00049F20C6290432369A268E5691A43636952
:1035F0002B431A430243CA602168486920F4407291
:10360000A06910434861E1696425B1F5004F97480E
:10361000974A21684FF032083FD0914201D0814251
:103620007CD1FEF741FC00EBC00101EB00106168AA
:103630008900B0FBF1F6FEF737FC00EBC00101EBAF
:10364000001061688900B0FBF1F0B0FBF5F06FF09D
:103650001801484306EB800108EB0110B0FBF5F0C0
:1036600000F0F006FEF720FC00EBC00101EB0010BB
:1036700061688900B0FBF1F0B0FBF5F006EB0016D5
:10368000FEF712FC00EBC00101EB0010616889003D
:10369000B0FBF1F7FEF708FCD2E0914201D0814285
:1036A0003DD1FEF701FC00EBC00101EB00106168A9
:1036B0004900B0FBF1F0B0FBF5F00601FEF7F4FBBA
:1036C00000EBC00101EB001061684900B0FBF1F7AD
:1036D000FEF7EAFB00EBC00101EB00106168490056
:1036E000B0FBF1F0B0FBF5F06FF01801484307EBC9
:1036F000800108EBC100B0FBF5F000F0F80006EB2C
:103700004006FEF7D1FB00EBC00101EB0010616841
:103710004900B0FBF1F7FEF7C7FB3CE055E0FEF7D0
:10372000B3FB00EBC00101EB001061684900B0FB86
:10373000F1F0B0FBF5F00601FEF7A6FB00EBC001CF
:1037400001EB001061684900B0FBF1F7FEF79CFB4C
:1037500000EBC00101EB001061684900B0FBF1F023
:10376000B0FBF5F06FF01801484307EB800108EB60
:10377000C100B0FBF5F000F0F80006EB4006FEF7E4
:1037800083FB00EBC00101EB001061684900B0FB56
:10379000F1F7FEF779FB00EBC00101EB0010616867
:1037A0004900B0FBF1F0B0FBF5F06FF018014843B1
:1037B00007EB800108EBC100B0FBF5F000F007005B
:1037C000216830448860BDE8F081FEF75DFB00EBC6
:1037D000C00101EB001061688900B0FBF1F6FEF753
:1037E00053FB00EBC00101EB001061688900B0FBE6
:1037F000F1F0B0FBF5F06FF01801484306EB8001E3
:1038000008EB0110B0FBF5F000F0F006FEF73CFB12
:1038100000EBC00101EB001061688900B0FBF1F022
:10382000B0FBF5F006EB0016FEF72EFB00EBC00137
:1038300001EB001061688900B0FBF1F7FEF724FB93
:1038400000EBC00101EB001061688900B0FBF1F0F2
:10385000B0FBF5F06FF01801484307EB800108EB6F
:103860000110B0FBF5F000F00F00A9E700140140D3
:103870000010014090F83910212901D00220704732
:103880008168B1F5805F016A0BD04A1C0262026850
:1038900009785160C18C491E0904090CC1840ED0FD
:1038A00017E009880268C1F3080151600169002925
:1038B000016A02D0491C0162ECE7891CFBE7016840
:1038C000CA6822F08002CA600068C16841F0400105
:1038D000C1600020704700000148FEF7F9BE0000FB
:1038E000500300200148FEF7F3BE000090030020C3
:1038F000FEE700002DE9F0410E4607460F4D104C43
:10390000FDF7E4FD21462846FCF736FF10B1012003
:10391000BDE8F08100240BE000233A5D2919184628
:10392000FDF796FD18B1C92106A000F015F8641C3A
:10393000B442F1D3FDF782FD0020E9E70000010861
:10394000FFFF03082E2E5C436F72655C5372635C4D
:10395000666C6173682E6300FEE702E008C8121F00
:1039600008C1002AFAD170477047002001E001C168
:10397000121F002AFBD1704770B500242DED028B79
:103980009FED158AFCF7E3FC9FED141B53EC112B04
:10399000FCF76BFCFCF7E8FC134B124A197842F871
:1039A0002100491CC8B20521B0FBF1F501FB15004F
:1039B00083F8000002EB8400641C90ED000AE4B27E
:1039C000052C30EE088AF5D3F1EE040A88EE200AC1
:1039D000BDEC028B70BD00000000000066666666EC
:1039E00066665A3F8C0100200100002010B560F38C
:1039F000070461F30F2462F31744204663F31F604A
:103A000010BD10EE101A01700A0A42700A0C827082
:103A1000090EC1707047000070B5234C002541F2BB
:103A2000883004F8105B21A304F80F5C04F80E5CE6
:103A300044E90350642044F8040C257165711A4868
:103A40000ECB3430B7EE000A80E80E000C30FFF7E2
:103A5000D8FF1548B7EE000A4430FFF7D2FF1248EE
:103A6000B7EE000A4830FFF7CCFF0F48B7EE000A68
:103A70004C30FFF7C6FF0C48B7EE000A5030FFF796
:103A8000C0FF0948B7EE000A5430FFF7BAFFC9205B
:103A900020622577E564A577E577657725746574F9
:103AA000A574E574257570BD2C01002031383132C4
:103AB00030383130303030300000000001700A0AF8
:103AC00042700A0C8270090EC1707047FDF712FF38
:103AD000FFF7A2FFFFF708FC3B480068016821F0F0
:103AE00001010160FFF72EF9FFF7EEF8FFF758FA32
:103AF000FFF71AFAFFF77EFAFFF7ACF80122402130
:103B00003248FDF7E4FE0020FFF72AF8304E01208E
:103B100030703048FDF71AFA40222F492F48FEF73F
:103B200079FF2D49402240312D48FEF773FFFFF702
:103B300059F82C4CA06800F047F9E06800F0D6F87E
:103B4000FFF7A8FA242104F13400FFF791FA264F79
:103B500000254FF4805800BF94F8200020B184F86D
:103B60002050A06800F030F994F8210020B184F8CA
:103B70002150E06800F0BAF894F8220020B100F07B
:103B800067F908B984F82250607DA8B141463846EB
:103B9000FDF794FE01280FD11448706000224146C1
:103BA0003846FDF794FE0220FDF7E8FB012241466E
:103BB0003846FDF78CFE657570680028CCDC012066
:103BC000FEF7CEFFC8E70000F00200200008024028
:103BD0000400002020020020A0010020500300204B
:103BE000900300202C01002000040240A0BB0D0027
:103BF00070B5054600783C2824D195F83F003E2852
:103C000020D13D2201212846FCF72FFD95F83E10DA
:103C1000884217D16878012815D001261C4C02284B
:103C200016D003281BD004280CD1A91C04F13400A1
:103C300024220546FCF707FB24212846FFF75AFEFD
:103C400084F8236070BD2846BDE8704000F092B84B
:103C500094F82F000028F5D184F8226070BDA87870
:103C600080B10128FAD10C490A480860207D00285B
:103C7000F4D10A4800782077267560682830A06162
:103C8000667570BD00202075A061E878207470BD55
:103C90002C010020A0BB0D00080000200000002027
:103CA00010B5114C3C2020700220607004F14200DD
:103CB000017F8069491D002801DD012000E000200E
:103CC00041EA0010A0703E2201210748FCF7CDFC1C
:103CD00084F83F003E2084F84000BDE810404121B8
:103CE0000148FFF759BC0000EA00002070B51F4DE5
:103CF0001F4C64281CD0B0F5FA7F25D0A0F51061C8
:103D0000C43932D1012210212846FDF7E0FD0022FE
:103D100008212846FDF7DBFD012220212046FDF782
:103D2000D6FD00222046BDE870404021FDF7CFBD02
:103D3000002210212846FDF7CAFD0022082128464E
:103D4000FDF7C5FD0022E8E7002210212846FDF717
:103D5000BEFD012208212846FDF7B9FD00222021E1
:103D60002046FDF7B4FD0122DCE770BD00000240F3
:103D70000004024070B5134D044680782870E07846
:103D800068702079A870237AE279A1796079FFF7C9
:103D90002DFE6860617AAA6801208A4206D04FF43D
:103DA0007A7211FB02F1A96085F82000A17AEA6815
:103DB0008A4205D0642211FB02F1E96085F82100F6
:103DC00070BD00002C0100202DE9F04381468DB02C
:103DD00041F2883800244026042519271A48FEF7A6
:103DE00031FA1A4800EB04110A684A4508D100EB81
:103DF0000410018806791FFA81F8057A077B03E031
:103E0000641CE4B2042CEDD3042000900E49CDE9EB
:103E1000046508976846C1F82080FDF77DFE00B173
:103E2000FEE73220FDF7AAFA0748FEF737FA00B19D
:103E3000FEE70649022208390348FEF761FB0DB090
:103E40000020BDE8F083000068020020140000207C
:103E500070B5174C3C20242220700120607004F1C2
:103E6000F801A01CFCF7EFF904F1C40504F12600E9
:103E7000296B2835FFF722FE95ED000A04F12A0090
:103E8000FFF7BFFD287904F82E0FA8796070E87954
:103E9000A0703E2201210648FCF7E7FB60743E203B
:103EA000A074BDE8704041210148FFF775BB0000D8
:103EB0006800002000061016000610160000000022
:103EC00000000000010203040607080900000000CA
:103ED00001020304F43E0008000000206800000016
:103EE0005A3900085C3F00086800002008090000FB
:103EF0006A3900080000000000000000A0BB0D00AF
:103F000000000000000000008813000040000000D6
:103F1000040000001900000010270000400000000D
:103F20000200000019000000983A00006000000044
:103F30000500000005000000204E000040000000C9
:103F40000500000005000000000000000100000066
:0C3F500010000000000000000024F4003D
:04000005080001AD41
:00000001FF
