:020000040800F2
:10000000500A0020C5010008FB310008912D0008AE
:10001000F9310008CD060008CD3C000800000000C2
:100020000000000000000000000000004135000852
:10003000CD070008000000001D32000855360008FA
:10004000DF010008DF010008DF010008DF01000810
:10005000DF010008DF010008CF070008DF0100080A
:10006000DF010008DF010008DF010008DF010008F0
:10007000DF010008DF010008DF010008DF010008E0
:10008000ED060008F906000891050008DF010008E8
:10009000DF010008DF010008DF010008DF010008C0
:1000A000DF010008DF010008DF010008DF010008B0
:1000B000DF010008DF010008DF010008DF010008A0
:1000C000DF010008DF010008DF010008DF01000890
:1000D000DF010008553C0008613C0008DF01000812
:1000E000D5070008DF010008DF010008DF01000874
:1000F000DF010008DF010008DF010008DF01000860
:10010000DF010008DF010008DF010008DF0100084F
:10011000DF010008DF010008DF010008DF0100083F
:10012000DF0100080507000811070008DF010008CB
:10013000DF010008DF010008DF010008DF0100081F
:10014000DF010008DF010008DF010008DF0100080F
:10015000DF010008DF0100081D070008DF010008BB
:10016000DF010008DF010008DF010008DF010008EF
:10017000DF010008DF010008DF01000800000000C7
:10018000DF010008DF010008DF010008DF010008CF
:10019000DF010008DF010008DF010008DF010008BF
:1001A000DF010008DF010008DF010008DFF810D0E0
:1001B00000F0DCF90048004791400008AFF30080F0
:1001C000500A00200648804706480047FEE7FEE741
:1001D000FEE7FEE7FEE7FEE7FEE7FEE7FEE7FEE7F7
:1001E0002D370008AD0100082DE9F05F054600201D
:1001F00092469B4688460646814640241BE0284698
:1002000041464746224600F00CF953465A46C01A6A
:10021000914110D311461846224600F0F3F82D1AEA
:1002200067EB01084F4622460120002100F0EAF862
:1002300017EB00094E41201EA4F10104DFDC484603
:1002400031462A464346BDE8F09F40EA01039B073A
:1002500003D009E008C9121F08C0042AFAD203E03B
:1002600011F8013B00F8013B521EF9D27047D2B29F
:1002700001E000F8012B491EFBD270470022F6E78F
:1002800010B513460A4604461946FFF7F0FF20460C
:1002900010BD421C10F8011B0029FBD1801A7047C9
:1002A00010B5002200E0521C835C8C5CA34201D19B
:1002B000002BF8D1D8B2E1B2401A10BD034611F8B4
:1002C000012B00F8012B002AF9D1184670472DE9BF
:1002D000FE4F81EA030404F0004421F00041009441
:1002E0004FF0000B23F0004350EA01045ED052EAC5
:1002F00003045BD0C3F30A54C1F30A552C44A4F29F
:10030000F3340194A0FB0254C1F3130141F48011B2
:10031000C3F3130343F4801301FB024400FB034EB9
:10032000840A970A44EA815447EA8357A4FB076882
:1003300002958D0A05FB07854FEA932C04FB0C54AC
:100340002705029D4FEA065847EA1637B5EB080520
:100350006EEB070C870E920E47EA811742EA831272
:10036000A7FB0201B6EB0B0164EB00042B0D43EA83
:100370000C335E1844EB1C50DA465146E7FB020191
:10038000C5F313044FEA0B3343EA14534FEA043224
:10039000019C43EA0603A4F10C040294009CCDE9FD
:1003A00000B400F094F803B0BDE8F08F00200146DF
:1003B000F9E70EB540F2334102910021CDE9001179
:1003C0000A460B4600F083F803B000BD01F000437D
:1003D00030B421F0004150EA010206D00A0DA2F526
:1003E0006072C1F31301002A02DC30BC00207047A8
:1003F000440F44EAC104C100E01830BC00EBC25015
:1004000000F01FB8202A04DB203A00FA02F1002095
:1004100070479140C2F1200320FA03F31943904042
:100420007047202A04DB203A21FA02F000217047AD
:1004300021FA02F3D040C2F120029140084319464C
:1004400070470029A8BF7047401C490008BF20F032
:100450000100704710B4B0FA80FC00FA0CF050EACA
:10046000010404BF10BC704749B1CCF1200421FA4B
:1004700004F411FA0CF118BF012121430843A3EB46
:100480000C01CB1D4FEA00614FEA102042BF002053
:1004900010BC704700EBC35010440029A4BF10BC2F
:1004A0007047401C490008BF20F0010010BC704795
:1004B00010B5141E73F1000408DA401C41F100016C
:1004C00092185B411A4301D120F0010010BD2DE9C3
:1004D000F04D92469B4611B1B1FA81F202E0B0FABA
:1004E00080F220329046FFF78DFF04460F4640EA27
:1004F0000A0041EA0B0153465A46084313D01146FD
:1005000053EA010019D0C8F140025046FFF789FFB5
:1005100005460E46504659464246FFF773FF0843CC
:1005200005D0012004E020463946BDE8F08D0020CA
:10053000054346EAE0762C4337430A986305E40A0C
:10054000A0EB08000022FD0A44EA47540A3002D515
:1005500000200146E9E7010510196941DDE9084578
:1005600000196941BDE8F04DA2E70000064C074DB7
:1005700006E0E06840F0010394E807009847103473
:10058000AC42F6D3FFF716FEAC440008CC4400089A
:1005900010B5044800F0C4FBBDE81040014800F06D
:1005A000B3BC0000FC020020454910B54A6822F4A3
:1005B00040324A604A6843681A434A6001684A68A0
:1005C00022F480724A6001684A68036942EA0322A1
:1005D0004A6001684A6822F040724A6001684A68CD
:1005E00083681A434A6001688A6822F400628A605C
:1005F00001688A68C3681A438A60816A6FF0706212
:10060000D14201688A6822F070628A6001688A6853
:100610000CD0836A1A438A6001688A6822F04052CB
:100620008A6001688A68C36A1A4301E022F0405276
:100630008A6001688A6822F002028A6001688A681A
:10064000836942EA43028A60016A002901684A68B4
:100650000FD042F400624A6001684A6822F46042A6
:100660004A6001684A68174C436A04EB43331A43F3
:1006700001E022F400624A600168CA6A22F4700252
:10068000CA620168CA6A838B0F4C04EB03531A4396
:10069000CA6201688A6822F400728A6001688A6806
:1006A000036B42EA43228A6001688A6822F480620E
:1006B0008A6001688A68406942EA8020886010BDCB
:1006C0000023014000E0FFFF0000F0FFFEE710B54F
:1006D0000023C9B2914203DC445C491C2344F8E77F
:1006E000181410FA83F0C0B210BD0000014800F0E9
:1006F000F3BC00006C050020014800F0EDBC0000D8
:10070000CC050020014800F0E7BC0000CC0300202D
:10071000014800F0E1BC0000AC040020014800F0FA
:10072000DBBC00000C05002001681823CAB2103A97
:10073000B2FBF3F2054B6FF30901032A9B5CC3651F
:1007400000D9091D81650846704700008C440008E7
:1007500010B5014600208B698A6A4FF0C07453B10E
:10076000B3F5005F15D072B1012A0CD0022A0AD06D
:10077000032A09D104E01AB1012A06D0022A03D1C2
:10078000C96AC90100D5012010BDC96AA142FAD0C9
:1007900010BD002AF7D0012AF2D0022AF3D0032A92
:1007A000F3D010BD30B50468256825F48025256098
:1007B000046863608368402B036803D09960006815
:1007C000C26030BD9A600068C16030BD70470120D2
:1007D00000F0AABF4FF4005000F0A6BF002229B1DC
:1007E00001291DD002291ED04FF440720B2800D9D8
:1007F000001D0E490B6823F440730B600B68134314
:100800000B600A6822F0F8020A600A68022303EB10
:10081000C00002430A60086840F4803008607047F6
:100820004FF48072E2E74FF40072DFE7103C0240C1
:100830001348016889050FD5016821F40071016032
:10084000016841F400610160016821F40061016008
:10085000016841F400710160016849050FD5016824
:1008600021F480610160016841F4805101600168F8
:1008700021F480510160016841F48061016070479A
:10088000003C02400E4A136823F4407313600329AE
:100890000DD0012911680FD041F400411160116899
:1008A0004FF4803343EA0020014311607047116820
:1008B00048F204031943F1E741F00401EEE70000B8
:1008C000103C0240064A136823F440731360136817
:1008D0001360136843F00103136001707047000058
:1008E000103C0240084910B50C6824F440740C60B8
:1008F0000C6844F440740C600C6844F001040C6013
:100900000260436010BD0000103C0240074A1368BB
:1009100023F440731360136843F480731360136807
:1009200043F001031360018070470000103C024057
:10093000074A136823F440731360136843F4007389
:100940001360136843F001031360016070470000F7
:10095000103C02401C490868C2061C4805D5C26903
:1009600042F01002C26110220A600A68920605D5A0
:10097000C26942F00802C26120220A600A68520677
:1009800005D5C26942F00402C26140220A600A68C9
:10099000120605D5C26942F00202C26180220A60D5
:1009A0000A68D20506D5C26942F00102C2614FF45D
:1009B00080720A600A68920705D5C26942F0200277
:1009C000C2610220086070470C3C02402C060020E7
:1009D00070B5114904460020C86100F0A5FF064625
:1009E0000E4D09E0601C07D024B100F09DFF801B74
:1009F000A04201D9032070BD2868C003F2D4286842
:100A0000C00701D001202860286810F4F970F2D0E6
:100A1000FFF7A0FF012070BD2C0600200C3C024017
:100A200010B50021A0F100634FF48042934204D33B
:100A300045490144914201D2012182E043490144E8
:100A4000914201D202217CE041490144914201D20C
:100A5000032176E03F494FF480330144994201D2AB
:100A600004216EE03C4944184FF400318C4201D21D
:100A7000052166E0394C04448C4201D2062160E035
:100A8000374C04448C4201D207215AE0354C0444CF
:100A90008C4201D2082154E0334C04448C4201D2F0
:100AA00009214EE0314C04448C4201D20A2148E035
:100AB0002F4C04448C4201D20B2142E0A0F101648E
:100AC000944201D20C213CE02A4C0444944201D2CD
:100AD0000D2136E0284C0444944201D20E2130E02E
:100AE000264C0444944201D20F212AE0244A0244B5
:100AF0009A4201D2102124E0224A02448A4201D2C1
:100B000011211EE0204A02448A4201D2122118E03B
:100B10001E4A02448A4201D2132112E01C4A0244B6
:100B20008A4201D214210CE01A4A02448A4201D2BC
:100B3000152106E0184A1044884201D2162100E02F
:100B40001721084610BD000000C0FFF70080FFF726
:100B50000040FFF70000FFF70000FEF70000FCF781
:100B60000000FAF70000F8F70000F6F70000F4F7CD
:100B70000000F2F700C0EFF70080EFF70040EFF75A
:100B80000000EFF70000EEF70000ECF70000EAF7D6
:100B90000000E8F70000E6F70000E4F77047000007
:100BA00078B50024009490F83C20012A19D0012245
:100BB00080F83C200A6807230568092A13D9EE68E3
:100BC0000A3A02EB420293409E43EE600A788B6839
:100BD0000A3A02EB420293400268D5682B43D36085
:100BE00010E0022078BD2E6902EB420293409E4342
:100BF0002E610A788B6802EB420293400268156905
:100C00002B4313614A681F23072A13D205686E6BB2
:100C1000521E02EB820293409E436E630B790A8858
:100C20005B1E92B203EB83039A4003685D6B2A4319
:100C30005A6327E005680D2A12D22E6BD21F02EBF1
:100C4000820293409E432E630B790A88DB1F92B287
:100C500003EB83039A4003681D6B2A431A6311E078
:100C6000EE6A0D3A02EB820293409E43EE620B79EC
:100C70000A880D3B92B203EB83039A400368DD6A56
:100C80002A43DA62174B0568154A9D4206D10D6862
:100C9000122D03D1556845F48005556005689D42C5
:100CA00019D1114D0B68AB4201D0112B13D15368F0
:100CB00043F4000353600968A9420CD10B490C4A64
:100CC0000968B1FBF2F101EB8101490000E0491E26
:100CD00000910029FBD180F83C40002078BD000045
:100CE0000023014000200140120000106400002099
:100CF00040420F00064910B5884207D1084600F06F
:100D00000CF803F0F5F8034880ED0B0A10BD000065
:100D1000FC0200206C01002070470068C06C704726
:100D200070B50446006801684268C1F34001C2F32F
:100D3000401251B34AB3216CC90603D4216C41F46B
:100D400000712164816811F0405F17D1A169A9B9D0
:100D5000C16A11F4700F02D0816849050ED4416850
:100D600021F020014160206C20F480702064206C10
:100D7000C00403D4206C40F0010020642046FFF73B
:100D8000B9FF21686FF012000860206801684268AE
:100D9000C1F38001C2F3C01289B382B3216CC906CA
:100DA00003D4216C41F400512164816811F4401F87
:100DB0001ED1816B11F4401F02D08168490517D400
:100DC0004168490514D4816811F0405F10D1A169D0
:100DD00071B9416821F080014160206C20F480509D
:100DE0002064206CC00503D4206C40F00100206416
:100DF0002046FFF7D3FE21686FF00C0008602068E2
:100E00000168426811F0010FC2F380120ED06AB17E
:100E10000068C0070AD0206C40F48030206420466F
:100E200000F046F821686FF0010008602068016852
:100E30004268C1F34011C2F3806200290DD0002A3C
:100E40000BD0616C41F0020161646FF02005056018
:100E50002046FFF761FF2068056070BD70B5040093
:100E60004FF0000503D0206C002610B107E00120F0
:100E700070BD666484F83C60204600F01BF8206C6E
:100E8000C00610D4206C20F4885040F0020020648A
:100E90002046FFF789FB6664206C20F0020040F0DA
:100EA0000100206400E0012584F83C60284670BD04
:100EB0007047000000B50068104987B088421AD119
:100EC0000F480021026842F480720260006800F45A
:100ED00080700590022000900320CDE90101694651
:100EE000084800F02DFC00220221122000F0BCFD79
:100EF000122000F0AEFD07B000BD00000020014050
:100F0000443802400000024018B50021009190F8DA
:100F10003C20012A07D0012280F83C200268936817
:100F2000DB0702D011E0022018BD936843F00103F3
:100F30009360224A224B1268B2FBF3F202EB4202A8
:100F400000E0521E0092002AFBD102689368DB0782
:100F500032D0036C40F20164A34343F48073036412
:100F600053685B0505D5036C23F4005343F48053A9
:100F70000364036CDB0404D5436C23F00603436471
:100F800000E0416480F83C100E4B6FF022011160CC
:100F900001684A680C4C22434A6059680068C906D7
:100FA00002D00A49884207D1816811F0405F03D11D
:100FB000816841F080418160002018BD64000020FC
:100FC00040420F00002301402000000400200140A7
:100FD0002DE9F0410446876D00F0A6FC064694F822
:100FE00035000025022806D08020606584F8345042
:100FF0000120BDE8F0812068016821F01601016040
:101000002068416921F080014161206C08B9A06C21
:1010100020B12068016821F00801016020680168A2
:1010200021F0010101600BE000F07EFC801B05282F
:1010300006D92020606504F8345F03206070D8E78B
:1010400020680068C007EFD194F85C103F2088400A
:10105000B86004F8345F012060700020C9E790F8A0
:101060003510022903D080214165012070470521F8
:1010700080F835100068016821F00101016000204E
:10108000704770B5040025D094F83500022820D0B0
:101090002068016821F001010160206800250560D9
:1010A00020684560206885602068C560206805610B
:1010B0002168212048612046FFF736FB94F85C2028
:1010C0003F2191408160656584F8355084F8345043
:1010D000002070BD012070BD2DE9F84304464FF09B
:1010E0000009CDF8009063484FF41651A56D0068D3
:1010F000B0FBF1F72E6894F85C10082000FA01F1BB
:1011000031420FD021680A6852070BD50A6822F0D5
:1011100004020A6094F85C108840A860606D40F09A
:101120000100606594F85C104FF0010808FA01F0C6
:10113000304208D021684969090604D5A860606D6D
:1011400040F00200606594F85C1004208840304252
:1011500008D021680968890704D5A860606D40F04F
:101160000400606594F85C1010208840304218D06C
:1011700021680968090714D5A86020680168490337
:1011800004D50068000308D5A16C07E00168C90513
:1011900003D4016821F008010160216C09B12046E7
:1011A000884794F85C1020208840304231D0216874
:1011B0000968C9062DD5A86094F83500052820686F
:1011C000016806D0490347D5006800031DD4616C4F
:1011D0001CE021F0160101602068416921F08001C6
:1011E0004161206C08B9A06C20B12068016821F031
:1011F0000801016094F85C103F208840A86084F8E2
:10120000349084F83580216D1FE0E16B09B12046F0
:101210008847606D00282BD0606DC00714D0052072
:1012200084F835002068016821F001010160009810
:10123000401C0090B84203D820680068C007F6D16F
:1012400084F8349084F83580E16C002910D001B026
:101250002046BDE8F04308470168C905D5D40168B8
:1012600021F01001016084F8349084F83580CCE7D7
:10127000BDE8F883640000202DE9F041044600F049
:1012800053FB06465CB1002584F83450022084F8F4
:1012900035002068016821F0010101600DE00120A6
:1012A000BDE8F08100F040FB801B052805D9202017
:1012B0006065032084F83500F2E720680068C00705
:1012C000F0D12268116820480140D4E90103184395
:1012D000D4E903363343184363691843A3691843B9
:1012E000E3691843236A18430843616A042903D158
:1012F000D4E90B1319430843106020684069666AFB
:1013000020F0070130460E43012704280CD1A06AC3
:101310000643E06A40B12046FFF71AFA20B14020A8
:10132000606584F83570BAE7206846612046FFF7AB
:10133000FBF994F85C203F2191408160656584F859
:1013400035700020ACE700003F8010F02DE9F0413F
:101350000446866D90F83400002501280DD0012048
:1013600084F8340094F835700020012F07D084F8F9
:10137000340002252846BDE8F0810220FBE7022761
:1013800084F8357060652046FFF70CFA94F85C101D
:101390003F208840B0602068016841F0160101607C
:1013A0002068416941F080014161206C20B12068D2
:1013B000016841F0080101602068016841F0010105
:1013C0000160D7E770B5044600F0AEFA0546601C30
:1013D00002D004480078044400F0A6FA401BA04262
:1013E000FAD370BD580000202DE9F0470446234889
:1013F0000F46017E01290AD00121804601764CF278
:1014000050394846FFF7E4FA020003D030E00220EA
:10141000BDE8F0874FF0FF3038602068184D012894
:1014200001D0A6681DE0207C6168FFF72BFA4846D2
:10143000FFF7CEFA0246286848F204018843286084
:1014400014E0217C3046FFF7C9F94846FFF7C0FA9F
:101450000200286820F0FA00286001D03E6005E014
:10146000761CD4E902100844B042EAD8FFF7E0F94C
:10147000002188F818101046CAE700002C0600204A
:10148000103C02400348016841F000410160002027
:1014900070470000103C02402DE9F0471B4E054606
:1014A0001446307E1F468946012808D00120307638
:1014B0004CF250384046FFF78BFA18B114E0022086
:1014C000BDE8F0879DB1012D16D0022D19D022461E
:1014D0003B464846FFF706FA4046FFF779FA0C49C3
:1014E0000A6822F001020A6000213176E8E7E1B2E1
:1014F0004846FFF7E7F9EFE7A1B24846FFF706FADB
:10150000EAE721464846FFF713FAE5E72C060020F4
:10151000103C0240074900200A68002A09DA054AFF
:10152000054B0C3A1360054B13600968002900DA7B
:1015300001207047103C024023016745AB89EFCD85
:101540002DE9F04FDFF838B100224FF001094FF0DC
:101550000F0A00BF09FA02F401EA0403A3427DD195
:10156000066857000325BD40AE430660D60800EB71
:101570008606D6F820C057074FEAD7680AFA08F758
:101580002CEA070CC6F820C08668AE438660466821
:10159000A6434660C468AC43C46022F003055D44C2
:1015A000D5F808789407260F0AFA06F4DFF8D4C0B5
:1015B0002740604502D14FF0000C40E0DFF8C8C082
:1015C000604502D14FF0010C39E0DFF8C0C0604542
:1015D00002D14FF0020C32E0DFF8B4C0604502D116
:1015E0004FF0030C2BE0DFF8ACC0604502D14FF0A8
:1015F000040C24E0DFF8A0C0604502D14FF0050CD8
:101600001DE0DFF898C0604502D14FF0060C16E0EF
:10161000DFF88CC0604502D14FF0070C0FE0DFF817
:1016200084C0604502D14FF0080C08E0DFF878C0B4
:10163000604502D14FF0090C01E04FF00A0C0CFAA2
:1016400006FCBC4516D1D5F80868A643C5F808685D
:10165000164C25689D432560241D00E00AE025689E
:101660009D432560241D25689D432560241D256814
:101670009D432560521C102AFFF46CAFBDE8F08F2B
:101680000030014000000240000402400008024017
:10169000000C0240001002400014024000180240FA
:1016A000001C02400020024000240240003C014097
:1016B00070B50126174D184CB0F5005F0DD001280C
:1016C00019D10121154800F021F9012814D06868CA
:1016D000002810DD6069A8B115E060696860207EAF
:1016E000002808D10E48007884F82000267660682B
:1016F0002830E061667670BD40F6B830686084F8E6
:101700002B6070BD07486860002004F82B0F207222
:1017100070BD0000040000206C01002000000240A9
:101720000000002080EE3600044910B50A6802422D
:1017300002D00860FFF7BCFF10BD0000143C014060
:101740002DE9F84FDFF890B100224FF001084FF07B
:10175000030A4FF00F090BF1040E00BF0B6808FAE3
:1017600002F42340A3426ED14D68022D01D0122D08
:101770000ED1D50800EB850CDCF820505607F70E8B
:1017800009FA07F6B5430E69BE402E43CCF8206037
:10179000066855000F790AFA05FC07F0030726EAE8
:1017A0000C06AF40374307604E68012E05D0022E6D
:1017B00003D0112E01D0122E0ED18768CE6827EAF1
:1017C0000C07AE403E4386604668A6430C79C4F3DE
:1017D0000014944034434460C4688E6824EA0C04C6
:1017E000AE402643C6604C68E4006FD53B4C25688C
:1017F00045F480452560246822F0030504F4804404
:101800000094374C2E19D6F8084895072F0F09FA7F
:1018100007F5AC43334DA84201D100252EE0324DEF
:10182000A84201D1012529E0304DA84201D102256D
:1018300024E02F4DA84201D103251FE02D4DA842E1
:1018400002D104251AE041E02B4DA84201D1052523
:1018500014E02A4DA84201D106250FE0284DA842E8
:1018600001D107250AE0274DA84201D1082505E04E
:10187000254DA84201D1092500E00A25BD40254398
:10188000C6F80858DBF800405D464E689C43F603F6
:1018900000D51C432C60DEF8004075464E689C4322
:1018A000B60300D51C432C600B4D08352C684E68E0
:1018B0009C43F60200D51C432C60074D0C352C6868
:1018C0004E689C43B60200D51C432C60521C102A63
:1018D000FFF444AFBDE8F88F003C014044380240BB
:1018E00000300140000002400004024000080240B5
:1018F000000C024000100240001402400018024098
:10190000001C024000200240002402400069084000
:1019100000D00120704742694A40426170470AB1D5
:10192000816170470904FBE7014880687047000047
:101930005800002002488168027811448160704795
:10194000580000200B4810B5016841F40071016097
:10195000016841F480610160016841F480710160B7
:10196000032000F0A1F8002000F006F800F024F8B1
:10197000002010BD003C024070B50D4D04464FF4F0
:101980007A712878B1FBF0F00A490968B1FBF0F0F0
:1019900000F0BCFE48B9102C07D200222146501E90
:1019A00000F062F800206C6070BD012070BD000086
:1019B00058000020640000201F4808B5016841F469
:1019C00080410160006800F4804000901A48001FC8
:1019D000016841F080510160006800F08050009083
:1019E000032000F061F8002211466FF00B0000F0B8
:1019F0003BF8002211466FF00A0000F035F8002293
:101A000011466FF0090000F02FF800221146501F18
:101A100000F02AF800221146101F00F025F80022DD
:101A20001146901E00F020F80022BDE80840114643
:101A3000501E00F019B800004438024000F01F02A8
:101A4000012191404009800000F1E020C0F88011A0
:101A5000704700F01F02012191404009800000F111
:101A6000E020C0F800117047F0B40E4B1B680C4624
:101A7000C3F30223C3F10705042D00D90425191D62
:101A8000072901D2002300E0DB1E012606FA05F13A
:101A9000491E214099409E40761E16403143F0BCBD
:101AA00001F0ACBB0CED00E0064900F0070208684D
:101AB0004FF6FF03184040EA0220034A1043086033
:101AC000704700000CED00E00000FA052DE9F84336
:101AD0001748016841F0805101600068154F00F01F
:101AE0008050012600903E64FFF71EFF05464FF42C
:101AF0007A78114C05E000BFFFF716FF401B404508
:101B00000DD86068C003F7D57E64FFF70DFF05466A
:101B1000464607E0FFF708FF401BB04202D903200A
:101B2000BDE8F88360688003F4D50020F8E7000082
:101B30004038024000000E420070004002494A68EE
:101B400082434A60704700000070004002494A68C2
:101B500002434A6070470000007000400548016879
:101B600041F0020101600448016841F00401016094
:101B700030BF70470070004010ED00E02DE9F84FD5
:101B800004460068DFF804A2814F824DC1074FF080
:101B900001084FF0000601D180073CD5CAF8686003
:101BA000FFF7C2FE814605E0FFF7BEFEA0EB09008D
:101BB000022878D828680001F6D42078C107764832
:101BC00005D06168227A890141EA027101602178B9
:101BD000890711D501686268237B9201C1F3027104
:101BE00042EA036242EA017101603868E16920F06B
:101BF0001F00491E08433860CAF86880FFF794FE4A
:101C0000814605E0FFF790FEA0EB090002284AD8C4
:101C100028680001F6D52068410701D400074CD59B
:101C2000CAF87060FFF780FE814605E0FFF77CFE92
:101C3000A0EB0900022836D82868C0438000F5D5FB
:101C400020784107554814D501682269237D920107
:101C5000C1F3027142EA036242EA0171016039682C
:101C6000226A6FF0FF0321F4F85103EB02221143C3
:101C700039602178090710D501682269C1F3036131
:101C8000920142EA0161227E41EA027101603868F4
:101C9000616A20F4403008433860CAF87080FFF76A
:101CA00043FE074605E048E0FFF73EFEC01B022862
:101CB00043D82868C0438000F6D42078800653D5E6
:101CC00034484030016841F0805101600068344D73
:101CD00000F080500090286840F480702860FFF782
:101CE00023FE074605E000BFFFF71EFEC01B0228CB
:101CF00023D82868C005F7D5274D143D286810F46F
:101D0000407020D0218D01F4407181421BD02868A1
:101D1000244920F44070C1F800800E6028602868D3
:101D2000C00710D0FFF700FE064641F2883707E0F3
:101D3000FFF7FAFD801BB84202D90320BDE8F88FF7
:101D400028688007F4D5A16A1248C1F3012208303F
:101D5000032A13D0016821F4F81101602868218D4D
:101D6000C1F30B01084328602078C00604D50E4952
:101D700094F82C00C1F8E0010020DFE702680B4B6B
:101D800022F4F81219400A430260E7E700004742D4
:101D90008C380240003802408438024088380240C3
:101DA00000700040400E474200104742FFFCFF0F0A
:101DB0002DE9F0470E46050065D0DFF81481D8F80C
:101DC0000000F7B200F00F00B04207D288F80070B0
:101DD000D8F8000000F00F00B04254D128683D4C04
:101DE000810712D5400703D5206840F4E0502060F9
:101DF0002878000703D5206840F460402060206800
:101E0000A96820F0F000084320602878C0072DD092
:101E1000304968680839012812D0022813D00328F5
:101E200011D00968890700292DDA216821F0030102
:101E300001432160FFF778FD814641F2883A0EE0C8
:101E400009688903EFE709688901ECE7FFF76CFD92
:101E5000A0EB0901514502D90320BDE8F0872068B5
:101E6000696800F00C00B0EB810FEFD1D8F80010DA
:101E7000404601F00F01B14207D90770006800F039
:101E80000F00B04201D00120E7E72878400705D5D0
:101E90002068E96820F4E0500843206028780007B3
:101EA00006D52068296920F4604040EAC10020601E
:101EB00000F03CF82168084AC1F30311515CC840A6
:101EC000064908600020FFF757FD0020C5E7000025
:101ED000003C02400838024094440008640000209E
:101EE000014800687047000064000020044805496C
:101EF00000680968044AC1F38221515CC8407047F8
:101F00006400002008380240A44400080448054941
:101F100000680968044AC1F34231515CC840704707
:101F20006400002008380240A4440008154810B599
:101F3000006810F00C02144813D04110042A0FD08E
:101F4000082A0ED10F4C241F2268236802F03F029A
:101F50005B0207D52068C0F38810A0FB010106E0F2
:101F6000084610BD2168C1F38811A1FB00010023C0
:101F7000FEF73AF92168C1F30141491C4900B0FB61
:101F8000F1F010BD083802400024F4002DE9F84FAC
:101F9000050076D02878DFF8F8B2BE4CC00749D0EB
:101FA000DBF800105846C1F38101012908D0006810
:101FB000C0F3810002280AD1201D0068400206D526
:101FC0002068800336D568680028E2D032E068686F
:101FD000B0F5803F10D0B0F5A02F206810D020F4CD
:101FE00080302060206820F4802020606868A0B1E4
:101FF000FFF79AFC06460CE0206840F48030F4E7D6
:1020000040F480202060F7E7FFF78EFC801B6428F7
:1020100073D820688003F7D50CE0FFF785FC0646EF
:1020200005E000BFFFF780FC801B6428F0D8206823
:102030008003F7D42878DFF8608280074FF000092A
:102040003ED5DBF80010584611F00C0F09D000689F
:10205000C0F3810002280BD18D48001F00684002A8
:1020600006D42068800715D5E868012809D111E059
:10207000E868B8B10120C8F80000FFF755FC064633
:1020800005E002E1FFF750FC801B0228C0D8206861
:102090008007F7D52068296920F0F80040EAC100E0
:1020A00020600DE0C8F80090FFF73EFC064604E013
:1020B000FFF73AFC801B02281FD820688007F7D45E
:1020C0002878000722D5724E744869696C3671B160
:1020D00001210160FFF728FC074604E0FFF724FC1C
:1020E000C01B022809D830688007F7D50EE0C0F879
:1020F0000090FFF719FC074605E083E0FFF714FCAA
:10210000C01B02287ED830688007F7D428784007A3
:1021100068D5DFF87CA100270AF1380ADAF8000058
:10212000C0000BD4DAF8001041F08051CAF800105A
:10213000DAF80000012700F080500090584E306817
:10214000C00510D4306840F480703060FFF7ECFBBD
:10215000009005E0FFF7E8FB0099401A022851D8EB
:102160003068C005F6D54A4EA868683601280FD0F9
:102170000528306810D020F001003060306820F071
:1021800004003060A868B8B1FFF7CEFB00900FE004
:10219000306840F00100F4E740F004003060F7E7F9
:1021A000FFF7C2FB0099411A41F28830814264D89E
:1021B00030688007F4D50EE0FFF7B6FB009007E02B
:1021C000FFF7B2FB0099411A41F28830814254D89E
:1021D00030688007F4D42FB1DAF8001021F0805174
:1021E000CAF80010A869C0B3DBF80010C1F3810180
:1021F00002294AD00228484607D0C8F86000FFF7F5
:1022000093FB00E039E005463AE04746C8F8600035
:10221000FFF78AFB064604E0FFF786FB801B0228D7
:102220002BD820688001F7D4D5E907010843A96AB3
:102230001C4A490802EB01416A6A41EA82110843DB
:1022400095F82C1040EA01611148001F016001203F
:102250003866FFF769FB054605E014E0FFF764FB0D
:10226000401B022809D820688001F7D50BE000BF89
:10227000FFF75AFB401B022802D90320BDE8F88F64
:1022800020688001F4D40020F8E70120F6E7000080
:10229000083802400038024000004742800E4742A2
:1022A000007000400000FFFF70B504001BD002204A
:1022B00084F881002068002505612168681E886116
:1022C000204601F0ADF82068416841F00801416006
:1022D000204600F0C7F8C4F8845084F8815084F890
:1022E0008050002070BD012070BD00000B2101A0B6
:1022F00001F010BB736169206572726F720D0A0084
:1023000070B504004FF0000504D094F88100002659
:1023100010B106E0012070BD84F88060204600F016
:10232000C7F8022084F88100204601F079F82046A1
:1023300001F020F8206AA8B1204601F091F8216A46
:1023400000EB800040004902B0FBF1F10A22B1FB32
:10235000F2F0B1FBF2F302FB13116062082901D91C
:10236000401C606260684FF4007170B102280CD0AC
:10237000206C012800D00021A06878B1012808D085
:10238000022809D0032809D106E0206C0128F2D0E8
:10239000F2E74FF4806501E04FF4006520680268C1
:1023A0002E4B1A400260626B60681043D4E90E2322
:1023B0001A4310430843A16A28430843216908438C
:1023C00061690843A18C40EA015120680268114309
:1023D0000160206841684EF20F029143416021681C
:1023E0004868A2691043D4E90B231A43104348609C
:1023F000206881681A4A11408160626DE06C616CEE
:102400000243206D491E08430243A06C6FF0FF0198
:1024100001EB00200243206883681A438260206831
:10242000C2684FF220031A40C260D4E9160210437A
:10243000226E01EB0221B4F8642041EA0241084314
:102440002168CA681043C860C4F88460012084F819
:10245000810084F88060002070BD000010C005FF7E
:102460000080F8FF10B5044600680D49884215D178
:102470000C490868401E086004D10B48016821F42B
:102480008001016074210948FFF75AF8606FFEF778
:10249000F8FD206FBDE81040FEF7F3BD10BD000051
:1024A000045801405400002044380240001002400B
:1024B00070B506460068204986B088423AD11F4A66
:1024C0000025116841B91E48036843F48003036086
:1024D000006800F480000590491C11607420009091
:1024E0000220CDE901050620CDE9035069461548D3
:1024F000FFF726F9154C1448C4E900050015A5603E
:10250000C4E90350800060618000A0618011E06137
:10251000400220620420C4E90905E56220462563E3
:10252000FEF7AAFE18B1832109A001F0D1FC74675F
:10253000A663346706B070BD045801405400002003
:10254000443802400010024028640240CC030020BE
:102550002E2E2F436F72652F5372632F7361692E76
:102560006300000070B5044629B122B194F88100DF
:10257000012802D043E0012070BD94F880000128BA
:102580003DD0012084F88000A166A4F86C20A4F856
:102590006E200025C4F88450222084F88100616FE9
:1025A00018480864616F1848C863616F1748C864A9
:1025B000606F05652168B4F86C301C31A26E606FE5
:1025C000FEF7C4FE10B184F88050D4E7206801689B
:1025D000C90303D4016841F4803101600021204621
:1025E00000F096FF21680A691043086120680168BD
:1025F00041F40031016084F88050002070BD022059
:1026000070BD000015340008D93300089533000868
:10261000104A30B41378114C03EB43004006010E0E
:102620000D4821445B1C0578CD7044780C7184788A
:102630004C7104798C714479CC7180790872D8B26C
:1026400010700A2804D30020107030BC00F0BABB10
:1026500030BC7047000000200C0000202B0100203F
:1026600070474FF0E0210428086903D020F00400EF
:102670000861704740F00400FAE7000070B5FFF70A
:1026800053F91F4905461F4E087810B148680028C5
:1026900006DC3046BDE8704000222021FFF73FB93C
:1026A000194C62691AB994F82B20012A01D1401EF5
:1026B0004860206E002808DDB5FBF0F100FB1150EA
:1026C00068B920213046FFF726F9206E38B94FF05F
:1026D000FF302066012220213046FFF720F94FF419
:1026E000FA60B5FBF0F100FB115008B900F0AAFD4B
:1026F000207C002803D154F89C0F401C206070BD42
:1027000004000020000002406C01002010B5401EB3
:10271000B0F1807F01D3012010BD4FF0E024606153
:102720000F21601700F06AFD0020A06107202061E2
:10273000002010BD10B5FFF7A1FF10BD70B5044615
:102740000068C16821F49071C1602068416921F07E
:1027500001014161206841694FF00005490609D532
:10276000416921F040014161606B18B10565606B02
:10277000FEF72EFCE585202084F83A00002070BD8D
:1027800010B504460068416994F83920C1F3C011BE
:10279000212A0BD151B1416921F080014161206BA7
:1027A00008B1FEF715FC204601F064F82068416985
:1027B00094F83A20C1F38011222A0BD151B141691A
:1027C00021F040014161606B08B1FEF701FC204639
:1027D00001F042F8002010BD10B504000ED02420F6
:1027E00084F83900204600F0C7F80020E06384F840
:1027F000390084F83A0084F8380010BD012010BD7B
:102800007047000070B5026804461068D1685369CB
:1028100010F00F0F50D003F0010501F4907635430E
:102820005DD0C20705D0CA0503D5E26B42F00102B4
:10283000E263420705D5DA0703D0E26B42F00202F9
:10284000E263820705D5DA0703D0E26B42F00402A7
:10285000E263020705D5DA0703D0E26B42F0080213
:10286000E263E26B002A33D0800604D5880602D5E5
:10287000204601F008F820684069E16BC0F3801041
:10288000090700D428B3204600F0E6FF206841691C
:1028900049061AD5416921F040014161606BA0B140
:1028A0001B490165606BFEF7DAFB002810D0606BF6
:1028B000016DBDE870400847830610D58B060ED524
:1028C0002046BDE8704000F0DEBF2046FFF798FFCD
:1028D00070BD2046FFF794FF0020E06370BD030643
:1028E00006D50B0604D52046BDE8704001F080B93E
:1028F0004006F3D54806F1D5D168204621F04001C5
:10290000D160202184F8391000F0FEF970BD00007C
:102910008137000870B5040004D094F83900002510
:1029200010B106E0012070BD84F83850204600F058
:102930005FF8242084F839002068C16821F4005130
:10294000C160204600F0FEFF2068016921F490413B
:1029500001612068416921F02A0141612068C16854
:1029600041F40051C160E563202084F8390084F807
:102970003A00002070BD000010B5044600681749F9
:10298000884211D11648016821F0100101604FF40E
:10299000C0611448FEF7D4FD606BFEF772FB206B3C
:1029A000FEF76FFB252013E00F49884214D10C4835
:1029B000001F016821F40031016078210B48FEF707
:1029C000BFFD606BFEF75DFB206BFEF75AFB262018
:1029D000BDE81040FFF732B810BD00000010014004
:1029E000443802400000024000440040000C024015
:1029F0002DE9F04F04460068634A022707210025AD
:102A0000032687B04FF001094FF0006A4FF4806B46
:102A100090424ED15D48026842F0100202600068A8
:102A200000F010000590CDE9036170028DE881028D
:102A300069465748FEF784FE574E56485746306061
:102A4000C6E901A5C6E9035B80157561C6E90650B4
:102A50004002C6E90805D8463046FEF70DFC18B11D
:102A600085214EA001F034FA6663B4634A4E4948AA
:102A700060367830E6E802074020A6E821014FF4EE
:102A8000403046F81459B561C6E9075042487562AE
:102A90006030FEF7F1FB18B1972140A001F018FA61
:102AA0002663002211462520B463FEF7DDFF2520B2
:102AB00064E03F4A904263D13448001F026842F408
:102AC000003202600068884600F40030059018204B
:102AD000CDE9000702AA694682E860013548FEF7A1
:102AE0002FFE60208DE88102CDE9036869463148F8
:102AF000FEF726FE284F3048C037D0463860C7E979
:102B000001A5C7E9035B80157D61C7E90650C7E9E8
:102B10000A6540024FF0040A3D63C7E9080AD94636
:102B20003846FEF7A9FB18B1D0211CA001F0D0F95E
:102B30006763BC632048214F1830E7E80208402053
:102B4000A7E821024FF4403047F81459C7F824A0F1
:102B5000BD61C7E90750C7E90A6518483D63FEF73C
:102B60008BFB18B1E5210DA001F0B2F9276300221B
:102B700011462620BC63FEF777FF2620FEF769FF8B
:102B800007B0BDE8F08F000000100140443802405B
:102B90000000024040640240AC0400202E2E2F436F
:102BA0006F72652F5372632F75736172742E630099
:102BB00000440040000C024088600240CC05002028
:102BC000F8B5044690F83A0020283CD1C1B3BAB316
:102BD00094F83800012836D0012084F83800A1622A
:102BE000A2850025E563222084F83A00636B17482C
:102BF000D863636B16481864636B1648D864606BBF
:102C0000134605650846666B216802463046091D75
:102C1000FEF79CFB206801684168009184F83850F9
:102C2000C16841F48071C1602068416941F00101CF
:102C300041612068416941F0400141610020F8BDD7
:102C4000FFE70120FBE70220F9E70000DB3700087F
:102C500017380008913700080749884202D14021FF
:102C6000064805E00649884204D104484021403026
:102C700001F0D8BA704700002C0400207A0200202E
:102C80006C0400207047000070B5044690F83900CD
:102C9000202830D169B362B394F8380001282AD0D3
:102CA000012084F838002162A284E2840025E563D3
:102CB000212084F83900236B1048D863236B104817
:102CC0001864236B0F48D864206B1346056526688B
:102CD000206B321DFEF73AFB21686FF04000086060
:102CE00084F838502068416941F08001416100203A
:102CF00070BD012070BD022070BD000021380008A9
:102D00004F380008913700087047704770B51D4C68
:102D1000002550B96068C043800732D41A4E0121A3
:102D20003046FEF7F3FD012821D0184E0120002582
:102D300086F8330001F070FB18B16D1CEDB2322D36
:102D4000F8D3002086F833003220FEF73BFB4FF427
:102D500080752846FEF7F2FE206840F004002060EF
:102D60002846FEF7F3FEBDE87040FEF7F7BE64208C
:102D7000FEF728FB6D1C1E2DD1DB206840F00800FB
:102D8000206070BD00700040000002406C01002017
:102D9000FEE7000010B5012251030848FEF7BFFD11
:102DA000074C012211462046FEF7B9FD20460022BD
:102DB000BDE810400221FEF7B2BD0000000802404D
:102DC0000010024010B50E4C207C002813D0A078D3
:102DD00010B9207E00280ED0207810B96078002825
:102DE00009D001F0BDFA002805D1E06910F10A0F01
:102DF00002DD0A38E06110BD0020207610BD000021
:102E00006C0100207FB515481349002401604FF480
:102E10008031C0E901140461846111490462C0E990
:102E20000A140125C460C56145610463FEF716F804
:102E300018B148210BA001F04BF80095CDE90154E1
:102E400069460648FDF7ACFE002803D0522105A0D4
:102E500001F03EF87FBD000000200140FC02002090
:102E60000100000F2E2E2F436F72652F5372632FB8
:102E70006164632E630000001D4808B5016841F4D9
:102E800080010160016801F480010091016841F452
:102E9000001101600068002200F40010009011464B
:102EA0001020FEF7E1FD1020FEF7D3FD00221146B1
:102EB0001120FEF7D9FD1120FEF7CBFD00221146AF
:102EC0003920FEF7D1FD3920FEF7C3FD002211465F
:102ED0003A20FEF7C9FD3A20FEF7BBFD002211465D
:102EE0004620FEF7C1FDBDE808404620FEF7B1BD13
:102EF000303802402DE9F04F6F4887B00025016857
:102F000041F010010160016801F0100105910168B4
:102F100041F004010160016801F0040105910168BC
:102F200041F080010160016801F0800105910168B4
:102F300041F001010160016801F0010105910168A2
:102F400041F002010160016801F002010591016890
:102F500041F0080101600068DFF8609100F00800AE
:102F6000059000224FF401514846FEF7D8FC544F1B
:102F7000002238213846FEF7D2FCDFF848B10122A2
:102F800011035846FEF7CBFCDFF83CA101220321D8
:102F90005046FEF7C4FC00224FF458715846FEF725
:102FA000BEFC002203214948FEF7B9FC01244FF47E
:102FB0000058CDE9008469464846CDE90245FEF750
:102FC000BFFB43486946CDE9004002953846FEF70D
:102FD000B7FB1820CDE9000469463846CDE9024523
:102FE000FEF7AEFB2020022603958DE851006946CE
:102FF0003846FEF7A5FB4FF440770097CDE9015422
:1030000069463248FEF79CFB4FF48350CDE900043B
:1030100069465846CDE90245FEF792FB2D48CDF8AA
:103020000080CDE9010569465846FEF789FBA003FB
:10303000CDE90005694602945046FEF781FB402029
:1030400003958DE8510069464846FEF779FB8020DC
:10305000CDE90005694602944846FEF771FB032559
:10306000CDE90054CDE9024669465046FEF768FBBB
:103070000097CDE90146694658460396FEF760FB86
:103080000095CDE90146694610480396FEF758FBC6
:10309000002211460620FEF7E7FC0620FEF7D9FCC9
:1030A000002211462820FEF7DFFC2820FEF7D1FC85
:1030B00007B0BDE8F08F0000303802400008024041
:1030C0000000024000040240000C024000100240D8
:1030D0000000311000001110174810B515490160AB
:1030E00001220021C0234260C0E90D13C0E90F1284
:1030F000530303618160C0E90512C161402242644B
:10310000016220228264D202C0E913219200C0E948
:1031100015218021C1650221016603214166FFF767
:10312000EFF8002805D0BDE81040512103A000F0C1
:10313000CFBE10BD04580140440300202E2E2F4363
:103140006F72652F5372632F7361692E63000000E5
:103150000D4810B50B4901600C49416000218160A8
:103160000C22C160C0E904128161C161FFF7D2FB8A
:10317000002805D0BDE81040482105A000F0A8BEF9
:1031800010BD0000001001402C04002060E3160078
:103190002E2E2F436F72652F5372632F75736172DA
:1031A000742E63000D4810B50B4901600C49416055
:1031B000002181600C22C160C0E904129201C0E9C3
:1031C0000621FFF7A7FB002805D0BDE810405B21D2
:1031D00004A000F07DBE10BD004400406C0400203F
:1031E00060E316002E2E2F436F72652F5372632FEC
:1031F00075736172742E6300FEE770470907090E4C
:10320000002806DA00F00F0000F1E02080F8141D1D
:10321000704700F1E02080F800147047704700000C
:1032200010B5074B002207E01C78FF2C00D12AB113
:103230008454521CD2B25B1C8A42F5D3002010BDCC
:103240000000010870B51D4D4FF400712846FEF7CF
:103250005DFBD8B100201A4C4FF4807184F8300027
:103260002846FEF753FB84F8320080211548FEF70C
:103270004DFB68B15FF0000084F8310094F8301025
:10328000114851B194F8291021B106E00120E2E77C
:103290000120F1E794F82A1009B1012208E094F81E
:1032A000321009B1002101E04FF4FA7100222166C9
:1032B000BDE870400121FEF732BB00000010024063
:1032C0006C01002000080240000C024030B587B0BD
:1032D0000D460446FEF71EF92049F32008602046FB
:1032E000FDF79EFB04462846FDF79AFB011B0020D4
:1032F000059000900220491C0294CDE9031005A915
:103300006846FEF771F818B1A42115A000F0E0FDA1
:1033100012480C38016821F480610160016821F4D1
:1033200000710160016841F480510160016821F47D
:1033300080510160016841F400610160016821F47D
:1033400000610160016841F400710160016841F4AD
:103350008061016007B0002030BD00000C3C0240DD
:103360002E2E5C436F72655C5372635C666C617396
:10337000682E6300C068002138B1012802D00228FD
:1033800003D101E0102100E02021014801607047D5
:103390000058014010B5846BD4F8840040F08000E0
:1033A000C4F88400206F406D012803D0606F406D29
:1033B00001280DD12068016821F400310160204608
:1033C00000F02EF8012084F881000020A4F86E009F
:1033D0002046FEF78BFF10BD10B5846B00680068B7
:1033E000C00513D42068016821F400310160002079
:1033F000A4F86E000146204600F08AF801462068D5
:1034000002698A430261012084F881002046FFF7A7
:10341000FFF810BD10B5806BFFF722F910BD00005A
:1034200010B50E4941F6583203680968B1FBF2F154
:103430008A001C68002124F480341C60521E06D2CD
:1034400050F8841F41F040010160032103E003684C
:103450001B68DB03F2D4084610BD000064000020A6
:1034600010B5254C25490368C269A3420B6804D1F5
:1034700023F4401313430B6004E023F4400343EAB6
:1034800082020A601D4A883A136812685B0202F0E1
:103490003F0201D41A4B00E01A4BC069B3FBF2F2B1
:1034A00040B1B0F5801F14D017490120C1F85C016C
:1034B000164810BD114B1B1F18681B68C0F3036032
:1034C000C3F388135343B3FBF0F20868C0F304203E
:1034D0000DE00A48083803680068C3F30363C0F3CB
:1034E00088105043B0FBF3F2086800F01F00401C46
:1034F000B2FBF0F010BD0000045801408C380240CF
:103500000024F40000127A00000047420080BB0053
:103510000122012900D10922416B4068082905D107
:10352000032801D0012803D142F01002032804D05F
:10353000022802D042F00400704742F06000704759
:103540007047000070B51F4D1F4C64281CD0B0F5AB
:10355000FA7F25D0A0F51061C43932D101221021A3
:103560002846FEF7DCF9002208212846FEF7D7F9A5
:10357000012220212046FEF7D2F900222046BDE894
:1035800070404021FEF7CBB9002210212846FEF7FB
:10359000C6F9002208212846FEF7C1F90022E8E713
:1035A000002210212846FEF7BAF9012208212846F8
:1035B000FEF7B5F9002220212046FEF7B0F90122DE
:1035C000DCE770BD00000240000402402DE9F0433A
:1035D00081468DB041F28838002440260425192701
:1035E0001A48FEF761FE1A4800EB04110A684A45C2
:1035F00008D100EB0410018806791FFA81F8057ADA
:10360000077B03E0641CE4B2042CEDD3042000909B
:103610000E49CDE9046508976846C1F82080FEF799
:10362000ADFA00B1FEE73220FDF7CCFE0748FEF709
:1036300067FE00B1FEE70649022208390348FEF79B
:1036400091FF0DB00020BDE8F0830000440300208E
:103650001400002010B5FEF76DF9BDE81040FFF72B
:1036600069B8000070B52F489EB0016821F4401180
:1036700001602C4800264C38016841F080510160FF
:10368000006800F080501D902748016841F44041D7
:1036900001600068022400F440401D900120009069
:1036A000000401908001CDE906400425B420CDE955
:1036B00008506846CDE90A45FEF768FC00B1FEE710
:1036C000FEF704FA00B1FEE718A90F2081E85100C7
:1036D0004FF4A0501B904FF480501C90052118A867
:1036E000FEF766FB00B1FEE740200C95CDE9100522
:1036F000192014900CA8FEF741FA00B1FEE7FEF77E
:10370000EFFB4FF47A71B0FBF1F0FEF7FFFF0420FE
:10371000FEF7A7FF00221146501EFEF7A5F91EB0C6
:1037200070BD00008C3802400070004010480168F5
:1037300041F4700101600F48016841F0010101602E
:103740000C4A00210832116002680B4B1A400260DB
:10375000031D0A4A1A60026822F4802202600548AA
:103760000C3001600249580680390860704700003B
:1037700088ED00E000380240FFFFF6FE1030002424
:1037800010B5806B0021C185C184FFF739F810BDE9
:1037900070B5846B2068406994F83910C0F3C0108C
:1037A0000025212904D118B1E584204600F062F8F3
:1037B0002068406994F83A10C0F38010222904D19F
:1037C00018B1E585204600F047F8E06B40F01000A6
:1037D000E0632046FFF714F870BD10B50146806B1A
:1037E00009680968C90513D40021C1850168CA6840
:1037F00022F48072CA6001684A6922F001024A61BB
:1038000001684A6922F040024A61202180F83A109A
:10381000FFF722FA10BD10B5806BFFF733FA10BD29
:1038200010B50146806B09680968C9050CD40021F0
:10383000C18401684A6922F080024A610068C16857
:1038400041F04001C16010BDFFF75EFA10BD10B538
:10385000806BFFF75AFA10BD0168CA6822F49072B3
:10386000CA6001684A6922F001024A61202180F899
:103870003A1070470168CA6822F0C002CA6020216D
:1038800080F83910704710B590F83A10222901D00D
:10389000022010BD8168B1F5805F11D00169002957
:1038A00001681FD0496801F07F03816A4A1C826267
:1038B0000B70C18D491E0904090CC18518D026E082
:1038C0000269816A002A0268526805D0D2B20A8071
:1038D000816A491C8162ECE7C2F308020A80816AAE
:1038E000891CF7E74A68816A4B1C83620A70E0E72B
:1038F0000168CA6822F49072CA6001684A6922F0BD
:1039000001024A61202180F83A10FFF7A5F9002052
:1039100010BD000010B5084C94F830200AB1074BD8
:1039200000E0074B0A4601461846FFF7ADF90228AA
:1039300001D13221216610BD6C0100202C04002031
:103940006C0400202DE9F04104460068016921F46F
:103950004052E168114301612168C86849F20C6274
:1039600090432369A268E5691A4363692B431A43AC
:103970000243CA602168486920F44072A06910437C
:103980004861E1696425B1F5004F9748974A21687D
:103990004FF032083FD0914201D081427CD1FEF7F6
:1039A000B5FA00EBC00101EB001061688900B0FBC3
:1039B000F1F6FEF7ABFA00EBC00101EB0010616815
:1039C0008900B0FBF1F0B0FBF5F06FF0180148434F
:1039D00006EB800108EB0110B0FBF5F000F0F006FB
:1039E000FEF794FA00EBC00101EB0010616889005A
:1039F000B0FBF1F0B0FBF5F006EB0016FEF786FA2F
:103A000000EBC00101EB001061688900B0FBF1F729
:103A1000FEF77CFAD2E0914201D081423DD1FEF71F
:103A200075FA00EBC00101EB001061684900B0FBC2
:103A3000F1F0B0FBF5F00601FEF768FA00EBC0010B
:103A400001EB001061684900B0FBF1F7FEF75EFA88
:103A500000EBC00101EB001061684900B0FBF1F020
:103A6000B0FBF5F06FF01801484307EB800108EB5D
:103A7000C100B0FBF5F000F0F80006EB4006FEF7E1
:103A800045FA00EBC00101EB001061684900B0FB92
:103A9000F1F7FEF73BFA3CE055E0FEF727FA00EBC2
:103AA000C00101EB001061684900B0FBF1F0B0FB10
:103AB000F5F00601FEF71AFA00EBC00101EB001069
:103AC00061684900B0FBF1F7FEF710FA00EBC001A6
:103AD00001EB001061684900B0FBF1F0B0FBF5F0BC
:103AE0006FF01801484307EB800108EBC100B0FB01
:103AF000F5F000F0F80006EB4006FEF7F7F900EBF2
:103B0000C00101EB001061684900B0FBF1F7FEF75E
:103B1000EDF900EBC00101EB001061684900B0FB5A
:103B2000F1F0B0FBF5F06FF01801484307EB8001AE
:103B300008EBC100B0FBF5F000F00700216830444D
:103B40008860BDE8F081FEF7D1F900EBC00101EB20
:103B5000001061688900B0FBF1F6FEF7C7F900EBD1
:103B6000C00101EB001061688900B0FBF1F0B0FB0F
:103B7000F5F06FF01801484306EB800108EB0110E7
:103B8000B0FBF5F000F0F006FEF7B0F900EBC00175
:103B900001EB001061688900B0FBF1F0B0FBF5F0BB
:103BA00006EB0016FEF7A2F900EBC00101EB0010D6
:103BB00061688900B0FBF1F7FEF798F900EBC001EE
:103BC00001EB001061688900B0FBF1F0B0FBF5F08B
:103BD0006FF01801484307EB800108EB0110B0FBC0
:103BE000F5F000F00F00A9E70014014000100140BB
:103BF00090F83910212901D0022070478168B1F571
:103C0000805F016A0BD04A1C026202680978516029
:103C1000C18C491E0904090CC1840ED017E0098823
:103C20000268C1F30801516001690029016A02D0EC
:103C3000491C0162ECE7891CFBE70168CA6822F0B5
:103C40008002CA600068C16841F04001C160002084
:103C5000704700000148FEF7D5BD00002C0400208D
:103C600038B51648FEF7CEFD144800680168C94310
:103C7000C90622D40168406800901048FEF780FD14
:103C80000F48006840680F4CC0F14000C5B24021A9
:103C9000601CFCF7F3FA2A460B49601CFCF7D5FAC6
:103CA00040210948FCF7EAFA402207490348FEF799
:103CB00087FFBDE8384000F057B838BD6C040020DD
:103CC0006C05002034020020BA020020FEE700004C
:103CD00010B5082209A10C48FEF7D6FF0B4C402175
:103CE000601CFCF7CBFA002020706420FDF76AFB13
:103CF000BDE81040002000F07BB8000041542B4587
:103D00004E544D0D000000006C04002034020020D1
:103D100004480021A0F8441000F8011B4021FCF7E2
:103D2000ADBA00003402002010B50B4C0020402139
:103D3000A4F844000948FCF7A1FA4021601CFCF7F4
:103D40009DFA6420FDF73EFBBDE81040032204A16C
:103D50000448FEF799BF000034020020BA02002098
:103D60002B2B2B006C04002010B5134C11A1601CF0
:103D7000FCF796FA78B111A1601CFCF791FA68B1D2
:103D8000601CFCF786FA022804D9601C00F0C4FA13
:103D90000220207010BD012206A105E0084804465B
:103DA000FCF777FA82B22146BDE810400548FEF7DD
:103DB0006BBF000061000000340200202B4F4B005D
:103DC000D00100206C04002010B5084C0022022114
:103DD0002046FDF7A4FD4FF47A60FDF7F3FA204684
:103DE0000122BDE810400221FDF799BD000C024000
:103DF00070B505461848FEF7A1FC1748FEF7ECFC25
:103E0000002828D1144C1548012D206011D01448E9
:103E10000021C4E901010C20E160C4E90410A161A2
:103E20000D48E161FEF776FD002814D1012D03D085
:103E30000AE04FF4E130EBE72068C16841F010017F
:103E4000C160084901200870BDE870404022064961
:103E50000148FEF7B5BE70BD6C0400200044004070
:103E600060E3160034020020BA0200202DE9F04180
:103E70000E4607460F4D104CFDF74CFB21462846D9
:103E8000FFF724FA10B10120BDE8F08100240BE017
:103E900000233A5D29191846FDF7FEFA18B1C92129
:103EA00006A000F015F8641CB442F1D3FDF7EAFA5D
:103EB0000020E9E700000108FFFF03082E2E5C4305
:103EC0006F72655C5372635C666C6173682E63002D
:103ED000FEE702E008C8121F08C1002AFAD17047A5
:103EE0007047002001E001C1121F002AFBD170477A
:103EF00010B52DED028B9FED168AFCF75AFA9FED57
:103F0000151B53EC112BFCF7E2F9FCF75FFA144B8D
:103F100012491A7841F82200521CD0B20A22B0FB92
:103F2000F2F402FB140018705FF0000001EB800255
:103F3000401C92ED000AC0B20A2830EE088AF5D380
:103F4000F2EE040A88EE200ABDEC028B10BD0000E0
:103F5000000000006666666666665A3F0C02002036
:103F60000100002010B560F3070461F30F2462F331
:103F70001744204663F31F6010BD000010B50C4CC1
:103F80003C212170032161700146A01CFCF796F9C9
:103F90003E2201212046FCF79AFB04F83F0F3E2009
:103FA0006070BDE8104041210148FFF7B3BC00003C
:103FB000A900002010EE101A01700A0A42700A0CC3
:103FC0008270090EC170704770B5274C002541F210
:103FD000883004F8015B26A304F8015BB7EE000A01
:103FE00004F8025BE4E80250642044F8080B1F4820
:103FF0002060257165711C480ECB383080E80E00BA
:104000000C30FFF7D7FF1848B7EE000A4830FFF72B
:10401000D1FF1548B7EE000A4C30FFF7CBFF12482E
:10402000B7EE000A5030FFF7C5FF0F48B7EE000AA1
:104030005430FFF7BFFF0C48B7EE000A5830FFF7C7
:10404000B9FFD22020622577E564A577E57765770B
:10405000C4F8885025746574A574E5742575657574
:10406000A575E57570BD00006C01002080EE36007E
:1040700032313132303331303030303000000000F6
:1040800001700A0A42700A0C8270090EC1707047F2
:10409000FDF758FCFFF798FFFFF7E4FA5448006873
:1040A000016821F001010160FEF724FFFEF7E4FE44
:1040B000FFF74EF8FFF710F8FFF774F8FEF7A2FECF
:1040C000012240214B48FDF72AFC0020FEF71EFE8E
:1040D000494E012030704948FCF716FF40224849FC
:1040E0004848FEF76DFD4649402240314648FEF7FC
:1040F00067FDFEF74FFEFFF70BFE444CA068FFF78D
:1041000065FAE068FFF71EFAFFF79CF8242104F136
:104110003800FFF785F8DFF8F880DFF8F8904FF403
:104120008057002594F8240020B184F82450A0681A
:10413000FFF74CFA94F8250020B184F82550E06888
:10414000FFF700FA94F8260028B9D4F89C0042F250
:104150001071884204D300F05FF908B984F8265042
:10416000607EA8B139464046FDF7D0FB01280FD14B
:1041700060697060002239464046FDF7D0FB02209E
:10418000FDF720F9012239464046FDF7C8FB657668
:1041900094F8290050B194F83100012806D1FFF7B6
:1041A00013FE1DA0FFF7EAFE84F8295094F82A00B8
:1041B000012816D194F83100012812D199F8000095
:1041C00020B1012806D0022807D00AE00120FFF71D
:1041D0000FFE06E0FFF7A8FD03E0FFF779FD84F886
:1041E0002A50706800289DDC0120FEF78FFD99E7BA
:1041F000CC0300200008024004000020FC02002044
:104200007A0200202C0400206C0400206C010020A5
:104210000004024034020020574946495F5245538A
:10422000544544002DE9F041054600783C2831D141
:1042300095F83F003E282DD13D2201212846FCF76C
:1042400046FA95F83E10884224D16878012823D098
:1042500001262D4C022824D00027032828D004282A
:1042600040D0052816D1A878B0B3012812D194F80F
:104270002A0000280ED104F1640038218046FBF7A3
:10428000FDFF3822E91C4046FBF7DFFF1F4807709F
:1042900084F82A60BDE8F0812846BDE8F04100F0CE
:1042A00085B894F833000028F4D184F82660F1E74B
:1042B000A87890B10128EDD1154960690860207E89
:1042C0000028E7D11348007884F82000267660683B
:1042D0002830E0616676DDE712E02776E761E8786E
:1042E0002074D7E70848A91C383024220546FBF77C
:1042F000ACFF24212846FFF7B9FD84F82760C9E701
:1043000084F82960C6E700006C0100203402002018
:10431000080000200000002070B5054641210E482D
:10432000FBF7ACFF0C4C3C20294620700420607049
:10433000A01CFBF7C3FF3E2201212046FCF7C7F972
:1043400004F83F0F3E206070BDE8704041220249F2
:104350000248FEF799BC0000EA0000202C0400206F
:1043600010B5114C3C2020700220607004F1410017
:1043700090F82010C069491D002801DD012000E0EF
:10438000002041EA0010A0703E2201210648FCF7FF
:104390009EF984F83F003E2084F84000BDE81040BC
:1043A00041210148FFF7B6BA2B01002070B5174D27
:1043B000044680782870E07868702079A870237AA5
:1043C000E279A1796079FFF7CDFD6860617AAA682A
:1043D00001208A4206D04FF47A7211FB02F1A960E3
:1043E00085F82400A17AEA688A4205D0642211FB8C
:1043F00002F1E96085F82500E07A4EF66021484335
:10440000686100D102480349086070BD6C0100205A
:1044100080EE36000800002070B51B4C3C202422A2
:1044200020700120607004F59E71A01CFBF70DFF49
:1044300004F5827504F12600696B1435FFF720FE40
:1044400095ED060A04F12A00FFF7B4FD287F04F871
:104450002E0FA87F6070E87FA07028684EF660215C
:10446000B0FBF1F0E0703E2201210748FCF72FF984
:1044700060743E20A0740020C5F88800BDE870403C
:1044800041210148FFF746BA6800002000061016D7
:1044900000061016000000000000000001020304E6
:1044A000060708090000000001020304CC440008CC
:1044B0000000002068000000D23E000834450008DB
:1044C00068000020E8090000E23E0008000000004B
:1044D0000000000080EE3600000000000000000038
:1044E00088130000400000000400000019000000D4
:1044F000102700004000000002000000190000002A
:10450000983A00006000000005000000050000006F
:10451000204E0000400000000500000005000000E3
:10452000000000000100000010000000000000007A
:044530000024F4006F
:04000005080001AD41
:00000001FF
