:020000040800F2
:10000000080A0020C501000887360008E92F00080B
:1000100085360008CD060008C93F00080000000032
:10002000000000000000000000000000013800088F
:10003000D107000800000000A93600085139000867
:10004000DF010008DF010008DF010008DF01000810
:10005000DF010008DF010008D3070008DF01000806
:10006000DF010008DF010008DF010008DF010008F0
:10007000DF010008DF010008ED060008DF010008CD
:10008000F90600080507000891050008DF010008CF
:10009000DF010008DF010008DF010008DF010008C0
:1000A000DF010008DF010008DF010008DF010008B0
:1000B000DF010008DF010008DF010008DF010008A0
:1000C000DF010008DF010008DF010008DF01000890
:1000D000DF010008513F00085D3F0008DF01000814
:1000E000D9070008DF010008DF010008DF01000870
:1000F000DF010008DF010008DF010008DF01000860
:10010000DF010008DF010008DF010008DF0100084F
:10011000DF010008DF010008DF010008DF0100083F
:10012000DF0100081107000815070008DF010008BB
:10013000DF010008DF010008DF010008DF0100081F
:10014000DF010008DF010008DF010008DF0100080F
:10015000DF010008DF01000821070008DF010008B7
:10016000DF010008DF010008DF010008DF010008EF
:10017000DF010008DF010008DF01000800000000C7
:10018000DF010008DF010008DF010008DF010008CF
:10019000DF010008DF010008DF010008DF010008BF
:1001A000DF010008DF010008DF010008DFF810D0E0
:1001B00000F0DCF90048004785430008AFF30080F9
:1001C000080A00200648804706480047FEE7FEE789
:1001D000FEE7FEE7FEE7FEE7FEE7FEE7FEE7FEE7F7
:1001E000293A0008AD0100082DE9F05F054600201E
:1001F00092469B4688460646814640241BE0284698
:1002000041464746224600F00CF953465A46C01A6A
:10021000914110D311461846224600F0F3F82D1AEA
:1002200067EB01084F4622460120002100F0EAF862
:1002300017EB00094E41201EA4F10104DFDC484603
:1002400031462A464346BDE8F09F40EA01039B073A
:1002500003D009E008C9121F08C0042AFAD203E03B
:1002600011F8013B00F8013B521EF9D27047D2B29F
:1002700001E000F8012B491EFBD270470022F6E78F
:1002800010B513460A4604461946FFF7F0FF20460C
:1002900010BD421C10F8011B0029FBD1801A7047C9
:1002A00010B5002200E0521C835C8C5CA34201D19B
:1002B000002BF8D1D8B2E1B2401A10BD034611F8B4
:1002C000012B00F8012B002AF9D1184670472DE9BF
:1002D000FE4F81EA030404F0004421F00041009441
:1002E0004FF0000B23F0004350EA01045ED052EAC5
:1002F00003045BD0C3F30A54C1F30A552C44A4F29F
:10030000F3340194A0FB0254C1F3130141F48011B2
:10031000C3F3130343F4801301FB024400FB034EB9
:10032000840A970A44EA815447EA8357A4FB076882
:1003300002958D0A05FB07854FEA932C04FB0C54AC
:100340002705029D4FEA065847EA1637B5EB080520
:100350006EEB070C870E920E47EA811742EA831272
:10036000A7FB0201B6EB0B0164EB00042B0D43EA83
:100370000C335E1844EB1C50DA465146E7FB020191
:10038000C5F313044FEA0B3343EA14534FEA043224
:10039000019C43EA0603A4F10C040294009CCDE9FD
:1003A00000B400F094F803B0BDE8F08F00200146DF
:1003B000F9E70EB540F2334102910021CDE9001179
:1003C0000A460B4600F083F803B000BD01F000437D
:1003D00030B421F0004150EA010206D00A0DA2F526
:1003E0006072C1F31301002A02DC30BC00207047A8
:1003F000440F44EAC104C100E01830BC00EBC25015
:1004000000F01FB8202A04DB203A00FA02F1002095
:1004100070479140C2F1200320FA03F31943904042
:100420007047202A04DB203A21FA02F000217047AD
:1004300021FA02F3D040C2F120029140084319464C
:1004400070470029A8BF7047401C490008BF20F032
:100450000100704710B4B0FA80FC00FA0CF050EACA
:10046000010404BF10BC704749B1CCF1200421FA4B
:1004700004F411FA0CF118BF012121430843A3EB46
:100480000C01CB1D4FEA00614FEA102042BF002053
:1004900010BC704700EBC35010440029A4BF10BC2F
:1004A0007047401C490008BF20F0010010BC704795
:1004B00010B5141E73F1000408DA401C41F100016C
:1004C00092185B411A4301D120F0010010BD2DE9C3
:1004D000F04D92469B4611B1B1FA81F202E0B0FABA
:1004E00080F220329046FFF78DFF04460F4640EA27
:1004F0000A0041EA0B0153465A46084313D01146FD
:1005000053EA010019D0C8F140025046FFF789FFB5
:1005100005460E46504659464246FFF773FF0843CC
:1005200005D0012004E020463946BDE8F08D0020CA
:10053000054346EAE0762C4337430A986305E40A0C
:10054000A0EB08000022FD0A44EA47540A3002D515
:1005500000200146E9E7010510196941DDE9084578
:1005600000196941BDE8F04DA2E70000064C074DB7
:1005700006E0E06840F0010394E807009847103473
:10058000AC42F6D3FFF716FEA4470008C4470008A4
:1005900010B5044800F0C6FBBDE81040014800F06B
:1005A000B5BC0000A0030020454910B54A6822F4FC
:1005B00040324A604A6843681A434A6001684A68A0
:1005C00022F480724A6001684A68036942EA0322A1
:1005D0004A6001684A6822F040724A6001684A68CD
:1005E00083681A434A6001688A6822F400628A605C
:1005F00001688A68C3681A438A60816A6FF0706212
:10060000D14201688A6822F070628A6001688A6853
:100610000CD0836A1A438A6001688A6822F04052CB
:100620008A6001688A68C36A1A4301E022F0405276
:100630008A6001688A6822F002028A6001688A681A
:10064000836942EA43028A60016A002901684A68B4
:100650000FD042F400624A6001684A6822F46042A6
:100660004A6001684A68174C436A04EB43331A43F3
:1006700001E022F400624A600168CA6A22F4700252
:10068000CA620168CA6A838B0F4C04EB03531A4396
:10069000CA6201688A6822F400728A6001688A6806
:1006A000036B42EA43228A6001688A6822F480620E
:1006B0008A6001688A68406942EA8020886010BDCB
:1006C0000023014000E0FFFF0000F0FFFEE710B54F
:1006D0000023C9B2914203DC445C491C2344F8E77F
:1006E000181410FA83F0C0B210BD0000014800F0E9
:1006F000F5BC000040030020014800F0EFBC000002
:1007000028050020014800F0E9BC00008805002011
:1007100070470000014800F0E1BC000068040020C0
:10072000014800F0DBBC0000C80400200168182369
:10073000CAB2103AB2FBF3F2054B6FF30901032A78
:100740009B5CC36500D9091D8165084670470000A0
:100750008447000810B5014600208B698A6A4FF073
:10076000C07453B1B3F5005F15D072B1012A0CD03B
:10077000022A0AD0032A09D104E01AB1012A06D0BC
:10078000022A03D1C96AC90100D5012010BDC96A76
:10079000A142FAD010BD002AF7D0012AF2D0022AD5
:1007A000F3D0032AF3D010BD30B50468256825F4D2
:1007B00080252560046863608368402B036803D04C
:1007C00099600068C26030BD9A600068C16030BD49
:1007D0007047012000F0A8BF4FF4005000F0A4BF04
:1007E000002229B101291DD002291ED04FF44072E8
:1007F0000B2800D9001D0E490B6823F440730B60D1
:100800000B6813430B600A6822F0F8020A600A685A
:10081000022303EBC00002430A60086840F4803002
:10082000086070474FF48072E2E74FF40072DFE730
:10083000103C02401348016889050FD5016821F476
:1008400000710160016841F400610160016821F4F8
:1008500000610160016841F40071016001684905AF
:100860000FD5016821F480610160016841F4805175
:100870000160016821F480510160016841F48061E8
:1008800001607047003C02400E4A136823F4407335
:10089000136003290DD0012911680FD041F40041E4
:1008A000116011684FF4803343EA00200143116066
:1008B0007047116848F204031943F1E741F004015D
:1008C000EEE70000103C0240064A136823F4407330
:1008D000136013681360136843F001031360017021
:1008E00070470000103C0240084910B50C6824F421
:1008F00040740C600C6844F440740C600C6844F064
:1009000001040C600260436010BD0000103C024016
:10091000074A136823F440731360136843F4807329
:100920001360136843F001031360018070470000F7
:10093000103C0240074A136823F4407313601368A5
:1009400043F400731360136843F001031360016004
:1009500070470000103C02401C490868C2061C4851
:1009600005D5C26942F01002C26110220A600A680D
:10097000920605D5C26942F00802C26120220A60CF
:100980000A68520605D5C26942F00402C2614022DB
:100990000A600A68120605D5C26942F00202C26105
:1009A00080220A600A68D20506D5C26942F00102B7
:1009B000C2614FF480720A600A68920705D5C26965
:1009C00042F02002C2610220086070470C3C0240E5
:1009D000E805002070B5114904460020C86100F008
:1009E000A3FF06460E4D09E0601C07D024B100F0BD
:1009F0009BFF801BA04201D9032070BD2868C00363
:100A0000F2D42868C00701D001202860286810F4BB
:100A1000F970F2D0FFF7A0FF012070BDE8050020BB
:100A20000C3C024010B50021A0F100634FF480425D
:100A3000934204D345490144914201D2012182E00D
:100A400043490144914201D202217CE041490144E1
:100A5000914201D2032176E03F494FF480330144B3
:100A6000994201D204216EE03C4944184FF4003110
:100A70008C4201D2052166E0394C04448C4201D2FB
:100A8000062160E0374C04448C4201D207215AE031
:100A9000354C04448C4201D2082154E0334C0444C8
:100AA0008C4201D209214EE0314C04448C4201D2E7
:100AB0000A2148E02F4C04448C4201D20B2142E031
:100AC000A0F10164944201D20C213CE02A4C044480
:100AD000944201D20D2136E0284C0444944201D2C4
:100AE0000E2130E0264C0444944201D20F212AE02A
:100AF000244A02449A4201D2102124E0224A0244AC
:100B00008A4201D211211EE0204A02448A4201D2C7
:100B1000122118E01E4A02448A4201D2132112E037
:100B20001C4A02448A4201D214210CE01A4A0244AF
:100B30008A4201D2152106E0184A1044884201D2A7
:100B4000162100E01721084610BD000000C0FFF785
:100B50000080FFF70040FFF70000FFF70000FEF7FE
:100B60000000FCF70000FAF70000F8F70000F6F7C5
:100B70000000F4F70000F2F700C0EFF70080EFF795
:100B80000040EFF70000EFF70000EEF70000ECF791
:100B90000000EAF70000E8F70000E6F70000E4F7DD
:100BA0007047000078B50024009490F83C20012A9A
:100BB00019D0012280F83C200A6807230568092A19
:100BC00013D9EE680A3A02EB420293409E43EE606C
:100BD0000A788B680A3A02EB420293400268D568B1
:100BE0002B43D36010E0022078BD2E6902EB420255
:100BF00093409E432E610A788B6802EB4202934039
:100C0000026815692B4313614A681F23072A13D210
:100C100005686E6B521E02EB820293409E436E6328
:100C20000B790A885B1E92B203EB83039A40036838
:100C30005D6B2A435A6327E005680D2A12D22E6B9A
:100C4000D21F02EB820293409E432E630B790A88E7
:100C5000DB1F92B203EB83039A4003681D6B2A43A8
:100C60001A6311E0EE6A0D3A02EB820293409E4352
:100C7000EE620B790A880D3B92B203EB83039A4034
:100C80000368DD6A2A43DA62174B0568154A9D42FC
:100C900006D10D68122D03D1556845F480055560C5
:100CA00005689D4219D1114D0B68AB4201D0112B43
:100CB00013D1536843F4000353600968A9420CD16F
:100CC0000B490C4A0968B1FBF2F101EB81014900C3
:100CD00000E0491E00910029FBD180F83C40002033
:100CE00078BD0000002301400020014012000010E8
:100CF0006000002040420F00064910B5884207D12D
:100D0000084600F00CF803F071FA034880ED0B0A76
:100D100010BD0000A003002068010020704700689B
:100D2000C06C704770B50446006801684268C1F342
:100D30004001C2F3401251B34AB3216CC90603D437
:100D4000216C41F400712164816811F0405F17D17A
:100D5000A169A9B9C16A11F4700F02D0816849056F
:100D60000ED4416821F020014160206C20F4807095
:100D70002064206CC00403D4206C40F00100206487
:100D80002046FFF7B9FF21686FF012000860206865
:100D900001684268C1F38001C2F3C01289B382B313
:100DA000216CC90603D4216C41F40051216481688F
:100DB00011F4401F1ED1816B11F4401F02D08168D5
:100DC000490517D44168490514D4816811F0405F82
:100DD00010D1A16971B9416821F080014160206C96
:100DE00020F480502064206CC00503D4206C40F0B7
:100DF000010020642046FFF7D3FE21686FF00C004D
:100E0000086020680168426811F0010FC2F3801287
:100E10000ED06AB10068C0070AD0206C40F4803060
:100E20002064204600F046F821686FF00100086059
:100E3000206801684268C1F34011C2F38062002952
:100E40000DD0002A0BD0616C41F0020161646FF09B
:100E5000200505602046FFF761FF2068056070BD32
:100E600070B504004FF0000503D0206C002610B1CF
:100E700007E0012070BD666484F83C60204600F005
:100E80001BF8206CC00610D4206C20F4885040F071
:100E9000020020642046FFF787FB6664206C20F088
:100EA000020040F00100206400E0012584F83C606D
:100EB000284670BD7047000000B50068104987B033
:100EC00088421AD10F480021026842F48072026001
:100ED000006800F480700590022000900320CDE9A6
:100EE00001016946084800F02BFC00220221122073
:100EF00001F096F8122001F088F807B000BD00005C
:100F000000200140443802400000024018B5002192
:100F1000009190F83C20012A07D0012280F83C2063
:100F200002689368DB0702D011E0022018BD9368C5
:100F300043F001039360224A224B1268B2FBF3F2A2
:100F400002EB420200E0521E0092002AFBD102682E
:100F50009368DB0732D0036C40F20164A34343F48F
:100F60008073036453685B0505D5036C23F4005359
:100F700043F480530364036CDB0404D5436C23F017
:100F80000603436400E0416480F83C100E4B6FF0B0
:100F90002201116001684A680C4C22434A6059687A
:100FA0000068C90602D00A49884207D1816811F059
:100FB000405F03D1816841F080418160002018BD0D
:100FC0006000002040420F00002301402000000488
:100FD000002001402DE9F0410446876D00F0A4FC9B
:100FE000064694F835000025022806D0802060656A
:100FF00084F834500120BDE8F0812068016821F0B8
:10100000160101602068416921F080014161206C76
:1010100008B9A06C20B12068016821F008010160C6
:101020002068016821F0010101600BE000F07CFC08
:10103000801B052806D92020606504F8345F032052
:101040006070D8E720680068C007EFD194F85C10A2
:101050003F208840B86004F8345F012060700020B1
:10106000C9E790F83510022903D08021416501209D
:101070007047052180F835100068016821F00101F2
:1010800001600020704770B5040025D094F8350049
:10109000022820D02068016821F001010160206849
:1010A0000025056020684560206885602068C5606F
:1010B000206805612168212048612046FFF736FB42
:1010C00094F85C203F2191408160656584F835503B
:1010D00084F83450002070BD012070BD2DE9F84324
:1010E00004464FF00009CDF8009063484FF41651C4
:1010F000A56D0068B0FBF1F72E6894F85C1008202D
:1011000000FA01F131420FD021680A6852070BD56D
:101110000A6822F004020A6094F85C108840A86013
:10112000606D40F00100606594F85C104FF00108BC
:1011300008FA01F0304208D021684969090604D54F
:10114000A860606D40F00200606594F85C100420B7
:101150008840304208D021680968890704D5A86012
:10116000606D40F00400606594F85C1010208840C9
:10117000304218D021680968090714D5A860206892
:101180000168490304D50068000308D5A16C07E095
:101190000168C90503D4016821F008010160216CD0
:1011A00009B12046884794F85C10202088403042DE
:1011B00031D021680968C9062DD5A86094F835009A
:1011C00005282068016806D0490347D50068000358
:1011D0001DD4616C1CE021F016010160206841699A
:1011E00021F080014161206C08B9A06C20B1206819
:1011F000016821F00801016094F85C103F208840EC
:10120000A86084F8349084F83580216D1FE0E16B8C
:1012100009B120468847606D00282BD0606DC0075B
:1012200014D0052084F835002068016821F0010100
:1012300001600098401C0090B84203D82068006804
:10124000C007F6D184F8349084F83580E16C002929
:1012500010D001B02046BDE8F04308470168C90539
:10126000D5D4016821F01001016084F8349084F82D
:101270003580CCE7BDE8F883600000202DE9F0411F
:10128000044600F051FB06465CB1002584F834505A
:10129000022084F835002068016821F00101016016
:1012A0000DE00120BDE8F08100F03EFB801B052829
:1012B00005D920206065032084F83500F2E7206816
:1012C0000068C007F0D12268116820480140D4E9C5
:1012D00001031843D4E903363343184363691843C1
:1012E000A3691843E3691843236A18430843616AF2
:1012F000042903D1D4E90B13194308431060206873
:101300004069666A20F0070130460E430127042831
:101310000CD1A06A0643E06A40B12046FFF71AFAF2
:1013200020B14020606584F83570BAE720684661D6
:101330002046FFF7FBF994F85C203F219140816043
:10134000656584F835700020ACE700003F8010F040
:101350002DE9F0410446866D90F8340000250128FF
:101360000DD0012084F8340094F835700020012F4E
:1013700007D084F8340002252846BDE8F081022019
:10138000FBE7022784F8357060652046FFF70CFA0A
:1013900094F85C103F208840B0602068016841F0FC
:1013A000160101602068416941F080014161206CB3
:1013B00020B12068016841F00801016020680168DF
:1013C00041F001010160D7E770B5044600F0ACFAC6
:1013D0000546601C02D004480078044400F0A4FADA
:1013E000401BA042FAD370BD540000202DE9F04705
:1013F000044623480F46017E01290AD00121804678
:1014000001764CF250394846FFF7E4FA020003D067
:1014100030E00220BDE8F0874FF0FF3038602068F0
:10142000184D012801D0A6681DE0207C6168FFF7F7
:101430002BFA4846FFF7CEFA0246286848F2040124
:101440008843286014E0217C3046FFF7C9F94846FC
:10145000FFF7C0FA0200286820F0FA00286001D0E7
:101460003E6005E0761CD4E902100844B042EAD898
:10147000FFF7E0F9002188F818101046CAE70000CD
:10148000E8050020103C02400348016841F000419B
:101490000160002070470000103C02402DE9F04739
:1014A0001B4E05461446307E1F468946012808D04B
:1014B000012030764CF250384046FFF78BFA18B1D5
:1014C00014E00220BDE8F0879DB1012D16D0022D59
:1014D00019D022463B464846FFF706FA4046FFF73A
:1014E00079FA0C490A6822F001020A60002131767B
:1014F000E8E7E1B24846FFF7E7F9EFE7A1B248466F
:10150000FFF706FAEAE721464846FFF713FAE5E750
:10151000E8050020103C0240074900200A68002A24
:1015200009DA054A054B0C3A1360054B136009684C
:10153000002900DA01207047103C02402301674572
:10154000AB89EFCD2DE9F04FDFF838B100224FF035
:1015500001094FF00F0A00BF09FA02F401EA04037F
:10156000A3427DD1066857000325BD40AE43066007
:10157000D60800EB8606D6F820C057074FEAD76892
:101580000AFA08F72CEA070CC6F820C08668AE43B2
:1015900086604668A6434660C468AC43C46022F0D7
:1015A00003055D44D5F808789407260F0AFA06F477
:1015B000DFF8D4C02740604502D14FF0000C40E076
:1015C000DFF8C8C0604502D14FF0010C39E0DFF808
:1015D000C0C0604502D14FF0020C32E0DFF8B4C069
:1015E000604502D14FF0030C2BE0DFF8ACC0604542
:1015F00002D14FF0040C24E0DFF8A0C0604502D116
:101600004FF0050C1DE0DFF898C0604502D14FF0A7
:10161000060C16E0DFF88CC0604502D14FF0070CD5
:101620000FE0DFF884C0604502D14FF0080C08E0FD
:10163000DFF878C0604502D14FF0090C01E04FF0AF
:101640000A0C0CFA06FCBC4516D1D5F80868A6436E
:10165000C5F80868164C25689D432560241D00E0E8
:101660000AE025689D432560241D25689D4325606B
:10167000241D25689D432560521C102AFFF46CAF81
:10168000BDE8F08F0030014000000240000402403D
:1016900000080240000C024000100240001402400A
:1016A00000180240001C02400020024000240240BA
:1016B000003C014070B50126174D184CB0F5005F95
:1016C00013D0012810D10121154800F01FF901287D
:1016D0001AD06868002807DD6069D8B1002068600A
:1016E000002004F82B0F207270BD60696860207EB6
:1016F0000028F9D10B48007884F82000267660682D
:101700002830E061667670BD40F6B830686084F8D5
:101710002B6070BD0120E2E704000020680100207A
:101720000000024000000020044910B50A6802428F
:1017300002D00860FFF7BEFF10BD0000143C01405E
:101740002DE9F84FDFF890B100224FF001084FF07B
:10175000030A4FF00F090BF1040E00BF0B6808FAE3
:1017600002F42340A3426ED14D68022D01D0122D08
:101770000ED1D50800EB850CDCF820505607F70E8B
:1017800009FA07F6B5430E69BE402E43CCF8206037
:10179000066855000F790AFA05FC07F0030726EAE8
:1017A0000C06AF40374307604E68012E05D0022E6D
:1017B00003D0112E01D0122E0ED18768CE6827EAF1
:1017C0000C07AE403E4386604668A6430C79C4F3DE
:1017D0000014944034434460C4688E6824EA0C04C6
:1017E000AE402643C6604C68E4006FD53B4C25688C
:1017F00045F480452560246822F0030504F4804404
:101800000094374C2E19D6F8084895072F0F09FA7F
:1018100007F5AC43334DA84201D100252EE0324DEF
:10182000A84201D1012529E0304DA84201D102256D
:1018300024E02F4DA84201D103251FE02D4DA842E1
:1018400002D104251AE041E02B4DA84201D1052523
:1018500014E02A4DA84201D106250FE0284DA842E8
:1018600001D107250AE0274DA84201D1082505E04E
:10187000254DA84201D1092500E00A25BD40254398
:10188000C6F80858DBF800405D464E689C43F603F6
:1018900000D51C432C60DEF8004075464E689C4322
:1018A000B60300D51C432C600B4D08352C684E68E0
:1018B0009C43F60200D51C432C60074D0C352C6868
:1018C0004E689C43B60200D51C432C60521C102A63
:1018D000FFF444AFBDE8F88F003C014044380240BB
:1018E00000300140000002400004024000080240B5
:1018F000000C024000100240001402400018024098
:10190000001C024000200240002402400069084000
:1019100000D00120704742694A40426170470AB1D5
:10192000816170470904FBE7014880687047000047
:10193000540000202DE9FE43044600688168744D80
:10194000744E4FF040270291A84201D1314600E089
:10195000394689680191C1694FF00108C1F301213D
:1019600002290AD0C16911F4407F06D00199890784
:1019700073D5A84267D1304666E00299890707D53A
:101980004068C043000603D40021204601F072FBEA
:101990000198C0070DD02068A84201D1304600E070
:1019A00038464068C043400603D40121204601F078
:1019B0001DFB01984FF65F79400628D52068A842A4
:1019C00001D1314600E039464968C94389061ED431
:1019D000A84201D1304600E03846406820F060015E
:1019E00001D1304600E0384641602068416801EA94
:1019F000090141602068C1688068009084F84180D6
:101A0000606C40F002006064204600F099F8029893
:101A100000077BD520684168C943890676D44168B0
:101A200001EA090141602068A84201D1304600E086
:101A30003846406820F0600000D03E467060206864
:101A40008068009057E0384640686FEA0000000662
:101A500003D40121204601F00DFB0298C00708D0F5
:101A600020684068C043400603D40021204601F0AE
:101A7000BDFA02984FF69F7940061FD5206841684D
:101A8000C94389061AD4416801EA09014160206806
:101A9000A84201D1304600E03846406820F0A0015D
:101AA00001D1304600E03846416084F84180606CE6
:101AB00040F002006064204600F042F80198000700
:101AC00024D52068A84201D1314600E03946496852
:101AD000C94389061AD4A84201D1304600E03846ED
:101AE000406820F0A00000D03E4670602068416849
:101AF00001EA0901416084F84180606C40F0040013
:101B000060642046BDE8FE4300F01AB8BDE8FE83DD
:101B10000038004000340040704710B504000CD07D
:101B2000022084F84100204600F0D4F800206064D0
:101B300084F8410084F8400010BD012010BD000071
:101B40000B2101A002F064B8736169206572726FA5
:101B5000720D0A002DE9F05F04004FF002064FF00D
:101B600000074FF010052CD04FF00209C84684F84A
:101B7000419054486063204600F0AEF82068C16987
:101B800040F6BF7A21EA0A01C1612168C1F82080CC
:101B90002068D0F81C8060694FF4007B022835D0A3
:101BA000E06800B12025A068202800D86D00012041
:101BB00000F0C0FA2169594525D1E16821B1A90099
:101BC00003E00120BDE8F09FE900B0FBF1F000BFA9
:101BD00000EB800061694000B0FBF1F0401D0A217C
:101BE000B0FBF1F101F00100091AC1F34F06070241
:101BF000B01EFE280AD3606C40F0100060642046DE
:101C0000FFF79EFFDDE7B0FBF5F0E1E72069216813
:101C10003E4330430862A0882189228B0843A18972
:101C20001143084380B2216840EA080040F4006094
:101C3000C861206A01283AD123486063234821689B
:101C4000234A4FF04023814201D1114600E019465A
:101C5000C96921EA0A0101D1154600E01D46E96182
:101C600025684946854201D1154600E01D46296296
:101C70002568854201D1114600E01946CE696168A8
:101C800059451BD0D1B100212789B4F80CC047EACF
:101C90000C07B4F818C04CEA010C47EA0C07B9B2BB
:101CA000314341F40061854200D01A46D1610020E1
:101CB0006064012084F84100002083E74FF48071C4
:101CC000E2E70000533100083519000800380040F1
:101CD0000034004070470000F0B587B0064614217C
:101CE0006846FEF7CBFA28493068884249D1274830
:101CF0000025016841F4804101600068234900F437
:101D0000804010390590086840F0040008600868B9
:101D100000F004000590086840F0020008600868C0
:101D2000022400F00200059048208DE831000527CC
:101D3000CDE9035769461648FFF702FDB8028DE862
:101D40003100CDE9035769461248FFF7F9FC134CFF
:101D50001148C4E900050015A560C4E9035040001E
:101D600060618000A0614011C4E9070520466562FA
:101D7000FFF784FA18B1852109A002F027FAF4636D
:101D8000A66307B0F0BD00000038004040380240B4
:101D90000008024000040240586002404003002056
:101DA0002E2E2F436F72652F5372632F73746D3312
:101DB00032663478785F68616C5F6D73702E630093
:101DC000F8B5044629B122B194F84100012802D0A7
:101DD0004EE00120F8BDE1622068C06900F0070014
:101DE00003281FD005281DD02286628694F8400063
:101DF00001283DD0012084F84000042084F84100EF
:101E000000256564E26B1B481064E26B1A48D063DE
:101E1000E26B1A48D0642068C269C2F30122032A27
:101E200007D009E04FF6FF7000EA42002086608686
:101E3000DCE7C26882680092238E0A46E66B00F1F6
:101E40000C013046FFF784FA2068C169490503D4C4
:101E5000C16941F48061C16120684168C90703D14B
:101E6000416841F00101416084F840500020F8BD14
:101E70000220F8BD4931000821310008F93000087E
:101E800030B41249104A4B8814781D0A04EB440000
:101E90000F4B400603EB1060641CC5700B88037188
:101EA0001B0A4371CB881B0A83718988C171090A97
:101EB0000172E0B210700A2804D30020107030BC08
:101EC00001F0D8B930BC7047000000200C000020A1
:101ED0002701002070470000082101A001F098BEF2
:101EE0007361692074780D0A00000000024881685F
:101EF0000278114481607047540000200B4810B5EF
:101F0000016841F400710160016841F48061016081
:101F1000016841F480710160032000F0A1F8002005
:101F200000F006F800F024F8002010BD003C02404C
:101F300070B50D4D04464FF47A712878B1FBF0F07E
:101F40000A490968B1FBF0F000F00CFD48B9102C0B
:101F500007D200222146501E00F062F800206C607B
:101F600070BD012070BD0000540000206000002002
:101F70001F4808B5016841F480410160006800F421
:101F8000804000901A48001F016841F080510160B4
:101F9000006800F080500090032000F061F80022FB
:101FA00011466FF00B0000F03BF8002211466FF075
:101FB0000A0000F035F8002211466FF0090000F029
:101FC0002FF800221146501F00F02AF80022114677
:101FD000101F00F025F800221146901E00F020F896
:101FE0000022BDE808401146501E00F019B800005C
:101FF0004438024000F01F02012191404009800056
:1020000000F1E020C0F88011704700F01F020121AC
:1020100091404009800000F1E020C0F800117047B5
:10202000F0B40E4B1B680C46C3F30223C3F1070543
:10203000042D00D90425191D072901D2002300E031
:10204000DB1E012606FA05F1491E214099409E40FB
:10205000761E16403143F0BC01F016BB0CED00E0DB
:10206000064900F0070208684FF6FF03184040EAEF
:102070000220034A10430860704700000CED00E0A6
:102080000000FA052DE9F8431748016841F0805136
:1020900001600068154F00F08050012600903E64FA
:1020A000FFF742FC05464FF47A78114C05E000BF7B
:1020B000FFF73AFC401B40450DD86068C003F7D5D8
:1020C0007E64FFF731FC0546464607E0FFF72CFC2F
:1020D000401BB04202D90320BDE8F883606880034A
:1020E000F4D50020F8E700004038024000000E421E
:1020F0000070004002494A6882434A60704700000D
:102100000070004002494A6802434A60704700007C
:10211000007000400548016841F002010160044878
:10212000016841F00401016030BF70470070004059
:1021300010ED00E001460020012907D1104909688F
:1021400011F4000103D0012900D10E4870470C485A
:10215000001F01680068490200F03F0001D50A49EC
:1021600000E00A49064AB1FBF0F07C321168C1F385
:10217000881141431068C0F30270B1FBF0F0704762
:10218000083802400080BB0000127A000024F400EE
:102190002DE9F84F04460068DFF804A2814F824D14
:1021A000C1074FF001084FF0000601D180073CD570
:1021B000CAF86860FFF7B8FB814605E0FFF7B4FB9B
:1021C000A0EB0900022878D828680001F6D420780E
:1021D000C107764805D06168227A890141EA027117
:1021E00001602178890711D501686268237B92011B
:1021F000C1F3027142EA036242EA01710160386888
:10220000E16920F01F00491E08433860CAF8688061
:10221000FFF78AFB814605E0FFF786FBA0EB09008C
:1022200002284AD828680001F6D52068410701D461
:1022300000074CD5CAF87060FFF776FB814605E0D1
:10224000FFF772FBA0EB0900022836D82868C043CC
:102250008000F5D520784107554814D501682269DA
:10226000237D9201C1F3027142EA036242EA0171E5
:1022700001603968226A6FF0FF0321F4F85103EB23
:102280000222114339602178090710D501682269BB
:10229000C1F30361920142EA0161227E41EA0271C7
:1022A00001603868616A20F4403008433860CAF839
:1022B0007080FFF739FB074605E048E0FFF734FB85
:1022C000C01B022843D82868C0438000F6D4207879
:1022D000800653D534484030016841F08051016098
:1022E0000068344D00F080500090286840F4807001
:1022F0002860FFF719FB074605E000BFFFF714FB56
:10230000C01B022823D82868C005F7D5274D143DE7
:10231000286810F4407020D0218D01F44071814272
:102320001BD02868244920F44070C1F800800E605A
:1023300028602868C00710D0FFF7F6FA064641F279
:10234000883707E0FFF7F0FA801BB84202D9032074
:10235000BDE8F88F28688007F4D5A16A1248C1F358
:1023600001220830032A13D0016821F4F81101601A
:102370002868218DC1F30B01084328602078C0062E
:1023800004D50E4994F82C00C1F8E0010020DFE7E5
:1023900002680B4B22F4F81219400A430260E7E787
:1023A000000047428C380240003802408438024026
:1023B0008838024000700040400E474200104742FB
:1023C000FFFCFF0F2DE9F0470E46050065D0DFF852
:1023D0001481D8F80000F7B200F00F00B04207D225
:1023E00088F80070D8F8000000F00F00B04254D117
:1023F00028683D4C810712D5400703D5206840F47A
:10240000E05020602878000703D5206840F4604041
:1024100020602068A96820F0F00008432060287838
:10242000C0072DD0304968680839012812D0022829
:1024300013D0032811D00968890700292DDA2168F3
:1024400021F0030101432160FFF76EFA814641F25A
:10245000883A0EE009688903EFE709688901ECE72B
:10246000FFF762FAA0EB0901514502D90320BDE84C
:10247000F0872068696800F00C00B0EB810FEFD1A5
:10248000D8F80010404601F00F01B14207D907709B
:10249000006800F00F00B04201D00120E7E7287883
:1024A000400705D52068E96820F4E0500843206023
:1024B0002878000706D52068296920F4604040EAA2
:1024C000C100206000F03CF82168084AC1F3031104
:1024D000515CC840064908600020FFF729FD002034
:1024E000C5E70000003C0240083802408C47000865
:1024F0006000002001480068704700006000002074
:102500000448054900680968044AC1F38221515C06
:10251000C840704760000020083802409C4700080F
:102520000448054900680968044AC1F34231515C16
:10253000C840704760000020083802409C470008EF
:10254000154810B5006810F00C02144813D0411063
:10255000042A0FD0082A0ED10F4C241F22682368AA
:1025600002F03F025B0207D52068C0F38810A0FB91
:10257000010106E0084610BD2168C1F38811A1FBE6
:1025800000010023FDF730FE2168C1F30141491C21
:102590004900B0FBF1F010BD083802400024F400FF
:1025A0002DE9F84F050076D02878DFF8F8B2BE4C58
:1025B000C00749D0DBF800105846C1F3810101295A
:1025C00008D00068C0F3810002280AD1201D0068ED
:1025D000400206D52068800336D568680028E2D01E
:1025E00032E06868B0F5803F10D0B0F5A02F2068C9
:1025F00010D020F480302060206820F480202060FB
:102600006868A0B1FFF790F906460CE0206840F436
:102610008030F4E740F480202060F7E7FFF784F98A
:10262000801B642873D820688003F7D50CE0FFF77F
:102630007BF9064605E000BFFFF776F9801B6428AA
:10264000F0D820688003F7D42878DFF8608280070C
:102650004FF000093ED5DBF80010584611F00C0F82
:1026600009D00068C0F3810002280BD18D48001FFB
:102670000068400206D42068800715D5E868012864
:1026800009D111E0E868B8B10120C8F80000FFF7EF
:102690004BF9064605E002E1FFF746F9801B0228E8
:1026A000C0D820688007F7D52068296920F0F80095
:1026B00040EAC10020600DE0C8F80090FFF734F94F
:1026C000064604E0FFF730F9801B02281FD8206877
:1026D0008007F7D42878000722D5724E74486969BC
:1026E0006C3671B101210160FFF71EF9074604E065
:1026F000FFF71AF9C01B022809D830688007F7D500
:102700000EE0C0F80090FFF70FF9074605E083E000
:10271000FFF70AF9C01B02287ED830688007F7D47B
:102720002878400768D5DFF87CA100270AF1380A2D
:10273000DAF80000C0000BD4DAF8001041F0805144
:10274000CAF80010DAF80000012700F0805000906D
:10275000584E3068C00510D4306840F48070306046
:10276000FFF7E2F8009005E0FFF7DEF80099401A65
:10277000022851D83068C005F6D54A4EA868683698
:1027800001280FD00528306810D020F001003060FB
:10279000306820F004003060A868B8B1FFF7C4F8D2
:1027A00000900FE0306840F00100F4E740F00400D2
:1027B0003060F7E7FFF7B8F80099411A41F2883026
:1027C000814264D830688007F4D50EE0FFF7ACF89A
:1027D000009007E0FFF7A8F80099411A41F288300D
:1027E000814254D830688007F4D42FB1DAF8001051
:1027F00021F08051CAF80010A869C0B3DBF80010BE
:10280000C1F3810102294AD00228484607D0C8F8FE
:102810006000FFF789F800E039E005463AE04746F6
:10282000C8F86000FFF780F8064604E0FFF77CF880
:10283000801B02282BD820688001F7D4D5E9070136
:102840000843A96A1C4A490802EB01416A6A41EA45
:102850008211084395F82C1040EA01611148001FCD
:10286000016001203866FFF75FF8054605E014E0D7
:10287000FFF75AF8401B022809D820688001F7D5D5
:102880000BE000BFFFF750F8401B022802D90320DD
:10289000BDE8F88F20688001F4D40020F8E701201B
:1028A000F6E70000083802400038024000004742C6
:1028B000800E4742007000400000FFFF4FF0E02113
:1028C0000428086903D020F004000861704740F034
:1028D0000400FAE770B5FFF727F81F4905461F4EB9
:1028E000087810B14868002806DA3046BDE8704024
:1028F00000222021FFF713B8194C62691AB994F825
:102900002B20012A01D1401E4860206E002808DDDE
:10291000B5FBF0F100FB115068B920213046FEF7FD
:10292000FAFF206E38B94FF0FF30206601222021D7
:102930003046FEF7F4FF4FF4FA60B5FBF0F100FB10
:10294000115008B900F0C4FE207C002803D154F8CF
:102950009C0F401C206070BD04000020000002405D
:102960006801002010B5401EB0F1807F01D3012026
:1029700010BD4FF0E02460610F21601700F084FE6D
:102980000020A06107202061002010BD10B5FFF7D6
:10299000A1FF10BD70B504460068C16821F49071B4
:1029A000C1602068416921F00101416120684169ED
:1029B0004FF00005490609D5416921F04001416108
:1029C000606B18B10565606BFEF704FBE5852020A0
:1029D00084F83A00002070BD10B5044600684169D3
:1029E00094F83920C1F3C011212A0BD151B14169AA
:1029F00021F080014161206B08B1FEF7EBFA20461F
:102A000001F0B6F82068416994F83A20C1F38011CA
:102A1000222A0BD151B1416921F040014161606B23
:102A200008B1FEF7D7FA204601F094F8002010BD57
:102A300010B504000ED0242084F83900204600F0A0
:102A4000C7F80020E06384F8390084F83A0084F87D
:102A5000380010BD012010BD7047000070B502683D
:102A600004461068D168536910F00F0F50D003F07E
:102A7000010501F4907635435DD0C20705D0CA0543
:102A800003D5E26B42F00102E263420705D5DA07A3
:102A900003D0E26B42F00202E263820705D5DA0757
:102AA00003D0E26B42F00402E263020705D5DA07C5
:102AB00003D0E26B42F00802E263E26B002A33D0FB
:102AC000800604D5880602D5204601F05AF8206811
:102AD0004069E16BC0F38010090700D428B3204699
:102AE00001F038F82068416949061AD5416921F09A
:102AF00040014161606BA0B11B490165606BFEF74D
:102B0000B0FA002810D0606B016DBDE87040084736
:102B1000830610D58B060ED52046BDE8704001F027
:102B200030B82046FFF798FF70BD2046FFF794FFAE
:102B30000020E06370BD030606D50B0604D52046D1
:102B4000BDE8704001F0D2B94006F3D54806F1D592
:102B5000D168204621F04001D160202184F839104D
:102B600000F0FEF970BD00007D3A000870B5040069
:102B700004D094F83900002510B106E0012070BDA2
:102B800084F83850204600F05FF8242084F839009B
:102B90002068C16821F40051C160204601F050F85E
:102BA0002068016921F4904101612068416921F0A8
:102BB0002A0141612068C16841F40051C160E563A8
:102BC000202084F8390084F83A00002070BD00000D
:102BD00010B5044600681749884211D116480168AB
:102BE00021F0100101604FF4C0611448FEF7AAFC07
:102BF000606BFEF748FA206BFEF745FA252013E0DC
:102C00000F49884214D10C48001F016821F400319B
:102C1000016078210B48FEF795FC606BFEF733FAF4
:102C2000206BFEF730FA2620BDE81040FFF7E2B92E
:102C300010BD000000100140443802400000024076
:102C400000440040000C02402DE9F04F04460068AB
:102C5000634A022707210025032687B04FF00109A8
:102C60004FF0006A4FF4806B90424ED15D4802688D
:102C700042F010020260006800F010000590CDE9FB
:102C8000036170028DE8810269465748FEF758FDDE
:102C9000574E564857463060C6E901A5C6E9035B62
:102CA00080157561C6E906504002C6E90805D84698
:102CB0003046FEF7E3FA18B185214EA001F086FAFE
:102CC0006663B4634A4E494860367830E6E80207E6
:102CD0004020A6E821014FF4403046F81459B56170
:102CE000C6E90750424875626030FEF7C7FA18B16E
:102CF000972140A001F06AFA2663002211462520A0
:102D0000B463FFF78DF9252064E03F4A904263D118
:102D10003448001F026842F40032026000688846AE
:102D200000F4003005901820CDE9000702AA69469A
:102D300082E860013548FEF703FD60208DE88102DE
:102D4000CDE9036869463148FEF7FAFC284F304860
:102D5000C037D0463860C7E901A5C7E9035B8015D5
:102D60007D61C7E90650C7E90A6540024FF0040AD1
:102D70003D63C7E9080AD9463846FEF77FFA18B11D
:102D8000D0211CA001F022FA6763BC632048214FC8
:102D90001830E7E802084020A7E821024FF440304D
:102DA00047F81459C7F824A0BD61C7E90750C7E91F
:102DB0000A6518483D63FEF761FA18B1E5210DA0D8
:102DC00001F004FA2763002211462620BC63FFF7B6
:102DD00027F92620FFF719F907B0BDE8F08F0000AA
:102DE00000100140443802400000024040640240AC
:102DF000680400202E2E2F436F72652F5372632FAD
:102E000075736172742E630000440040000C024030
:102E10008860024088050020F8B5044690F83A0022
:102E200020283CD1C1B3BAB394F83800012836D079
:102E3000012084F83800A162A2850025E5632220E4
:102E400084F83A00636B1748D863636B16481864BC
:102E5000636B1648D864606B134605650846666B5D
:102E6000216802463046091DFEF772FA20680168A3
:102E70004168009184F83850C16841F48071C160A4
:102E80002068416941F0010141612068416941F0D8
:102E9000400141610020F8BDFFE70120FBE702206F
:102EA000F9E70000D73A0008133B00088D3A000804
:102EB0000749884202D14021064805E00649884278
:102EC00004D104484021403001F02CBB7047000081
:102ED000E80300207802002028040020704700004A
:102EE00070B5044690F83900202830D169B362B338
:102EF00094F8380001282AD0012084F83800216293
:102F0000A284E2840025E563212084F83900236B44
:102F10001048D863236B10481864236B0F48D8649B
:102F2000206B134605652668206B321DFEF710FAEC
:102F300021686FF04000086084F8385020684169CB
:102F400041F080014161002070BD012070BD022070
:102F500070BD00001D3B00084B3B00088D3A000887
:102F60007047704770B51D4C002550B96068C0436C
:102F7000800732D41A4E01213046FEF7C7FC0128E3
:102F800021D0184E0120002586F8330001F0C0FB47
:102F900018B16D1CEDB2322DF8D3002086F8330045
:102FA0003220FEF711FA4FF480752846FFF7A2F899
:102FB000206840F0040020602846FFF7A3F8BDE831
:102FC0007040FFF7A7B86420FEF7FEF96D1C1E2DB8
:102FD000D1DB206840F00800206070BD0070004028
:102FE0000000024068010020FEE700002DE9F041EA
:102FF000C26A012613460468921C39B11B491C4D54
:103000004FF040278C4217D12C4616E0E168C2628F
:103010001980418E491E4186418E00290AD10168DE
:103020004A684FF69F731A404A601BE080F841607F
:10303000FEF772FDBDE8F0813C46E468C2621C8088
:10304000428E521E4286428E002AF3D102688A4284
:1030500001D1294600E03946496821F0600100D0DD
:103060003D466960418D0029E0D0E3E7003800402B
:103070000034004070B5426A0125941C0368446224
:1030800041B11B4912881B4C4FF040268B4216D190
:10309000234615E01188D960418D491E4185418D37
:1030A00000290BD101684A684FF65F731A404A60E5
:1030B00019E000BF80F84150FEF72EFD70BD334689
:1030C000DA60428D521E4285428D002AF6D1026896
:1030D0008A4201D1214600E03146496821F0A00131
:1030E00000D034466160418E0029E3D070BD0000FD
:1030F000003800400034004010B5806B01684A6819
:1031000022F003024A60002141854186012180F8B6
:103110004110416C41F008014164FEF711FD10BD02
:1031200010B50146806B09680968C90509D40168B2
:103130004A6822F001024A6000214186012180F89C
:103140004110FEF79DFE10BD10B5806BFEF7C2FE6C
:1031500010BDFEB5016804468868019094F84100EE
:103160000125042833D101984FF69F76C00716D069
:103170004868C043400612D4CA682046E16A8B1CE6
:10318000E3620A80618E491E6186618E39B90168E9
:103190004A6832404A6080F84150FEF771FE01985B
:1031A000400614D520684168C94389060FD4416898
:1031B000314041602068C1688068009084F84150C7
:1031C000606C40F0020060642046FEF7B9FC94F8A1
:1031D0004100032834D101984FF65F76800718D557
:1031E00020684068C043000613D4616A20468A1CE8
:1031F000626222680988D160618D491E6185618D96
:1032000039B901684A6832404A6080F84150FEF797
:1032100063FE0198000713D520684168C9438906F9
:103220000ED441683140416020688068009084F885
:103230004150606C40F0040060642046FEF780FC62
:10324000FEBD000010B5012251030848FEF767FBE0
:10325000074C012211462046FEF761FB2046002262
:10326000BDE810400221FEF75ABB000000080240F2
:103270000010024010B50E4C207C002813D0A0781E
:1032800010B9207E00280ED0207810B96078002870
:1032900009D001F0E5F9002805D1E06910F10A0F25
:1032A00002DD0A38E06110BD0020207610BD00006C
:1032B000680100207FB515481349002401604FF4D0
:1032C0008031C0E901140461846111490462C0E9DC
:1032D0000A140125C460C56145610463FDF7C0FDA2
:1032E00018B148210BA000F071FF0095CDE9015401
:1032F00069460648FDF756FC002803D0522105A078
:1033000000F064FF7FBD000000200140A00300200A
:103310000100000F2E2E2F436F72652F5372632F03
:103320006164632E63000000214808B5016841F420
:1033300080010160016801F480010091016841F49D
:10334000001101600068002200F400100090114696
:103350001020FEF765FE1020FEF757FE00221146F2
:103360001120FEF75DFE1120FEF74FFE00221146F0
:103370003920FEF755FE3920FEF747FE00221146A0
:103380003A20FEF74DFE3A20FEF73FFE002211469E
:103390004620FEF745FE4620FEF737FE0022114686
:1033A0000E20FEF73DFEBDE808400E20FEF72DBEC4
:1033B000303802402DE9F04F714887B00025016890
:1033C00041F010010160016801F0100105910168F0
:1033D00041F004010160016801F0040105910168F8
:1033E00041F080010160016801F0800105910168F0
:1033F00041F001010160016801F0010105910168DE
:1034000041F002010160016801F0020105910168CB
:1034100041F0080101600068DFF868B100F00800C1
:103420000590002242F220015846FEF778FADFF8B4
:103430005891002238214846FEF771FA4FF4804A2D
:10344000012251465148FEF76AFA012203215048F1
:10345000FEF765FA00224FF458714C48FEF75FFA08
:10346000002203214B48FEF75AFA01244FF400577B
:10347000CDE9007469465846CDE90245FEF760F98A
:1034800045486946CDE9004002954846FEF758F99F
:103490001820CDE9000469464846CDE90245FEF70B
:1034A0004FF94FF020080226CDF800800395CDE9B2
:1034B000014669464846FEF743F94FF44079CDF896
:1034C0000090CDE9015469463248FEF739F944F2DB
:1034D0006000CDE9000469462C48CDE90245FEF7BD
:1034E0002FF92E480097CDE9010569462748FEF7D8
:1034F00027F9CDF800A0CDE9015469462448FEF72C
:103500001FF9CDF800800395CDE90146694658467C
:10351000FEF716F98020CDE9000569460294584669
:10352000FEF70EF90325CDE90054CDE902466946C0
:103530001748FEF705F9CDF80090CDE90146694638
:1035400012480396FEF7FCF80095CDE9014669465E
:1035500010480396FEF7F4F8002211460620FEF705
:103560005FFD0620FEF751FD002211462820FEF7E0
:1035700057FD2820FEF749FD07B0BDE8F08F000099
:1035800030380240000802400000024000040240BF
:10359000000C024000100240000031100000111029
:1035A0000D4810B50B4901604FF440714160002196
:1035B0000322C0E902124FF40072026144F6206255
:1035C000C0E90521C1610162FEF7C4FA002800D0FC
:1035D000FEE710BD00380040F80200200D4810B58D
:1035E0000B4901600C494160002181600C22C160DF
:1035F000C0E904128161C161FFF7B8FA002805D063
:10360000BDE81040482105A000F0E0BD10BD00005D
:1036100000100140E803002060E316002E2E2F4327
:103620006F72652F5372632F75736172742E63000E
:103630000D4810B50B4901600C49416000218160C3
:103640000C22C160C0E904129201C0E90621FFF713
:103650008DFA002805D0BDE810405B2104A000F0E1
:10366000B5BD10BD004400402804002060E31600F2
:103670002E2E2F436F72652F5372632F75736172F5
:10368000742E6300FEE770470907090E002806DA6A
:1036900000F00F0000F1E02080F8141D704700F1E9
:1036A000E02080F8001470477047000010B5074B09
:1036B000002207E01C78FF2C00D12AB18454521C50
:1036C000D2B25B1C8A42F5D3002010BD0000010875
:1036D00070B51D4D4FF400712846FEF717F9D8B1AB
:1036E00000201A4C4FF4807184F830002846FEF711
:1036F0000DF984F8320080211548FEF707F968B10A
:103700005FF0000084F8310094F83010114851B196
:1037100094F8291021B106E00120E2E70120F1E749
:1037200094F82A1009B1012208E094F8321009B186
:10373000002101E04FF4FA7100222166BDE87040DB
:103740000121FEF7ECB800000010024068010020E3
:1037500000080240000C024030B587B00D46044618
:10376000FDF7DAFE2049F32008602046FDF75AF9FC
:1037700004462846FDF756F9011B002005900090ED
:103780000220491C0294CDE9031005A96846FDF703
:103790002DFE18B1A42115A000F018FD12480C3818
:1037A000016821F480610160016821F40071016009
:1037B000016841F480510160016821F48051016089
:1037C000016841F400610160016821F40061016059
:1037D000016841F400710160016841F48061016099
:1037E00007B0002030BD00000C3C02402E2E5C4390
:1037F0006F72655C5372635C666C6173682E630004
:103800007047000070B51F4D1F4C64281CD0B0F5E8
:10381000FA7F25D0A0F51061C43932D101221021E0
:103820002846FEF77CF8002208212846FEF777F8A4
:10383000012220212046FEF772F800222046BDE832
:1038400070404021FEF76BB8002210212846FEF799
:1038500066F8002208212846FEF761F80022E8E712
:10386000002210212846FEF75AF801220821284696
:10387000FEF755F8002220212046FEF750F80122DD
:10388000DCE770BD00000240000402402DE9F04179
:1038900007468CB044F6206800244FF48076052556
:1038A0002948FEF73AF9294800EB04110968B942A2
:1038B0002AD100EB041108888A88098980B28DB268
:1038C000214900F6784096B2B0F500500FD000F6CE
:1038D0007840B0F500500DD000F67840B0F50050BB
:1038E0000BD000F67840B0F5005F11D109E041F24D
:1038F000883004E042F2107001E043F698204861FD
:1039000006E0C1F8148003E0641CA4B2042CCBD3FD
:103910000120CDE9000602956846FEF739FC00B1AA
:10392000FEE73220FDF750FD0748FEF713F900B11E
:10393000FEE70649022208390348FEF741FA0CB0B7
:103940000020BDE8F0810000F802002014000020F3
:1039500010B5FEF7CBFABDE81040FFF717B800002E
:10396000F0B52F489FB0016821F4401101602C4848
:1039700000254C38016841F080510160006800F07A
:1039800080501D902748016841F440410160006863
:10399000012600F440401D903004CDE9006002246F
:1039A0008001CDE9064005270897C820CDE9090424
:1039B00004200B906846FEF7F3FD00B1FEE7FEF72A
:1039C00061FB00B1FEE718A90F2081E831004FF438
:1039D000A0501B904FF480501C90012118A8FEF7B6
:1039E000F1FC00B1FEE74FF48070CDE90C600E975A
:1039F0000CA8FEF7CDFB00B1FEE7FEF77BFD4FF410
:103A00007A71B0FBF1F0FEF7ADFF0420FEF756FF30
:103A100000221146501EFEF703FB1FB0F0BD000050
:103A20008C380240007000401048016841F4700179
:103A300001600F48016841F0010101600C4A00215A
:103A40000832116002680B4B1A400260031D0A4ADB
:103A50001A60026822F48022026005480C3001607E
:103A600002495806803908607047000088ED00E080
:103A700000380240FFFFF6FE1030002410B5806BC6
:103A80000021C185C184FEF7E7FF10BD70B5846BCE
:103A90002068406994F83910C0F3C010002521292E
:103AA00004D118B1E584204600F062F8206840692E
:103AB00094F83A10C0F38010222904D118B1E5859A
:103AC000204600F047F8E06B40F01000E06320462D
:103AD000FEF7C2FF70BD10B50146806B096809682A
:103AE000C90513D40021C1850168CA6822F4807217
:103AF000CA6001684A6922F001024A6101684A69A4
:103B000022F040024A61202180F83A10FFF7D0F9F4
:103B100010BD10B5806BFFF7E1F910BD10B501467F
:103B2000806B09680968C9050CD40021C18401684B
:103B30004A6922F080024A610068C16841F0400190
:103B4000C16010BDFFF70CFA10BD10B5806BFFF718
:103B500008FA10BD0168CA6822F49072CA60016850
:103B60004A6922F001024A61202180F83A10704728
:103B70000168CA6822F0C002CA60202180F83910AA
:103B8000704710B590F83A10222901D0022010BDDC
:103B90008168B1F5805F11D00169002901681FD0EB
:103BA000496801F07F03816A4A1C82620B70C18DF3
:103BB000491E0904090CC18518D026E00269816AF2
:103BC000002A0268526805D0D2B20A80816A491C74
:103BD0008162ECE7C2F308020A80816A891CF7E778
:103BE0004A68816A4B1C83620A70E0E70168CA6810
:103BF00022F49072CA6001684A6922F001024A61A7
:103C0000202180F83A10FFF753F9002010BD000082
:103C100010B5084C94F830200AB1074B00E0074B70
:103C20000A4601461846FFF75BF9022801D1322106
:103C3000216610BD68010020E80300202804002050
:103C40002DE9F04104460068016921F44052E16821
:103C5000114301612168C86849F20C6290432369ED
:103C6000A268E5691A4363692B431A430243CA6099
:103C70002168486920F44072A06910434861E169F5
:103C80006425B1F5004F9748974A21684FF03208F4
:103C90003FD0914201D081427CD1FEF741FC00EB44
:103CA000C00101EB001061688900B0FBF1F6FEF77E
:103CB00037FC00EBC00101EB001061688900B0FB2C
:103CC000F1F0B0FBF5F06FF01801484306EB80010E
:103CD00008EB0110B0FBF5F000F0F006FEF720FC59
:103CE00000EBC00101EB001061688900B0FBF1F04E
:103CF000B0FBF5F006EB0016FEF712FC00EBC0017E
:103D000001EB001061688900B0FBF1F7FEF708FCD9
:103D1000D2E0914201D081423DD1FEF701FC00EB9F
:103D2000C00101EB001061684900B0FBF1F0B0FB8D
:103D3000F5F00601FEF7F4FB00EBC00101EB00100B
:103D400061684900B0FBF1F7FEF7EAFB00EBC00148
:103D500001EB001061684900B0FBF1F0B0FBF5F039
:103D60006FF01801484307EB800108EBC100B0FB7E
:103D7000F5F000F0F80006EB4006FEF7D1FB00EB93
:103D8000C00101EB001061684900B0FBF1F7FEF7DC
:103D9000C7FB3CE055E0FEF7B3FB00EBC00101EBD5
:103DA000001061684900B0FBF1F0B0FBF5F00601CE
:103DB000FEF7A6FB00EBC00101EB001061684900B3
:103DC000B0FBF1F7FEF79CFB00EBC00101EB00102C
:103DD00061684900B0FBF1F0B0FBF5F06FF018013D
:103DE000484307EB800108EBC100B0FBF5F000F0A1
:103DF000F80006EB4006FEF783FB00EBC00101EB89
:103E0000001061684900B0FBF1F7FEF779FB00EBA9
:103E1000C00101EB001061684900B0FBF1F0B0FB9C
:103E2000F5F06FF01801484307EB800108EBC10083
:103E3000B0FBF5F000F00700216830448860BDE871
:103E4000F081FEF75DFB00EBC00101EB0010616843
:103E50008900B0FBF1F6FEF753FB00EBC00101EB6C
:103E6000001061688900B0FBF1F0B0FBF5F06FF075
:103E70001801484306EB800108EB0110B0FBF5F098
:103E800000F0F006FEF73CFB00EBC00101EB001078
:103E900061688900B0FBF1F0B0FBF5F006EB0016AD
:103EA000FEF72EFB00EBC00101EB001061688900FA
:103EB000B0FBF1F7FEF724FB00EBC00101EB0010B3
:103EC00061688900B0FBF1F0B0FBF5F06FF018010C
:103ED000484307EB800108EB0110B0FBF5F000F060
:103EE0000F00A9E7001401400010014090F83910BC
:103EF000212901D0022070478168B1F5805F016AF5
:103F00000BD04A1C0262026809785160C18C491EBC
:103F10000904090CC1840ED017E009880268C1F3B6
:103F20000801516001690029016A02D0491C01623F
:103F3000ECE7891CFBE70168CA6822F08002CA60CE
:103F40000068C16841F04001C16000207047000076
:103F50000148FEF783BD0000E803002038B516488D
:103F6000FEF77CFD144800680168C943C90622D4E5
:103F70000168406800901048FEF72EFD0F48006869
:103F800040680F4CC0F14000C5B24021601CFCF7F6
:103F900075F92A460B49601CFCF757F9402109487E
:103FA000FCF76CF9402207490348FEF735FFBDE8EE
:103FB000384000F057B838BD2804002028050020FC
:103FC00030020020B8020020FEE7000010B50822F1
:103FD00009A10C48FEF784FF0B4C4021601CFCF744
:103FE0004DF9002020706420FDF7EEF9BDE8104087
:103FF000002000F07BB8000041542B454E544D0D7D
:1040000000000000280400203002002004480021A5
:10401000A0F8441000F8011B4021FCF72FB9000064
:104020003002002010B50B4C00204021A4F84400C1
:104030000948FCF723F94021601CFCF71FF96420B4
:10404000FDF7C2F9BDE81040032204A10448FEF7C1
:1040500047BF000030020020B80200202B2B2B00AD
:104060002804002010B5134C11A1601CFCF718F9AE
:1040700078B111A1601CFCF713F968B1601CFCF762
:1040800008F9022804D9601C00F0C6FA022020704A
:1040900010BD012206A105E008480446FCF7F9F826
:1040A00082B22146BDE810400548FEF719BF000066
:1040B00061000000300200202B4F4B00CC0100209B
:1040C0002804002010B5084C002202212046FDF7EC
:1040D00026FC4FF47A60FDF777F920460122BDE80F
:1040E00010400221FDF71BBC000C024070B50546D4
:1040F0001848FEF74FFC1748FEF79AFC002828D115
:10410000144C1548012D206011D014480021C4E939
:1041100001010C20E160C4E90410A1610D48E161D6
:10412000FEF724FD002814D1012D03D00AE04FF43E
:10413000E130EBE72068C16841F01001C160084937
:1041400001200870BDE87040402206490148FEF792
:1041500063BE70BD280400200044004060E31600E8
:1041600030020020B80200202DE9F0410E4607463B
:104170000F4D104CFDF7D0F921462846FFF7ECFA19
:1041800010B10120BDE8F08100240BE000233A5D6E
:1041900029191846FDF782F918B1C92106A000F0C7
:1041A00015F8641CB442F1D3FDF76EF90020E9E77D
:1041B00000000108FFFF03082E2E5C436F72655C50
:1041C0005372635C666C6173682E6300FEE702E005
:1041D00008C8121F08C1002AFAD170477047002092
:1041E00001E001C1121F002AFBD1704710B52DED6F
:1041F000028B9FED168AFCF7DCF89FED151B53EC44
:10420000112BFCF764F8FCF7E1F8144B12491A780B
:1042100041F82200521CD0B20A22B0FBF2F402FB99
:10422000140018705FF0000001EB8002401C92ED5A
:10423000000AC0B20A2830EE088AF5D3F2EE040A6A
:1042400088EE200ABDEC028B10BD000000000000CB
:104250006666666666665A3F080200200100002016
:1042600010B560F3070461F30F2462F3174420468E
:1042700063F31F6010BD000010B50C4C3C21217091
:10428000032161700146A01CFCF718F83E220121B1
:104290002046FCF71CFA04F83F0F3E206070BDE892
:1042A000104041210148FFF7B3BC0000A5000020E9
:1042B00010EE101A01700A0A42700A0C8270090E80
:1042C000C170704770B5264C002541F2883004F863
:1042D000145B24A304F8135C04F8125C44E9045052
:1042E000642044F8080C2560257165711C480ECBCC
:1042F0003830B7EE000A80E80E000C30FFF7D8FF28
:104300001748B7EE000A4830FFF7D2FF1448B7EE5F
:10431000000A4C30FFF7CCFF1148B7EE000A5030CE
:10432000FFF7C6FF0E48B7EE000A5430FFF7C0FF94
:104330000B48B7EE000A5830FFF7BAFFDD202062C5
:104340002577E564A577E5776577C4F88850257407
:104350006574A574E57425756575A575E57570BDFD
:104360006801002032323037303831303030303070
:104370000000000001700A0A42700A0C8270090EE7
:10438000C1707047FDF7BAFDFFF79CFFFFF7E8FA31
:1043900058480068016821F001010160FFF70AF840
:1043A000FEF7C2FFFFF71AF9FFF7FAF8FFF740F937
:1043B000FEF780FF012220214F48FDF7B0FA64206C
:1043C000FDF702F80020FEF7CDFD4C4E01203070C5
:1043D0004B48FCF79BFD47494022C8394948FEF746
:1043E0001BFD4449402288394748FEF715FDFEF77A
:1043F00029FF6420FCF7E8FFFFF708FE434CA068A4
:10440000FFF744FAE068FFF7FDF9FFF761F92421AF
:1044100004F13800FFF74AF9DFF8F480DFF8F49090
:104420004FF480475FF0000594F8240020B184F831
:104430002450A068FFF72AFA94F8250020B184F8E8
:104440002550E068FFF7DEF994F8260028B9D4F883
:104450009C0042F21071884204D300F059F908B967
:1044600084F82650607EA8B139464046FDF74EFAE2
:1044700001280FD160697060002239464046FDF77F
:104480004EFA0220FCF7A0FF012239464046FDF714
:1044900046FA657694F8290050B194F83100012865
:1044A00006D1FFF70FFE1CA0FFF7E6FE84F82950A7
:1044B00094F82A00012816D194F83100012812D16D
:1044C00099F8000020B1012806D0022807D00AE0A0
:1044D0000120FFF70BFE06E0FFF7A4FD03E0FFF766
:1044E00075FD84F82A50706800289DDA0120FEF7D7
:1044F00039FD99E740030020000802400400002035
:10450000A0030020E8030020280400206801002008
:104510000004024030020020574946495F5245538B
:10452000544544002DE9F041054600783C2831D13E
:1045300095F83F003E282DD13D2201212846FCF769
:10454000C6F895F83E10884224D16878012823D017
:1045500001262D4C022824D00027032828D0042827
:1045600040D0052816D1A878B0B3012812D194F80C
:104570002A0000280ED104F1640038218046FBF7A0
:104580007DFE3822E91C4046FBF75FFE1F4807709E
:1045900084F82A60BDE8F0812846BDE8F04100F0CB
:1045A00085B894F833000028F4D184F82660F1E748
:1045B000A87890B10128EDD1154960690860207E86
:1045C0000028E7D11348007884F820002676606838
:1045D0002830E0616676DDE712E02776E761E8786B
:1045E0002074D7E70848A91C383024220546FBF779
:1045F0002CFE24212846FFF7B7FD84F82760C9E781
:1046000084F82960C6E7000068010020300200201D
:10461000080000200000002070B5054641210E482A
:10462000FBF72CFE0C4C3C202946207004206070C7
:10463000A01CFBF743FE3E2201212046FCF747F871
:1046400004F83F0F3E206070BDE8704041220249EF
:104650000248FEF745BC0000E6000020E803002009
:1046600010B5114C3C2020700220607004F1410014
:1046700090F82010C069491D002801DD012000E0EC
:10468000002041EA0010A0703E2201210648FCF7FC
:104690001EF884F83F003E2084F84000BDE810403A
:1046A00041210148FFF7B4BA2701002070B5164D2B
:1046B000044680782870E07868702079A870237AA2
:1046C000E279A1796079FFF7CBFD6860607A4FF4F9
:1046D0007A7110FB01F0AA680121824202D0A86021
:1046E00085F82410A07A642210FB02F0EA68824266
:1046F00002D0E86085F82510E07A4EF66021484344
:1047000002496861086070BD68010020080000204F
:1047100070B51B4C3C20242220700120607004F5F1
:104720009E71A01CFBF791FD04F5827504F1260033
:10473000696B1435FFF71EFE95ED060A04F12A0099
:10474000FFF7B6FD287F04F82E0FA87F6070E87F82
:10475000A07028684EF66021B0FBF1F0E0703E22B8
:1047600001210748FBF7B3FF60743E20A0740020CE
:10477000C5F88800BDE8704041210148FFF748BAFC
:10478000640000200006101600061016000000004D
:1047900000000000010203040607080900000000F1
:1047A00001020304C4470008000000206400000068
:1047B000CE4100082848000864000020A409000039
:1047C000DE410008000000000000000000000000C2
:1047D00000000000000000008813000040000000FE
:1047E000050000000000000010270000800000000D
:1047F0000500000000000000983A0000C000000022
:104800000500000000000000204E00000001000034
:104810000500000000000000010000001000000082
:08482000000000000024F40078
:04000005080001AD41
:00000001FF
