:020000040800F2
:10000000600A0220C1010008DF3E00083537000801
:10001000DD3E0008C9060008914A00080000000003
:100020000000000000000000000000005D4100082A
:10003000DD0A000800000000013F0008CD42000872
:10004000DB010008DB010008DB010008DB01000820
:10005000DB010008DB010008DF0A0008DB01000803
:10006000DB010008DB010008DB010008DB01000800
:10007000DB010008DB01000809070008DB010008BC
:1000800015070008210700088D050008DB0100089E
:10009000DB010008DB010008DB010008DB010008D0
:1000A000DB010008DB010008DB010008DB010008C0
:1000B000F9430008DB010008DB010008DB01000850
:1000C000DB010008DB010008DB010008DB010008A0
:1000D000DB010008194A0008254A0008DB01000876
:1000E000E50A0008DB010008DB010008DB0100086D
:1000F000DB010008DB010008DB010008DB01000870
:10010000DB010008DB010008DB010008DB0100085F
:10011000DB010008DB010008DB010008DB0100084F
:10012000DB0100082D07000831070008DB0100088B
:10013000DB010008DB010008DB010008DB0100082F
:10014000DB010008DB010008DB010008DB0100081F
:10015000DB010008DB0100083D070008DB010008A7
:10016000DB010008DB010008DB010008DB010008FF
:10017000DB010008DB010008DB01000800000000D3
:10018000DB010008DB010008DB010008DB010008DF
:10019000DB010008DB010008DB010008DB010008CF
:1001A000DB010008DB010008DB010008DFF80CD0F0
:1001B00000F0DAF9004800474D4E0008600A0220BE
:1001C0000648804706480047FEE7FEE7FEE7FEE7F1
:1001D000FEE7FEE7FEE7FEE7FEE7FEE7A5430008D1
:1001E000AD0100082DE9F05F0546002092469B46D0
:1001F00088460646814640241BE02846414647463D
:10020000224600F00CF953465A46C01A914110D3C9
:1002100011461846224600F0F3F82D1A67EB010844
:100220004F4622460120002100F0EAF817EB0009B2
:100230004E41201EA4F10104DFDC484631462A4627
:100240004346BDE8F09F40EA01039B0703D009E065
:1002500008C9121F08C0042AFAD203E011F8013BB2
:1002600000F8013B521EF9D27047D2B201E000F80B
:10027000012B491EFBD270470022F6E710B513464A
:100280000A4604461946FFF7F0FF204610BD421CFF
:1002900010F8011B0029FBD1801A704710B500220D
:1002A00000E0521C835C8C5CA34201D1002BF8D18E
:1002B000D8B2E1B2401A10BD034611F8012B00F884
:1002C000012B002AF9D1184670472DE9FE4F81EA2B
:1002D000030404F0004421F0004100944FF0000BAF
:1002E00023F0004350EA01045ED052EA03045BD0DD
:1002F000C3F30A54C1F30A552C44A4F2F334019415
:10030000A0FB0254C1F3130141F48011C3F31303A2
:1003100043F4801301FB024400FB034E840A970A56
:1003200044EA815447EA8357A4FB076802958D0A83
:1003300005FB07854FEA932C04FB0C542705029D0F
:100340004FEA065847EA1637B5EB08056EEB070C7F
:10035000870E920E47EA811742EA8312A7FB020139
:10036000B6EB0B0164EB00042B0D43EA0C335E1873
:1003700044EB1C50DA465146E7FB0201C5F3130477
:100380004FEA0B3343EA14534FEA0432019C43EA29
:100390000603A4F10C040294009CCDE900B400F023
:1003A00094F803B0BDE8F08F00200146F9E70EB5E0
:1003B00040F2334102910021CDE900110A460B467B
:1003C00000F083F803B000BD01F0004330B421F029
:1003D000004150EA010206D00A0DA2F56072C1F395
:1003E0001301002A02DC30BC00207047440F44EAAD
:1003F000C104C100E01830BC00EBC25000F01FB8CF
:10040000202A04DB203A00FA02F1002070479140D4
:10041000C2F1200320FA03F3194390407047202AC9
:1004200004DB203A21FA02F00021704721FA02F39E
:10043000D040C2F12002914008431946704700297C
:10044000A8BF7047401C490008BF20F0010070475A
:1004500010B4B0FA80FC00FA0CF050EA010404BFBA
:1004600010BC704749B1CCF1200421FA04F411FA10
:100470000CF118BF012121430843A3EB0C01CB1D54
:100480004FEA00614FEA102042BF002010BC7047C5
:1004900000EBC35010440029A4BF10BC7047401C9F
:1004A000490008BF20F0010010BC704710B5141EB1
:1004B00073F1000408DA401C41F1000192185B411D
:1004C0001A4301D120F0010010BD2DE9F04D9246F4
:1004D0009B4611B1B1FA81F202E0B0FA80F220320B
:1004E0009046FFF78DFF04460F4640EA0A0041EAB6
:1004F0000B0153465A46084313D0114653EA0100F4
:1005000019D0C8F140025046FFF789FF05460E4654
:10051000504659464246FFF773FF084305D0012075
:1005200004E020463946BDE8F08D0020054346EA48
:10053000E0762C4337430A986305E40AA0EB0800F1
:100540000022FD0A44EA47540A3002D50020014641
:10055000E9E7010510196941DDE90845001969411C
:10056000BDE8F04DA2E70000064C074D06E0E0684C
:1005700040F0010394E8070098471034AC42F6D3EA
:10058000FFF718FED4520008F452000810B50448D2
:1005900000F04EFDBDE81040014800F03DBE0000F7
:1005A000BCFF0120454910B54A6822F440324A6038
:1005B0004A6843681A434A6001684A6822F48072B4
:1005C0004A6001684A68036942EA03224A60016896
:1005D0004A6822F040724A6001684A6883681A4398
:1005E0004A6001688A6822F400628A6001688A6849
:1005F000C3681A438A60816A6FF07062D1420168F1
:100600008A6822F070628A6001688A680CD0836A06
:100610001A438A6001688A6822F040528A60016841
:100620008A68C36A1A4301E022F040528A60016876
:100630008A6822F002028A6001688A68836942EA55
:1006400043028A60016A002901684A680FD042F4B7
:1006500000624A6001684A6822F460424A600168A8
:100660004A68174C436A04EB43331A4301E022F40F
:1006700000624A600168CA6A22F47002CA620168B4
:10068000CA6A838B0F4C04EB03531A43CA62016896
:100690008A6822F400728A6001688A68036B42EA01
:1006A00043228A6001688A6822F480628A60016855
:1006B0008A68406942EA8020886010BD00230140BA
:1006C00000E0FFFF0000F0FFFEE710B50023C9B215
:1006D000914203DC445C491C2344F8E7181410FAE7
:1006E00083F0C0B210BD4288120A0A7002784A70C4
:1006F0000288120A8A70C288120ACA7002790A71C4
:100700008088000A48717047014800F06DBE000003
:100710005CFF0120014800F067BE00004401022098
:10072000014800F061BE0000A401022070470000F3
:10073000014800F059BE000084000220014800F08A
:1007400053BE0000E400022001681823CAB2103A28
:10075000B2FBF3F2054B6FF30901032A9B5CC365FF
:1007600000D9091D8165084670470000B452000891
:1007700010B5014600208B698A6A4FF0C07453B1EE
:10078000B3F5005F15D072B1012A0CD0022A0AD04D
:10079000032A09D104E01AB1012A06D0022A03D1A2
:1007A000C96AC90100D5012010BDC96AA142FAD0A9
:1007B00010BD002AF7D0012AF2D0022AF3D0032A72
:1007C000F3D010BD30B50468256825F48025256078
:1007D000046863608368402B036803D099600068F5
:1007E000C26030BD9A600068C16030BD2DE9F0473D
:1007F0003D4C3E4BDFF8F89020690025401C2061FD
:10080000B0F5FA6F4BD804F114013A48FFF76BFFCB
:1008100004F11401E2880E78277802EB821007EBCE
:10082000470700EB47071F44FE704E78277807EB19
:10083000470700EB47071F443E718E78277807EB88
:10084000470700EB47071F447E71CE78277807EBF8
:10085000470700EB47071F44BE710E79277807EB67
:10086000470700EB47071F44FE714979267806EBDE
:10087000460600EB4600184401722078401C2070A8
:1008800020780A280BD3521C90B2E080257000EB30
:100890008011494500D3E5806089401C6081164E77
:1008A0003078B8B96789AFB120894122804600EB22
:1008B000801019181148FFF7C6FC08F1010080B23A
:1008C00000EB80112081494500D325810120307043
:1008D0007F1E67813078002804D003F071F8022869
:1008E00000D03570BDE8F087040000207C020020B5
:1008F000D0FB010028000020000000207301002030
:100900002DE9F0473A493B48FFF7EDFE384C384AAD
:10091000143CE3881578217803EB831001EB410147
:1009200000EB410634490E44F5705578267806EB05
:10093000460600EB46060E4435719578267806EBA0
:10094000460600EB46060E447571D578267806EB10
:10095000460600EB46060E44B5711579267806EB7F
:10096000460600EB46060E44F5715279257805EBF4
:10097000450500EB4500084402722078401C2070B9
:100980002078DFF8789000250A280BD35B1C98B2FA
:10099000E080257000EB80124A4500D3E580608935
:1009A000401C6081164E3078B8B96789AFB1208994
:1009B0004122804600EB801001441248FFF743FCBF
:1009C00008F1010080B200EB80112081494500D37D
:1009D0002581012030707F1E67813078002804D087
:1009E00002F0EEFF022800D03570BDE8F08700006D
:1009F00018000020280000207C020020D0FB01000D
:100A000000000020730100207CB52E4B9878002850
:100A100057D169462C48FFF766FE2C48DC889DF8C4
:100A20000050027804EB841102EB420201EB420613
:100A3000274A1644F5709DF80150067806EB4606E5
:100A400001EB4606164435719DF80250067806EB18
:100A5000460601EB4606164475719DF8035006786C
:100A600006EB460601EB46061644B5719DF80450A8
:100A7000067806EB460601EB46061644F5719DF82E
:100A80000550067806EB460601EB460111440D724F
:100A90000178491C017001780A2912D3641CA1B2A3
:100AA000D9800022027001EB81100A49884200D3EC
:100AB000DA800948D988408C401E884201D1012043
:100AC00098707CBD04000020280000200100002058
:100AD0007C020020D0FB0100B401002070470120FF
:100AE00000F0B0BF4FF4005000F0ACBF002229B1BD
:100AF00001291DD002291ED04FF440720B2800D9C5
:100B0000001D0E490B6823F440730B600B68134300
:100B10000B600A6822F0F8020A600A68022303EBFD
:100B2000C00002430A60086840F4803008607047E3
:100B30004FF48072E2E74FF40072DFE7103C0240AE
:100B40001348016889050FD5016821F4007101601F
:100B5000016841F400610160016821F400610160F5
:100B6000016841F400710160016849050FD5016811
:100B700021F480610160016841F4805101600168E5
:100B800021F480510160016841F480610160704787
:100B9000003C02400E4A136823F44073136003299B
:100BA0000DD0012911680FD041F400411160116886
:100BB0004FF4803343EA002001431160704711680D
:100BC00048F204031943F1E741F00401EEE70000A5
:100BD000103C0240064A136823F440731360136804
:100BE0001360136843F00103136001707047000045
:100BF000103C0240084910B50C6824F440740C60A5
:100C00000C6844F440740C600C6844F001040C60FF
:100C10000260436010BD0000103C0240074A1368A8
:100C200023F440731360136843F4807313601368F4
:100C300043F001031360018070470000103C024044
:100C4000074A136823F440731360136843F4007376
:100C50001360136843F001031360016070470000E4
:100C6000103C02401C490868C2061C4805D5C269F0
:100C700042F01002C26110220A600A68920605D58D
:100C8000C26942F00802C26120220A600A68520664
:100C900005D5C26942F00402C26140220A600A68B6
:100CA000120605D5C26942F00202C26180220A60C2
:100CB0000A68D20506D5C26942F00102C2614FF44A
:100CC00080720A600A68920705D5C26942F0200264
:100CD000C2610220086070470C3C024040020220C2
:100CE00070B5114904460020C86100F0ABFF06460C
:100CF0000E4D09E0601C07D024B100F0A3FF801B5B
:100D0000A04201D9032070BD2868C003F2D428682E
:100D1000C00701D001202860286810F4F970F2D0D3
:100D2000FFF7A0FF012070BD400202200C3C0240F2
:100D300010B50021A0F100634FF48042934204D328
:100D400045490144914201D2012182E043490144D5
:100D5000914201D202217CE041490144914201D2F9
:100D6000032176E03F494FF480330144994201D298
:100D700004216EE03C4944184FF400318C4201D20A
:100D8000052166E0394C04448C4201D2062160E022
:100D9000374C04448C4201D207215AE0354C0444BC
:100DA0008C4201D2082154E0334C04448C4201D2DD
:100DB00009214EE0314C04448C4201D20A2148E022
:100DC0002F4C04448C4201D20B2142E0A0F101647B
:100DD000944201D20C213CE02A4C0444944201D2BA
:100DE0000D2136E0284C0444944201D20E2130E01B
:100DF000264C0444944201D20F212AE0244A0244A2
:100E00009A4201D2102124E0224A02448A4201D2AD
:100E100011211EE0204A02448A4201D2122118E028
:100E20001E4A02448A4201D2132112E01C4A0244A3
:100E30008A4201D214210CE01A4A02448A4201D2A9
:100E4000152106E0184A1044884201D2162100E01C
:100E50001721084610BD000000C0FFF70080FFF713
:100E60000040FFF70000FFF70000FEF70000FCF76E
:100E70000000FAF70000F8F70000F6F70000F4F7BA
:100E80000000F2F700C0EFF70080EFF70040EFF747
:100E90000000EFF70000EEF70000ECF70000EAF7C3
:100EA0000000E8F70000E6F70000E4F770470000F4
:100EB00078B50024009490F83C20012A19D0012232
:100EC00080F83C200A6807230568092A13D9EE68D0
:100ED0000A3A02EB420293409E43EE600A788B6826
:100EE0000A3A02EB420293400268D5682B43D36072
:100EF00010E0022078BD2E6902EB420293409E432F
:100F00002E610A788B6802EB4202934002681569F1
:100F10002B4313614A681F23072A13D205686E6B9F
:100F2000521E02EB820293409E436E630B790A8845
:100F30005B1E92B203EB83039A4003685D6B2A4306
:100F40005A6327E005680D2A12D22E6BD21F02EBDE
:100F5000820293409E432E630B790A88DB1F92B274
:100F600003EB83039A4003681D6B2A431A6311E065
:100F7000EE6A0D3A02EB820293409E43EE620B79D9
:100F80000A880D3B92B203EB83039A400368DD6A43
:100F90002A43DA62174B0568154A9D4206D10D684F
:100FA000122D03D1556845F48005556005689D42B2
:100FB00019D1114D0B68AB4201D0112B13D15368DD
:100FC00043F4000353600968A9420CD10B490C4A51
:100FD0000968B1FBF2F101EB8101490000E0491E13
:100FE00000910029FBD180F83C40002078BD000032
:100FF000002301400020014012000010AC0000203E
:1010000040420F00064910B5884207D1084600F05B
:101010000CF803F04FFE034880ED0B0A10BD0000F2
:10102000BCFF0120B401002070470068C06C70470D
:1010300070B50446006801684268C1F34001C2F31C
:10104000401251B34AB3216CC90603D4216C41F458
:1010500000712164816811F0405F17D1A169A9B9BD
:10106000C16A11F4700F02D0816849050ED441683D
:1010700021F020014160206C20F480702064206CFD
:10108000C00403D4206C40F0010020642046FFF728
:10109000B9FF21686FF0120008602068016842689B
:1010A000C1F38001C2F3C01289B382B3216CC906B7
:1010B00003D4216C41F400512164816811F4401F74
:1010C0001ED1816B11F4401F02D08168490517D4ED
:1010D0004168490514D4816811F0405F10D1A169BD
:1010E00071B9416821F080014160206C20F480508A
:1010F0002064206CC00503D4206C40F00100206403
:101100002046FFF7D3FE21686FF00C0008602068CE
:101110000168426811F0010FC2F380120ED06AB16B
:101120000068C0070AD0206C40F48030206420465C
:1011300000F046F821686FF001000860206801683F
:101140004268C1F34011C2F3806200290DD0002A29
:101150000BD0616C41F0020161646FF02005056005
:101160002046FFF761FF2068056070BD70B5040080
:101170004FF0000503D0206C002610B107E00120DD
:1011800070BD666484F83C60204600F01BF8206C5B
:10119000C00610D4206C20F4885040F00200206477
:1011A0002046FFF7FFF96664206C20F0020040F053
:1011B0000100206400E0012584F83C60284670BDF1
:1011C0007047000000B50068104987B088421AD106
:1011D0000F480021026842F480720260006800F447
:1011E00080700590022000900320CDE9010169463E
:1011F000084800F033FC00220221122001F076F8AA
:10120000122001F068F807B000BD00000020014086
:10121000443802400000024018B50021009190F8C7
:101220003C20012A07D0012280F83C200268936804
:10123000DB0702D011E0022018BD936843F00103E0
:101240009360224A224B1268B2FBF3F202EB420295
:1012500000E0521E0092002AFBD102689368DB076F
:1012600032D0036C40F20164A34343F480730364FF
:1012700053685B0505D5036C23F4005343F4805396
:101280000364036CDB0404D5436C23F0060343645E
:1012900000E0416480F83C100E4B6FF022011160B9
:1012A00001684A680C4C22434A6059680068C906C4
:1012B00002D00A49884207D1816811F0405F03D10A
:1012C000816841F080418160002018BDAC000020A1
:1012D00040420F0000230140200000040020014094
:1012E0002DE9F0410446876D00F0ACFC064694F809
:1012F00035000025022806D08020606584F834502F
:101300000120BDE8F0812068016821F0160101602C
:101310002068416921F080014161206C08B9A06C0E
:1013200020B12068016821F008010160206801688F
:1013300021F0010101600BE000F084FC801B052816
:1013400006D92020606504F8345F03206070D8E778
:1013500020680068C007EFD194F85C103F208840F7
:10136000B86004F8345F012060700020C9E790F88D
:101370003510022903D080214165012070470521E5
:1013800080F835100068016821F00101016000203B
:10139000704770B5040025D094F83500022820D09D
:1013A0002068016821F001010160206800250560C6
:1013B00020684560206885602068C56020680561F8
:1013C0002168212048612046FFF7BEF994F85C208F
:1013D0003F2191408160656584F8355084F8345030
:1013E000002070BD012070BD2DE9F84304464FF088
:1013F0000009CDF8009063484FF41651A56D0068C0
:10140000B0FBF1F72E6894F85C10082000FA01F1A7
:1014100031420FD021680A6852070BD50A6822F0C2
:1014200004020A6094F85C108840A860606D40F087
:101430000100606594F85C104FF0010808FA01F0B3
:10144000304208D021684969090604D5A860606D5A
:1014500040F00200606594F85C100420884030423F
:1014600008D021680968890704D5A860606D40F03C
:101470000400606594F85C1010208840304218D059
:1014800021680968090714D5A86020680168490324
:1014900004D50068000308D5A16C07E00168C90500
:1014A00003D4016821F008010160216C09B12046D4
:1014B000884794F85C1020208840304231D0216861
:1014C0000968C9062DD5A86094F83500052820685C
:1014D000016806D0490347D5006800031DD4616C3C
:1014E0001CE021F0160101602068416921F08001B3
:1014F0004161206C08B9A06C20B12068016821F01E
:101500000801016094F85C103F208840A86084F8CE
:10151000349084F83580216D1FE0E16B09B12046DD
:101520008847606D00282BD0606DC00714D005205F
:1015300084F835002068016821F0010101600098FD
:10154000401C0090B84203D820680068C007F6D15C
:1015500084F8349084F83580E16C002910D001B013
:101560002046BDE8F04308470168C905D5D40168A5
:1015700021F01001016084F8349084F83580CCE7C4
:10158000BDE8F883AC0000202DE9F041044600F0EE
:1015900059FB06465CB1002584F83450022084F8DB
:1015A00035002068016821F0010101600DE0012093
:1015B000BDE8F08100F046FB801B052805D92020FE
:1015C0006065032084F83500F2E720680068C007F2
:1015D000F0D12268116820480140D4E90103184382
:1015E000D4E903363343184363691843A3691843A6
:1015F000E3691843236A18430843616A042903D145
:10160000D4E90B1319430843106020684069666AE7
:1016100020F0070130460E43012704280CD1A06AB0
:101620000643E06A40B12046FFF7A2F820B140200F
:10163000606584F83570BAE7206846612046FFF798
:1016400083F894F85C203F2191408160656584F8BF
:1016500035700020ACE700003F8010F02DE9F0412C
:101660000446866D90F83400002501280DD0012035
:1016700084F8340094F835700020012F07D084F8E6
:10168000340002252846BDE8F0810220FBE702274E
:1016900084F8357060652046FFF794F894F85C1084
:1016A0003F208840B0602068016841F01601016069
:1016B0002068416941F080014161206C20B12068BF
:1016C000016841F0080101602068016841F00101F2
:1016D0000160D7E770B5044600F0B4FA0546601C17
:1016E00002D004480078044400F0ACFA401BA04249
:1016F000FAD370BDA00000202DE9F047044623482E
:101700000F46017E01290AD00121804601764CF264
:1017100050394846FFF7E4FA020003D030E00220D7
:10172000BDE8F0874FF0FF3038602068184D012881
:1017300001D0A6681DE0207C6168FFF72BFA4846BF
:10174000FFF7CEFA0246286848F204018843286071
:1017500014E0217C3046FFF7C9F94846FFF7C0FA8C
:101760000200286820F0FA00286001D03E6005E001
:10177000761CD4E902100844B042EAD8FFF7E0F939
:10178000002188F818101046CAE700004002022025
:10179000103C02400348016841F000410160002014
:1017A00070470000103C02402DE9F0471B4E0546F3
:1017B0001446307E1F468946012808D00120307625
:1017C0004CF250384046FFF78BFA18B114E0022073
:1017D000BDE8F0879DB1012D16D0022D19D022460B
:1017E0003B464846FFF706FA4046FFF779FA0C49B0
:1017F0000A6822F001020A6000213176E8E7E1B2CE
:101800004846FFF7E7F9EFE7A1B24846FFF706FAC7
:10181000EAE721464846FFF713FAE5E740020220CF
:10182000103C0240074900200A68002A09DA054AEC
:10183000054B0C3A1360054B13600968002900DA68
:1018400001207047103C024023016745AB89EFCD72
:101850002DE9F04FDFF838B100224FF001094FF0C9
:101860000F0A00BF09FA02F401EA0403A3427DD182
:10187000066857000325BD40AE430660D60800EB5E
:101880008606D6F820C057074FEAD7680AFA08F745
:101890002CEA070CC6F820C08668AE43866046680E
:1018A000A6434660C468AC43C46022F003055D44AF
:1018B000D5F808789407260F0AFA06F4DFF8D4C0A2
:1018C0002740604502D14FF0000C40E0DFF8C8C06F
:1018D000604502D14FF0010C39E0DFF8C0C060452F
:1018E00002D14FF0020C32E0DFF8B4C0604502D103
:1018F0004FF0030C2BE0DFF8ACC0604502D14FF095
:10190000040C24E0DFF8A0C0604502D14FF0050CC4
:101910001DE0DFF898C0604502D14FF0060C16E0DC
:10192000DFF88CC0604502D14FF0070C0FE0DFF804
:1019300084C0604502D14FF0080C08E0DFF878C0A1
:10194000604502D14FF0090C01E04FF00A0C0CFA8F
:1019500006FCBC4516D1D5F80868A643C5F808684A
:10196000164C25689D432560241D00E00AE025688B
:101970009D432560241D25689D432560241D256801
:101980009D432560521C102AFFF46CAFBDE8F08F18
:101990000030014000000240000402400008024004
:1019A000000C0240001002400014024000180240E7
:1019B000001C02400020024000240240003C014084
:1019C00070B501261A4D1B4CB0F5005F13D00128ED
:1019D00010D10121184800F027F901281FD06868AC
:1019E000002807DD606900B300206860002004F86B
:1019F0002B0F207270BD60696860207E0028F9D1CD
:101A00000E48007884F820000D48007884F8210002
:101A1000267654F8040F2830A061667570BD40F634
:101A2000B830686084F82B6070BD0120DDE70000ED
:101A300020000020B401002000000240000000202F
:101A400004000020044910B50A68024202D0086070
:101A5000FFF7B6FF10BD0000143C01402DE9F84F20
:101A6000DFF890B100224FF001084FF0030A4FF069
:101A70000F090BF1040E00BF0B6808FA02F42340B3
:101A8000A3426ED14D68022D01D0122D0ED1D50882
:101A900000EB850CDCF820505607F70E09FA07F624
:101AA000B5430E69BE402E43CCF820600668550051
:101AB0000F790AFA05FC07F0030726EA0C06AF4087
:101AC000374307604E68012E05D0022E03D0112E39
:101AD00001D0122E0ED18768CE6827EA0C07AE40DF
:101AE0003E4386604668A6430C79C4F300149440D4
:101AF00034434460C4688E6824EA0C04AE40264334
:101B0000C6604C68E4006FD53B4C256845F48045C1
:101B10002560246822F0030504F480440094374CC7
:101B20002E19D6F8084895072F0F09FA07F5AC4388
:101B3000334DA84201D100252EE0324DA84201D1FB
:101B4000012529E0304DA84201D1022524E02F4D86
:101B5000A84201D103251FE02D4DA84202D1042542
:101B60001AE041E02B4DA84201D1052514E02A4D91
:101B7000A84201D106250FE0284DA84201D1072532
:101B80000AE0274DA84201D1082505E0254DA842CD
:101B900001D1092500E00A25BD402543C6F80858B3
:101BA000DBF800405D464E689C43F60300D51C43BD
:101BB0002C60DEF8004075464E689C43B60300D5A5
:101BC0001C432C600B4D08352C684E689C43F60274
:101BD00000D51C432C60074D0C352C684E689C4387
:101BE000B60200D51C432C60521C102AFFF444AFEF
:101BF000BDE8F88F003C014044380240003001400D
:101C0000000002400004024000080240000C0240B4
:101C1000001002400014024000180240001C024064
:101C200000200240002402400069084000D001204A
:101C3000704742694A40426170470AB1816170470A
:101C40000904FBE70148806870470000A0000020FD
:101C50002DE9FE43044600688168744D744E4FF0D0
:101C600040270291A84201D1314600E039468968F7
:101C70000191C1694FF00108C1F3012102290AD085
:101C8000C16911F4407F06D00199890773D5A84234
:101C900067D1304666E00299890707D54068C0439E
:101CA000000603D40021204601F08AFD0198C007F8
:101CB0000DD02068A84201D1304600E03846406887
:101CC000C043400603D40121204601F035FD0198B0
:101CD0004FF65F79400628D52068A84201D13146E9
:101CE00000E039464968C94389061ED4A84201D19B
:101CF000304600E03846406820F0600101D13046AF
:101D000000E0384641602068416801EA090141600D
:101D10002068C1688068009084F84180606C40F061
:101D200002006064204600F099F8029800077BD515
:101D300020684168C943890676D4416801EA0901EF
:101D400041602068A84201D1304600E03846406832
:101D500020F0600000D03E467060206880680090EF
:101D600057E0384640686FEA0000000603D40121BE
:101D7000204601F025FD0298C00708D02068406881
:101D8000C043400603D40021204601F0D5FC029850
:101D90004FF69F7940061FD520684168C9438906E0
:101DA0001AD4416801EA090141602068A84201D1C2
:101DB000304600E03846406820F0A00101D13046AE
:101DC00000E03846416084F84180606C40F00200D9
:101DD0006064204600F042F80198000724D520688E
:101DE000A84201D1314600E039464968C943890615
:101DF0001AD4A84201D1304600E03846406820F0AD
:101E0000A00000D03E4670602068416801EA0901E8
:101E1000416084F84180606C40F0040060642046BA
:101E2000BDE8FE4300F01AB8BDE8FE83003800406C
:101E300000340040704710B504000CD0022084F834
:101E40004100204600F0D4F80020606484F841008E
:101E500084F8400010BD012010BD00000B2101A03E
:101E600002F02EBC736169206572726F720D0A00F8
:101E70002DE9F05F04004FF002064FF000074FF02D
:101E800010052CD04FF00209C84684F84190544800
:101E90006063204600F0AEF82068C16940F6BF7A62
:101EA00021EA0A01C1612168C1F820802068D0F8C8
:101EB0001C8060694FF4007B022835D0E06800B1D7
:101EC0002025A068202800D86D00012000F098FA95
:101ED0002169594525D1E16821B1A90003E001201C
:101EE000BDE8F09FE900B0FBF1F000BF00EB80001F
:101EF00061694000B0FBF1F0401D0A21B0FBF1F137
:101F000001F00100091AC1F34F060702B01EFE28B6
:101F10000AD3606C40F0100060642046FFF79EFF1B
:101F2000DDE7B0FBF5F0E1E7206921683E4330438F
:101F30000862A0882189228B0843A18911430843A4
:101F400080B2216840EA080040F40060C861206A5D
:101F500001283AD12348606323482168234A4FF07F
:101F60004023814201D1114600E01946C96921EAA6
:101F70000A0101D1154600E01D46E9612568494680
:101F8000854201D1154600E01D462962256885423B
:101F900001D1114600E01946CE69616859451BD050
:101FA000D1B100212789B4F80CC047EA0C07B4F876
:101FB00018C04CEA010C47EA0C07B9B2314341F4AE
:101FC0000061854200D01A46D16100206064012082
:101FD00084F84100002083E74FF48071E2E70000BD
:101FE0009F380008511C00080038004000340040B1
:101FF00070470000F0B587B0064614216846FEF72A
:102000003BF928493068884249D1274800250168B2
:1020100041F4804101600068234900F48040103998
:102020000590086840F004000860086800F00400AB
:102030000590086840F0020008600868022400F07B
:102040000200059048208DE831000527CDE90357AF
:1020500069461648FFF702FDB8028DE83100CDE968
:10206000035769461248FFF7F9FC134C1148C4E9BD
:1020700000050015A560C4E90350400060618000C0
:10208000A0614011C4E9070520466562FFF77CFAAC
:1020900018B1852109A002F0FDFDF463A66307B025
:1020A000F0BD000000380040403802400008024007
:1020B00000040240586002405CFF01202E2E2F4396
:1020C0006F72652F5372632F73746D333266347879
:1020D000785F68616C5F6D73702E6300F8B50446BD
:1020E00029B122B194F84100012802D04EE001202C
:1020F000F8BDE1622068C06900F0070003281FD026
:1021000005281DD02286628694F8400001283DD023
:10211000012084F84000042084F841000025656413
:10212000E26B1B481064E26B1A48D063E26B1A48FA
:10213000D0642068C269C2F30122032A07D009E0F3
:102140004FF6FF7000EA420020866086DCE7C26836
:1021500082680092238E0A46E66B00F10C0130463D
:10216000FFF77CFA2068C169490503D4C16941F4CD
:102170008061C16120684168C90703D1416841F0AD
:102180000101416084F840500020F8BD0220F8BDF4
:10219000953800086D3800084538000801F0B2BED7
:1021A00070470000082101A002F08ABA736169201B
:1021B00074780D0A0000000002488168027811441A
:1021C00081607047A00000200B4810B5016841F401
:1021D00000710160016841F480610160016841F4AF
:1021E00080710160032000F0A1F8002000F006F8E3
:1021F00000F024F8002010BD003C024070B50D4DE9
:1022000004464FF47A712878B1FBF0F00A49096866
:10221000B1FBF0F000F00CFD48B9102C07D2002201
:102220002146501E00F062F800206C6070BD012055
:1022300070BD0000A0000020AC0000201F4808B5C1
:10224000016841F480410160006800F48040009022
:102250001A48001F016841F080510160006800F0D9
:1022600080500090032000F061F8002211466FF0CA
:102270000B0000F03BF8002211466FF00A0000F05E
:1022800035F8002211466FF0090000F02FF8002207
:102290001146501F00F02AF800221146101F00F0CE
:1022A00025F800221146901E00F020F80022BDE81B
:1022B00008401146501E00F019B800004438024092
:1022C00000F01F02012191404009800000F1E02050
:1022D000C0F88011704700F01F02012191404009B1
:1022E000800000F1E020C0F800117047F0B40E4B00
:1022F0001B680C46C3F30223C3F10705042D00D964
:102300000425191D072901D2002300E0DB1E012648
:1023100006FA05F1491E214099409E40761E16405E
:102320003143F0BC01F0DCBD0CED00E0064900F0EB
:10233000070208684FF6FF03184040EA0220034AEC
:1023400010430860704700000CED00E00000FA0543
:102350002DE9F8431748016841F080510160006899
:10236000154F00F08050012600903E64FFF76AFC94
:1023700005464FF47A78114C05E000BFFFF762FC88
:10238000401B40450DD86068C003F7D57E64FFF759
:1023900059FC0546464607E0FFF754FC401BB04297
:1023A00002D90320BDE8F88360688003F4D50020DB
:1023B000F8E700004038024000000E420070004084
:1023C00002494A6882434A6070470000007000403A
:1023D00002494A6802434A607047000000700040AA
:1023E0000548016841F0020101600448016841F0BC
:1023F0000401016030BF70470070004010ED00E044
:1024000001460020012907D11049096811F4000193
:1024100003D0012900D10E4870470C48001F016805
:102420000068490200F03F0001D50A4900E00A496E
:10243000064AB1FBF0F07C321168C1F388114143C8
:102440001068C0F30270B1FBF0F07047083802402A
:102450000080BB0000127A000024F4002DE9F84F40
:1024600004460068DFF804A2814F824DC1074FF097
:1024700001084FF0000601D180073CD5CAF868601A
:10248000FFF7E0FB814605E0FFF7DCFBA0EB09006E
:10249000022878D828680001F6D42078C107764849
:1024A00005D06168227A890141EA027101602178D0
:1024B000890711D501686268237B9201C1F302711B
:1024C00042EA036242EA017101603868E16920F082
:1024D0001F00491E08433860CAF86880FFF7B2FB46
:1024E000814605E0FFF7AEFBA0EB090002284AD8C1
:1024F00028680001F6D52068410701D400074CD5B3
:10250000CAF87060FFF79EFB814605E0FFF79AFB73
:10251000A0EB0900022836D82868C0438000F5D512
:1025200020784107554814D501682269237D92011E
:10253000C1F3027142EA036242EA01710160396843
:10254000226A6FF0FF0321F4F85103EB02221143DA
:1025500039602178090710D501682269C1F3036148
:10256000920142EA0161227E41EA0271016038680B
:10257000616A20F4403008433860CAF87080FFF781
:1025800061FB074605E048E0FFF75CFBC01B022843
:1025900043D82868C0438000F6D42078800653D5FD
:1025A00034484030016841F0805101600068344D8A
:1025B00000F080500090286840F480702860FFF799
:1025C00041FB074605E000BFFFF73CFBC01B0228AC
:1025D00023D82868C005F7D5274D143D286810F486
:1025E000407020D0218D01F4407181421BD02868B9
:1025F000244920F44070C1F800800E6028602868EB
:10260000C00710D0FFF71EFB064641F2883707E0EF
:10261000FFF718FB801BB84202D90320BDE8F88FF2
:1026200028688007F4D5A16A1248C1F30122083056
:10263000032A13D0016821F4F81101602868218D64
:10264000C1F30B01084328602078C00604D50E4969
:1026500094F82C00C1F8E0010020DFE702680B4B82
:1026600022F4F81219400A430260E7E700004742EB
:102670008C380240003802408438024088380240DA
:1026800000700040400E474200104742FFFCFF0F21
:102690002DE9F0470E46050065D0DFF81481D8F823
:1026A0000000F7B200F00F00B04207D288F80070C7
:1026B000D8F8000000F00F00B04254D128683D4C1B
:1026C000810712D5400703D5206840F4E050206010
:1026D0002878000703D5206840F460402060206817
:1026E000A96820F0F000084320602878C0072DD0AA
:1026F000304968680839012812D0022813D003280D
:1027000011D00968890700292DDA216821F0030119
:1027100001432160FFF796FA814641F2883A0EE0C4
:1027200009688903EFE709688901ECE7FFF78AFA8E
:10273000A0EB0901514502D90320BDE8F0872068CC
:10274000696800F00C00B0EB810FEFD1D8F80010F1
:10275000404601F00F01B14207D90770006800F050
:102760000F00B04201D00120E7E72878400705D5E7
:102770002068E96820F4E0500843206028780007CA
:1027800006D52068296920F4604040EAC100206035
:1027900000F03CF82168084AC1F30311515CC840BD
:1027A000064908600020FFF729FD0020C5E700006A
:1027B000003C024008380240BC520008AC00002037
:1027C0000148006870470000AC000020044805493B
:1027D00000680968044AC1F38221515CC84070470F
:1027E000AC00002008380240CC52000804480549DB
:1027F00000680968044AC1F34231515CC84070471F
:10280000AC00002008380240CC520008154810B532
:10281000006810F00C02144813D04110042A0FD0A5
:10282000082A0ED10F4C241F2268236802F03F02B1
:102830005B0207D52068C0F38810A0FB010106E009
:10284000084610BD2168C1F38811A1FB00010023D7
:10285000FDF7C8FC2168C1F30141491C4900B0FBE8
:10286000F1F010BD083802400024F4002DE9F84FC3
:10287000050076D02878DFF8F8B2BE4CC00749D002
:10288000DBF800105846C1F38101012908D0006827
:10289000C0F3810002280AD1201D0068400206D53D
:1028A0002068800336D568680028E2D032E0686886
:1028B000B0F5803F10D0B0F5A02F206810D020F4E4
:1028C00080302060206820F4802020606868A0B1FB
:1028D000FFF7B8F906460CE0206840F48030F4E7D2
:1028E00040F480202060F7E7FFF7ACF9801B6428F4
:1028F00073D820688003F7D50CE0FFF7A3F90646EC
:1029000005E000BFFFF79EF9801B6428F0D820681F
:102910008003F7D42878DFF8608280074FF0000941
:102920003ED5DBF80010584611F00C0F09D00068B6
:10293000C0F3810002280BD18D48001F00684002BF
:1029400006D42068800715D5E868012809D111E070
:10295000E868B8B10120C8F80000FFF773F906462F
:1029600005E002E1FFF76EF9801B0228C0D820685D
:102970008007F7D52068296920F0F80040EAC100F7
:1029800020600DE0C8F80090FFF75CF9064604E00F
:10299000FFF758F9801B02281FD820688007F7D45A
:1029A0002878000722D5724E744869696C3671B177
:1029B00001210160FFF746F9074604E0FFF742F9FD
:1029C000C01B022809D830688007F7D50EE0C0F890
:1029D0000090FFF737F9074605E083E0FFF732F98B
:1029E000C01B02287ED830688007F7D428784007BB
:1029F00068D5DFF87CA100270AF1380ADAF8000070
:102A0000C0000BD4DAF8001041F08051CAF8001071
:102A1000DAF80000012700F080500090584E30682E
:102A2000C00510D4306840F480703060FFF70AF9B8
:102A3000009005E0FFF706F90099401A022851D8E6
:102A40003068C005F6D54A4EA868683601280FD010
:102A50000528306810D020F001003060306820F088
:102A600004003060A868B8B1FFF7ECF800900FE000
:102A7000306840F00100F4E740F004003060F7E710
:102A8000FFF7E0F80099411A41F28830814264D89A
:102A900030688007F4D50EE0FFF7D4F8009007E027
:102AA000FFF7D0F80099411A41F28830814254D89A
:102AB00030688007F4D42FB1DAF8001021F080518B
:102AC000CAF80010A869C0B3DBF80010C1F3810197
:102AD00002294AD00228484607D0C8F86000FFF70C
:102AE000B1F800E039E005463AE04746C8F8600032
:102AF000FFF7A8F8064604E0FFF7A4F8801B0228B9
:102B00002BD820688001F7D4D5E907010843A96ACA
:102B10001C4A490802EB01416A6A41EA82110843F2
:102B200095F82C1040EA01611148001F0160012056
:102B30003866FFF787F8054605E014E0FFF782F8EE
:102B4000401B022809D820688001F7D50BE000BFA0
:102B5000FFF778F8401B022802D90320BDE8F88F60
:102B600020688001F4D40020F8E70120F6E7000097
:102B7000083802400038024000004742800E4742B9
:102B8000007000400000FFFF4FF0E02104280869BA
:102B900003D020F004000861704740F00400FAE719
:102BA00070B5FFF74FF81F4905461F4E087810B162
:102BB0004868002806DA3046BDE87040002220212F
:102BC000FFF73BB8194C62691AB994F82B20012A17
:102BD00001D1401E4860206E002808DDB5FBF0F1F1
:102BE00000FB115068B920213046FFF722F8206E13
:102BF00038B94FF0FF302066012220213046FFF720
:102C00001CF84FF4FA60B5FBF0F100FB115008B965
:102C100001F00CFA207C002803D154F89C0F401CD2
:102C2000206070BD2000002000000240B4010020A0
:102C300010B5401EB0F1807F01D3012010BD4FF0D0
:102C4000E02460610F21601701F04AF90020A061C3
:102C500007202061002010BD10B5FFF7A1FF10BDB7
:102C60007047704730B590F83820012A20D00122F3
:102C700080F83820022380F8393003685C6824F03B
:102C800070045C6003685C680D682C435C600368DA
:102C90009C6824F080049C6003689C6849680C432D
:102CA0009C6080F83920002180F83810084630BD3B
:102CB000022030BD10B5040003D094F8390010B1E3
:102CC00007E0012010BD002084F83800204600F005
:102CD0000DF8022084F83900211D206801F092FBD4
:102CE000012084F83900002010BD000008B50068FC
:102CF000B0F1804F12D10A48016841F00101016032
:102D00000068002200F00100009011461C20FFF72F
:102D1000EDFABDE808401C20FFF7DDBA08BD000051
:102D2000403802400168CA6842F00102CA60006887
:102D3000016841F0010101600020704770B5044650
:102D400090F83800012817D0012584F83850022067
:102D500084F839002068826822F0770222F47F42EA
:102D600082600868502837D00DDC202859D005DC57
:102D700088B3102841D151E0022070BD302853D0D3
:102D800040283AD13FE060282ED070280BD0B0F513
:102D9000805F03D0B0F5005F2FD110E0206881681C
:102DA00021F0070115E0CB68D1E90121206801F08D
:102DB00089FB2168886840F0770088601DE0CB6857
:102DC000D1E90121206801F07DFB2068816841F490
:102DD0008041816011E01EE0CA684968206801F006
:102DE00083FB5021206806E0CA684968206801F02A
:102DF0008CFB6021206801F06FFB84F839500020C3
:102E000084F8380070BDCA684968206801F06CFB1E
:102E100040212068EFE700212068ECE710212068BE
:102E2000E9E720212068E6E730212068E3E77047E2
:102E300070B50446006801694FF00005C943890771
:102E400015D4C168C943890711D4E91E0161012065
:102E50002076206880698007204602D0FFF7E7FFD0
:102E600004E000F098F8204600F096F825762068F7
:102E70000169C943490717D4C168C943490713D435
:102E80006FF004010161022020762068806910F44F
:102E9000407F204602D0FFF7CAFF04E000F07BF835
:102EA000204600F079F8257620680169C9430907B2
:102EB00016D4C168C943090712D46FF00801016133
:102EC000042020762068C0698007204602D0FFF7E2
:102ED000AEFF04E000F05FF8204600F05DF82576D4
:102EE00020680169C943C90617D4C168C943C90626
:102EF00013D46FF010010161082020762068C069AA
:102F000010F4407F204602D0FFF791FF04E000F06C
:102F100042F8204600F040F8257620680169C94350
:102F2000C90708D1C168C943C90704D1891E016115
:102F3000204600F033F820680169C943090609D426
:102F4000C168C943090605D46FF0800101612046BC
:102F5000FFF786FE20680169C943490609D4C168A4
:102F6000C943490605D46FF040010161204600F0D5
:102F7000B1F820680169C94389060BD4C168C94307
:102F8000890607D46FF0200101612046BDE870403A
:102F9000FFF767BE70BD7047704700002DE9F05F16
:102FA0000068B0F1804F7FD14048007801287BD184
:102FB0003F480078012877D1DFF8F88098F80000C2
:102FC000012871D03C4D28780024D0BB3B49DFF864
:102FD000F0900E8806EB86174F454FD239484FF0D8
:102FE000010A428C9346B2422CD190F8211049B389
:102FF000834601EB4100344E4100F01CFDF73CF9E3
:103000009BF82100C0F10A0100EB4002032000EB15
:103010004200C9B2C3B201EB41014A002B49C0B220
:103020003B4419443044FDF70EF924480188491CFB
:1030300089B201EB811201804A4500D3048085F8F2
:1030400000A01BE021484122C1191F48FDF7FBF8F1
:10305000761C1A48B1B201EB811201804A4500D3B7
:1030600004800088ABF10101814201D188F800A001
:1030700085F800A016490888401E0880287820B1ED
:1030800000F0CAFC022800D02C7009480178012900
:103090000AD198F80020012A06D188F8004004706F
:1030A000024800E000E00470BDE8F09F0800002046
:1030B0000600002007000020000000200C00002077
:1030C000D0FB0100B4010020730100207C0200202D
:1030D0000E000020704770B504460068C16821F4F6
:1030E0009071C1602068416921F00101416120684F
:1030F00041694FF00005490609D5416921F04001B9
:103100004161606B18B10565606BFEF7E9F8E58514
:10311000202084F83A00002070BD10B504460068F5
:10312000416994F83920C1F3C011212A0BD151B162
:10313000416921F080014161206B08B1FEF7D0F8B0
:10314000204601F06EFA2068416994F83A20C1F3F4
:103150008011222A0BD151B1416921F04001416116
:10316000606B08B1FEF7BCF8204601F04CFA002075
:1031700010BD10B504000ED0242084F8390020467C
:1031800000F0CCF80020E06384F8390084F83A00BD
:1031900084F8380010BD012010BD704710F8391FA9
:1031A000407808437047000070B502680446106814
:1031B000D168536910F00F0F50D003F0010501F4EE
:1031C000907635435DD0C20705D0CA0503D5E26BC2
:1031D00042F00102E263420705D5DA0703D0E26B51
:1031E00042F00202E263820705D5DA0703D0E26B00
:1031F00042F00402E263020705D5DA0703D0E26B6E
:1032000042F00802E263E26B002A33D0800604D564
:10321000880602D5204601F00DFA20684069E16B6E
:10322000C0F38010090700D428B3204601F0EBF961
:103230002068416949061AD5416921F04001416180
:10324000606BA0B11B490165606BFEF790F8002828
:1032500010D0606B016DBDE870400847830610D543
:103260008B060ED52046BDE8704001F0E3B920463C
:10327000FFF793FF70BD2046FFF78FFF0020E0634C
:1032800070BD030606D50B0604D52046BDE8704088
:1032900001F090BB4006F3D54806F1D5D168204631
:1032A00021F04001D160202184F8391000F0FEF9AE
:1032B00070BD00002F45000870B5040004D094F8DC
:1032C0003900002510B106E0012070BD84F83850A7
:1032D000204600F05FF8242084F839002068C16897
:1032E00021F40051C160204601F00EFA2068016906
:1032F00021F4904101612068416921F02A01416176
:103300002068C16841F40051C160E563202084F861
:10331000390084F83A00002070BD000010B5044662
:1033200000681749884211D11648016821F0100140
:1033300001604FF4C0611448FEF78AFA606BFEF733
:1033400028F8206BFEF725F8252013E00F49884266
:1033500014D10C48001F016821F40031016078216C
:103360000B48FEF775FA606BFEF713F8206BFEF75B
:1033700010F82620BDE81040FEF7A2BF10BD0000E7
:103380000010014044380240000002400044004068
:10339000000C02402DE9F04F04460068634A022702
:1033A00007210025032687B04FF001094FF0006A7E
:1033B0004FF4806B90424ED15D48026842F010029B
:1033C0000260006800F010000590CDE90361700212
:1033D0008DE8810269465748FEF740FB574E564834
:1033E00057463060C6E901A5C6E9035B80157561E3
:1033F000C6E906504002C6E90805D8463046FEF741
:10340000C3F818B185214EA001F044FC6663B46393
:103410004A4E494860367830E6E802074020A6E880
:1034200021014FF4403046F81459B561C6E9075000
:10343000424875626030FEF7A7F818B1972140A0A6
:1034400001F028FC2663002211462520B463FEF714
:103450004DFF252064E03F4A904263D13448001F6D
:10346000026842F4003202600068884600F40030CE
:1034700005901820CDE9000702AA694682E860019C
:103480003548FEF7EBFA60208DE88102CDE903684C
:1034900069463148FEF7E2FA284F3048C037D04637
:1034A0003860C7E901A5C7E9035B80157D61C7E9FD
:1034B0000650C7E90A6540024FF0040A3D63C7E9B8
:1034C000080AD9463846FEF75FF818B1D0211CA08B
:1034D00001F0E0FB6763BC632048214F1830E7E848
:1034E00002084020A7E821024FF4403047F8145961
:1034F000C7F824A0BD61C7E90750C7E90A651848A5
:103500003D63FEF741F818B1E5210DA001F0C2FBC3
:103510002763002211462620BC63FEF7E7FE262023
:10352000FEF7D9FE07B0BDE8F08F000000100140A3
:1035300044380240000002404064024084000220FF
:103540002E2E2F436F72652F5372632F7573617226
:10355000742E630000440040000C0240886002406A
:10356000A4010220F8B5044690F83A0020283CD186
:10357000C1B3BAB394F83800012836D0012084F8DA
:103580003800A162A2850025E563222084F83A0074
:10359000636B1748D863636B16481864636B1648EF
:1035A000D864606B134605650846666B2168024661
:1035B0003046091DFEF752F8206801684168009105
:1035C00084F83850C16841F48071C1602068416955
:1035D00041F0010141612068416941F040014161D0
:1035E0000020F8BDFFE70120FBE70220F9E700001B
:1035F00089450008C54500083F450008074988423D
:1036000002D14021064805E00649884204D1044819
:103610004021403001F0ECBC704700000400022063
:1036200094FE0120440002207047000070B504465B
:1036300090F83900202830D169B362B394F838008B
:1036400001282AD0012084F838002162A284E28473
:103650000025E563212084F83900236B1048D863E6
:10366000236B10481864236B0F48D864206B1346F3
:1036700005652668206B321DFDF7F0FF21686FF0AD
:103680004000086084F838502068416941F08001AA
:103690004161002070BD012070BD022070BD00009E
:1036A000CF450008FD4500083F45000870477047BA
:1036B00070B51D4C002550B96068C043800732D4F6
:1036C0001A4E01213046FEF7AFFA012821D0184EDC
:1036D0000120002586F8330001F0B2FD18B16D1C01
:1036E000EDB2322DF8D3002086F833003220FDF7FA
:1036F000F1FF4FF480752846FEF762FE206840F027
:10370000040020602846FEF763FEBDE87040FEF727
:1037100067BE6420FDF7DEFF6D1C1E2DD1DB206827
:1037200040F00800206070BD0070004000000240C2
:10373000B4010020FEE700002DE9F041C26A012635
:1037400013460468921C39B11B491C4D4FF04027A9
:103750008C4217D12C4616E0E168C2621980418E76
:10376000491E4186418E00290AD101684A684FF6F8
:103770009F731A404A601BE080F84160FEF75AFBD5
:10378000BDE8F0813C46E468C2621C80428E521E55
:103790004286428E002AF3D102688A4201D129462C
:1037A00000E03946496821F0600100D03D4669607B
:1037B000418D0029E0D0E3E70038004000340040AC
:1037C00070B5426A0125941C0368446241B11B49EB
:1037D00012881B4C4FF040268B4216D1234615E031
:1037E0001188D960418D491E4185418D00290BD139
:1037F00001684A684FF65F731A404A6019E000BFDB
:1038000080F84150FEF716FB70BD3346DA60428DFA
:10381000521E4285428D002AF6D102688A4201D1A9
:10382000214600E03146496821F0A00100D034462D
:103830006160418E0029E3D070BD00000038004077
:103840000034004010B5806B01684A6822F0030222
:103850004A60002141854186012180F84110416C78
:1038600041F008014164FEF7F9FA10BD10B50146B8
:10387000806B09680968C90509D401684A6822F0A3
:1038800001024A6000214186012180F84110FEF7C3
:1038900085FC10BD10B5806BFEF782FC10BDFEB537
:1038A000016804468868019094F8410001250428C5
:1038B00033D101984FF69F76C00716D04868C043B1
:1038C000400612D4CA682046E16A8B1CE3620A8073
:1038D000618E491E6186618E39B901684A6832403D
:1038E0004A6080F84150FEF759FC0198400614D513
:1038F00020684168C94389060FD44168314041605E
:103900002068C1688068009084F84150606C40F085
:10391000020060642046FEF7A1FA94F841000328F3
:1039200034D101984FF65F76800718D5206840683B
:10393000C043000613D4616A20468A1C6262226872
:103940000988D160618D491E6185618D39B9016831
:103950004A6832404A6080F84150FEF723FC0198E3
:10396000000713D520684168C94389060ED4416811
:103970003140416020688068009084F84150606C5C
:1039800040F0040060642046FEF768FAFEBD0000C7
:1039900010B5012251030848FEF74FF9074C0122E8
:1039A00011462046FEF749F920460022BDE81040A6
:1039B0000221FEF742B90000000802400010024058
:1039C00010B5124C207CA0B1A07808B9207E80B13F
:1039D000207808B9607860B194F8300008B10C48DC
:1039E00000E00C48FFF7DAFB022802D001F0AAFB46
:1039F00008B1022010BDE06910F10A0F02DD0A389B
:103A0000E06101E000202076002010BDB40100201C
:103A1000040002204400022010B5124C207CA0B10A
:103A2000A07808B9207E80B1207808B9607860B1AC
:103A300094F8300008B10C4800E00C48FFF7AEFBEA
:103A4000022802D001F0A4FB08B1022010BDE069F9
:103A500010F10A0F02DD0A38E06101E00020207653
:103A6000002010BDB4010020040002204400022008
:103A70007FB515481349002401604FF48031C0E937
:103A800001140461846111490462C0E90A1401252A
:103A9000C460C56145610463FDF768FB18B1482146
:103AA0000BA001F0F7F80095CDE9015469460648EE
:103AB000FDF7FEF9002803D0522105A001F0EAF835
:103AC0007FBD000000200140BCFF01200100000F6D
:103AD0002E2E2F436F72652F5372632F6164632EF6
:103AE00063000000214808B5016841F480010160CD
:103AF000016801F480010091016841F40011016046
:103B00000068002200F40010009011461020FEF71B
:103B1000EDFB1020FEF7DFFB002211461120FEF71F
:103B2000E5FB1120FEF7D7FB002211463920FEF7F6
:103B3000DDFB3920FEF7CFFB002211463A20FEF7CD
:103B4000D5FB3A20FEF7C7FB002211464620FEF7C0
:103B5000CDFB4620FEF7BFFB002211460E20FEF7EC
:103B6000C5FBBDE808400E20FEF7B5BB303802406B
:103B70002DE9F04F734887B00025016841F010012E
:103B80000160016801F010010591016841F0040134
:103B90000160016801F004010591016841F08001B4
:103BA0000160016801F080010591016841F00101A7
:103BB0000160016801F001010591016841F0020115
:103BC0000160016801F002010591016841F00801FE
:103BD00001600068DFF870B100F008000590002275
:103BE00042F220015846FEF728F8DFF860910022E3
:103BF00038214846FEF721F84FF4804A0122514609
:103C00005348FEF71AF8012203215248FEF715F82F
:103C100000224FF458714E48FEF70FF801221102AE
:103C20004B48FEF70AF8002203214B48FEF705F83F
:103C300001244FF40057CDE9007469465846CDE998
:103C40000245FDF70BFF45486946CDE90040029566
:103C50004846FDF703FF1820CDE9000469464846B1
:103C6000CDE90245FDF7FAFE4FF020080226CDF817
:103C700000800395CDE9014669464846FDF7EEFE12
:103C80004FF44079CDF80090CDE9015469463248AF
:103C9000FDF7E4FE44F26000CDE9000469462C48DB
:103CA000CDE90245FDF7DAFE2D480097CDE9010583
:103CB00069462748FDF7D2FECDF800A0CDE90154B2
:103CC00069462448FDF7CAFECDF800800395CDE98A
:103CD000014669465846FDF7C1FE8020CDE9000542
:103CE000694602945846FDF7B9FE0325CDE9005414
:103CF000CDE9024669461748FDF7B0FECDF80090C1
:103D0000CDE90146694612480396FDF7A7FE0095E6
:103D1000CDE90146694610480396FDF79FFE002253
:103D200011460620FEF7E2FA0620FEF7D4FA00223A
:103D300011462820FEF7DAFA2820FEF7CCFA07B061
:103D4000BDE8F08F30380240000802400000024019
:103D500000040240000C024000100240000031103C
:103D6000000011100D4810B50B4901604FF440716F
:103D7000416000210322C0E902124FF40072026187
:103D800042F21072C0E90521C1610162FEF770F8CC
:103D9000002800D0FEE710BD0038004014FF0120CD
:103DA00010B586B000241D48009401940294039439
:103DB00004944FF08041059401604F21C0E9011443
:103DC0006321C0E903144461FEF774FF18B1462172
:103DD00013A000F05FFF4FF48050009069460F4839
:103DE000FEF7ACFF18B14B210DA000F053FF049477
:103DF00004A90A480594FEF735FF18B1512108A01F
:103E000000F048FF0548FEF78DFF002803D05A2137
:103E100003A000F03FFF06B010BD00000402022026
:103E20002E2E5C436F72655C5372635C74696D2EF9
:103E3000630000000D4810B50B4901600C4941605A
:103E4000002181600C22C160C0E904128161C1615E
:103E5000FFF732FA002805D0BDE81040482105A040
:103E600000F018BF10BD0000001001400400022047
:103E700060E316002E2E2F436F72652F5372632F4F
:103E800075736172742E63000D4810B50B490160A3
:103E90000C494160002181600C22C160C0E904121C
:103EA0009201C0E90621FFF707FA002805D0BDE816
:103EB00010405B2104A000F0EDBE10BD00440040A6
:103EC0004400022060E316002E2E2F436F72652FF0
:103ED0005372632F75736172742E6300FEE770472F
:103EE0000907090E002806DA00F00F0000F1E020B3
:103EF00080F8141D704700F1E02080F8001470472E
:103F0000704700002DE9F041384E394A3146B0681B
:103F1000097E0025DFF8DCC0374C4CF25037904268
:103F200001D0B84208D1E368934205D0BB4203D028
:103F300011B98CF8005065709046304BE0604045F8
:103F400001D0B8423BD196F82100627890420BD064
:103F500051B1607001212171A570E5701D708CF860
:103F60000000708C208126E02079012823D0FCF706
:103F70003DFCB0684FF4FA62404502D1216991429C
:103F800004D8B84215D12069904212D9FCF7B8FC88
:103F9000B068404504D1216942F6E062914206D200
:103FA000B84206D1206941F28831884201D32561A7
:103FB0006581BDE8F081BDE8F041FCF725BD1878CA
:103FC0000F4900EB4000400601EB10610D48C91C91
:103FD000FCF789FB1878401C187018780A28E8D379
:103FE0001D70BDE8F041FFF7EBBC0000B4010020FC
:103FF000C0D40100010000200400002000000020C7
:10400000730100202800002010B5074B002207E0B4
:104010001C78FF2C00D12AB18454521CD2B25B1CF4
:104020008A42F5D3002010BD0000010870B51D4D77
:104030004FF400712846FDF7F7FDD8B100201A4C67
:104040004FF4807184F830002846FDF7EDFD84F8C8
:10405000320080211548FDF7E7FD68B15FF00000F0
:1040600084F8310094F83010114851B194F82910B7
:1040700021B106E00120E2E70120F1E794F82A10DF
:1040800009B1012208E094F8321009B1002101E0E1
:104090004FF4FA7100222166BDE870400121FDF75E
:1040A000CCBD000000100240B40100200008024016
:1040B000000C024030B587B00D460446FDF7B2FB58
:1040C0002049F32008602046FCF732FE04462846CB
:1040D000FCF72EFE011B0020059000900220491CD9
:1040E0000294CDE9031005A96846FDF705FB18B158
:1040F000A42115A000F0CEFD12480C38016821F46F
:1041000080610160016821F400710160016841F47F
:1041100080510160016821F480510160016841F41F
:1041200000610160016821F400610160016841F4EF
:1041300000710160016841F48061016007B00020F6
:1041400030BD00000C3C02402E2E5C436F72655C5B
:104150005372635C666C6173682E63007047000085
:1041600070B51F4D1F4C64281CD0B0F5FA7F25D0C8
:10417000A0F51061C43932D1012210212846FDF783
:104180005CFD002208212846FDF757FD0122202171
:104190002046FDF752FD00222046BDE87040402138
:1041A000FDF74BBD002210212846FDF746FD0022F9
:1041B00008212846FDF741FD0022E8E700221021F2
:1041C0002846FDF73AFD012208212846FDF735FD76
:1041D000002220212046FDF730FD0122DCE770BDE2
:1041E00000000240000402402DE9F04107468CB077
:1041F00044F6206800244FF4807605252F48FDF70B
:104200001AFE2F4800EB04110968B94237D100EBC0
:104210000410016882880089A1F59C4385B2203B87
:10422000264896B2414524D00FDC01F67841B1F51D
:10423000005115D001F67841B1F5005113D001F6C7
:104240007841B1F5005F1ED110E003F52D63B3F5A1
:10425000004311D01B49CB4215D11B49416112E0EB
:1042600041F28831FAE742F21071F7E743F69821FC
:10427000F4E7C0F8148006E04CF25031EEE7641C1D
:10428000A4B2072CBED30120CDE9000602956846F2
:10429000FEF7E4F800B1FEE73220FDF71BFA07480D
:1042A000FDF7E6FD00B1FEE70549022208390348A3
:1042B000FDF714FF0CB00020BDE8F08114FF0120D1
:1042C0003000002090EEFEFFC0D4010010B5FDF7D5
:1042D00073FFBDE81040FEF7BFBC0000F0B52F48EB
:1042E0009FB0016821F4401101602C4800254C3832
:1042F000016841F080510160006800F080501D901D
:104300002748016841F4404101600068012600F43B
:1043100040401D903004CDE9006002248001CDE9C9
:10432000064005270897C820CDE9090404200B9012
:104330006846FEF79BFA00B1FEE7FEF709F800B108
:10434000FEE718A90F2081E831004FF4A0501B9020
:104350004FF480501C90012118A8FEF799F900B184
:10436000FEE74FF48070CDE90C600E970CA8FEF7C5
:1043700075F800B1FEE7FEF723FA4FF47A71B0FB4F
:10438000F1F0FEF755FC0420FEF7FEFB002211467B
:10439000501EFDF7ABFF1FB0F0BD00008C3802408F
:1043A000007000401048016841F4700101600F483E
:1043B000016841F0010101600C4A002108321160DE
:1043C00002680B4B1A400260031D0A4A1A60026819
:1043D00022F48022026005480C3001600249580630
:1043E000803908607047000088ED00E00038024026
:1043F000FFFFF6FE103000240148FEF719BD000053
:1044000004020220F0B50268234B244D244E254FB0
:10441000254C4FF0804C984209D0604507D0A84207
:1044200005D0B04203D0B84201D0A04204D122F05E
:10443000700E4A6842EA0E0298421BD0604519D0BD
:10444000A84217D0B04215D0B84213D0A04211D024
:10445000164DA8420ED0164DA8420BD0154DA842BD
:1044600008D0154DA84205D0144DA84202D0144DD5
:10447000A84203D122F44075CA682A4302608A68C0
:10448000C2620A688262984201D0A04201D10969E1
:10449000016301214161F0BD0000014000040040C2
:1044A00000080040000C00400004014000400140B2
:1044B000004401400048014000180040001C00403A
:1044C0000020004010B5846842EA032224F47F44AF
:1044D0000A432243826010BD826822F070020A43C0
:1044E00042F007018160704710B5036A046A24F046
:1044F00001040462846924F0F00444EA021423F005
:104500000A020A438461026210BD10B5036A23F0F7
:10451000100303628369046A23F4704343EA02329E
:1045200024F0A00343EA01118261016210BD10B5BD
:10453000806B0021C185C184FEF72FFE10BD70B5D0
:10454000846B2068406994F83910C0F3C0100025CE
:10455000212904D118B1E584204600F062F82068D2
:10456000406994F83A10C0F38010222904D118B1A0
:10457000E585204600F047F8E06B40F01000E0636E
:104580002046FEF70AFE70BD10B50146806B096833
:104590000968C90513D40021C1850168CA6822F4DD
:1045A0008072CA6001684A6922F001024A610168AA
:1045B0004A6922F040024A61202180F83A10FFF750
:1045C0001DF810BD10B5806BFFF72EF810BD10B5AB
:1045D0000146806B09680968C9050CD40021C184B3
:1045E00001684A6922F080024A610068C16841F0AE
:1045F0004001C16010BDFFF759F810BD10B5806BC8
:10460000FFF755F810BD0168CA6822F49072CA60BD
:1046100001684A6922F001024A61202180F83A10BB
:1046200070470168CA6822F0C002CA60202180F881
:104630003910704710B590F83A10222901D00220A5
:1046400010BD8168B1F5805F11D001690029016852
:104650001FD0496801F07F03816A4A1C82620B7097
:10466000C18D491E0904090CC18518D026E00269D4
:10467000816A002A0268526805D0D2B20A80816A33
:10468000491C8162ECE7C2F308020A80816A891C36
:10469000F7E74A68816A4B1C83620A70E0E70168A9
:1046A000CA6822F49072CA6001684A6922F0010265
:1046B0004A61202180F83A10FEF7A0FF002010BDCB
:1046C0002DE9F0410D4C80460F4694F8300008B1BA
:1046D0000B4E00E00B4E3046FEF760FD64250228CD
:1046E00009D03A4641463046FEF7A0FF022800D1E5
:1046F0002566BDE8F08102202566FAE7B4010020B6
:1047000004000220440002202DE9F0410446006824
:10471000016921F44052E168114301612168C868D0
:1047200049F20C6290432369A268E5691A43636900
:104730002B431A430243CA602168486920F440723F
:10474000A06910434861E1696425B1F5004F9748BD
:10475000974A21684FF032083FD0914201D0814200
:104760007CD1FEF743F800EBC00101EB001061685B
:104770008900B0FBF1F6FEF739F800EBC00101EB60
:10478000001061688900B0FBF1F0B0FBF5F06FF04C
:104790001801484306EB800108EB0110B0FBF5F06F
:1047A00000F0F006FEF722F800EBC00101EB00106C
:1047B00061688900B0FBF1F0B0FBF5F006EB001684
:1047C000FEF714F800EBC00101EB001061688900EE
:1047D000B0FBF1F7FEF70AF8D2E0914201D0814236
:1047E0003DD1FEF703F800EBC00101EB001061685A
:1047F0004900B0FBF1F0B0FBF5F00601FDF7F6FF64
:1048000000EBC00101EB001061684900B0FBF1F75B
:10481000FDF7ECFF00EBC00101EB001061684900FF
:10482000B0FBF1F0B0FBF5F06FF01801484307EB77
:10483000800108EBC100B0FBF5F000F0F80006EBDA
:104840004006FDF7D3FF00EBC00101EB00106168EB
:104850004900B0FBF1F7FDF7C9FF3CE055E0FDF77B
:10486000B5FF00EBC00101EB001061684900B0FB2F
:10487000F1F0B0FBF5F00601FDF7A8FF00EBC00179
:1048800001EB001061684900B0FBF1F7FDF79EFFF6
:1048900000EBC00101EB001061684900B0FBF1F0D2
:1048A000B0FBF5F06FF01801484307EB800108EB0F
:1048B000C100B0FBF5F000F0F80006EB4006FDF794
:1048C00085FF00EBC00101EB001061684900B0FBFF
:1048D000F1F7FDF77BFF00EBC00101EB0010616811
:1048E0004900B0FBF1F0B0FBF5F06FF01801484360
:1048F00007EB800108EBC100B0FBF5F000F007000A
:10490000216830448860BDE8F081FDF75FFF00EB6F
:10491000C00101EB001061688900B0FBF1F6FDF702
:1049200055FF00EBC00101EB001061688900B0FB8E
:10493000F1F0B0FBF5F06FF01801484306EB800191
:1049400008EB0110B0FBF5F000F0F006FDF73EFFBC
:1049500000EBC00101EB001061688900B0FBF1F0D1
:10496000B0FBF5F006EB0016FDF730FF00EBC001E1
:1049700001EB001061688900B0FBF1F7FDF726FF3D
:1049800000EBC00101EB001061688900B0FBF1F0A1
:10499000B0FBF5F06FF01801484307EB800108EB1E
:1049A0000110B0FBF5F000F00F00A9E70014014082
:1049B0000010014090F83910212901D002207047E1
:1049C0008168B1F5805F016A0BD04A1C02620268FF
:1049D00009785160C18C491E0904090CC1840ED0AC
:1049E00017E009880268C1F30801516001690029D4
:1049F000016A02D0491C0162ECE7891CFBE70168EF
:104A0000CA6822F08002CA600068C16841F04001B3
:104A1000C1600020704700000148FEF7C5BB0000E0
:104A20000400022038B51648FEF7BEFB14480068A3
:104A30000168C943C90622D4016840680090104843
:104A4000FEF76BFB0F48006840680F4CC0F1400058
:104A5000C5B24021601CFBF70FFC2A460B49601CC5
:104A6000FBF7F1FB40210948FBF706FC4022074910
:104A70000348FEF777FDBDE8384000F057B838BD71
:104A800044000220440102204CFE0120D4FE0120FB
:104A9000FEE7000010B5082209A10C48FEF7C6FD8C
:104AA0000B4C4021601CFBF7E7FB002020706420CA
:104AB000FCF710FEBDE81040002000F07BB80000BD
:104AC00041542B454E544D0D00000000440002207F
:104AD0004CFE012004480021A0F8441000F8011BFE
:104AE0004021FBF7C9BB00004CFE012010B50B4C68
:104AF00000204021A4F844000948FBF7BDFB4021F9
:104B0000601CFBF7B9FB6420FCF7E4FDBDE8104036
:104B1000032204A10448FEF789BD00004CFE0120D9
:104B2000D4FE01202B2B2B004400022010B5134C87
:104B300011A1601CFBF7B2FB78B111A1601CFBF75F
:104B4000ADFB68B1601CFBF7A2FB022804D9601C16
:104B500000F0D4FA0220207010BD012206A105E069
:104B600008480446FBF793FB82B22146BDE810409B
:104B70000548FEF75BBD0000610000004CFE01200F
:104B80002B4F4B00180200204400022010B5084CA7
:104B9000002202212046FDF750F84FF47A60FCF71E
:104BA00099FD20460122BDE810400221FDF745B8DD
:104BB000000C024070B505461848FEF78CFA1748FD
:104BC000FEF7D7FA002828D1144C1548012D206093
:104BD00011D014480021C4E901010C20E160C4E9AE
:104BE0000410A1610D48E161FEF766FB002814D1B5
:104BF000012D03D00AE04FF4E130EBE72068C168F3
:104C000041F01001C160084901200870BDE8704002
:104C1000402206490148FEF7A5BC70BD44000220B1
:104C20000044004060E316004CFE0120D4FE012049
:104C30002DE9F0410E4607460F4D104CFCF7F2FDF2
:104C400021462846FFF736FA10B10120BDE8F08171
:104C500000240BE000233A5D29191846FCF7A4FD57
:104C600018B1C92106A000F015F8641CB442F1D3B4
:104C7000FCF790FD0020E9E700000108FFFF0308B2
:104C80002E2E5C436F72655C5372635C666C61735D
:104C9000682E6300FEE702E008C8121F08C1002A60
:104CA000FAD170477047002001E001C1121F002AAD
:104CB000FBD1704710B52DED028B9FED168AFBF7E7
:104CC00076FB9FED151B53EC112BFBF7FEFAFBF760
:104CD0007BFB144B12495A7941F82200521CD0B286
:104CE0000A22B0FBF2F402FB140058715FF00000DE
:104CF00001EB8002401C92ED000AC0B20A2830EE9F
:104D0000088AF5D3F2EE040A88EE200ABDEC028B85
:104D100010BD0000000000006666666666665A3FC9
:104D2000540200200400002010B560F3070461F372
:104D30000F2462F31744204663F31F6010BD000088
:104D400010B50C4C3C212170032161700146A01C60
:104D5000FBF7B2FA3E2201212046FBF7B6FC04F82D
:104D60003F0F3E206070BDE8104041210148FFF731
:104D7000A7BC0000F100002010EE101A01700A0A12
:104D800042700A0C8270090EC170704770B5264CD3
:104D9000002541F2883004F8145B24A304F8135C66
:104DA00004F8125C44E90450642044F8080C2560BF
:104DB000257165711C480ECB3830B7EE000A80E8CB
:104DC0000E000C30FFF7D8FF1748B7EE000A483046
:104DD000FFF7D2FF1448B7EE000A4C30FFF7CCFFC4
:104DE0001148B7EE000A5030FFF7C6FF0E48B7EE85
:104DF000000A5430FFF7C0FF0B48B7EE000A5830E6
:104E0000FFF7BAFFDD2020622577E564A577E57717
:104E10006577C4F8885025746574A574E5742575A4
:104E20006575A575E57570BDB40100203232303767
:104E300030383130303030300000000001700A0A64
:104E400042700A0C8270090EC1707047FDF7BCF900
:104E5000FFF79CFFFFF742FA59480068016821F00C
:104E600001010160FEF784FEFEF73CFEFEF7E2FF63
:104E7000FEF778FFFFF708F8FEF7FAFDFEF790FF60
:104E8000012220214F48FCF7D8FE6420FCF722FCC9
:104E90000020FEF70DFC4C4E012030704B48FCF713
:104EA000BBF947494022C8394948FEF75BFB4449F2
:104EB000402288394748FEF755FBFEF769FD64201C
:104EC000FCF708FCFFF706FE434CA068FFF78CF9DF
:104ED000E068FFF745F9FFF7A9F8242104F138004D
:104EE000FFF792F8DFF8F480DFF8F4904FF4804792
:104EF0005FF0000594F8240020B184F82450A068E5
:104F0000FFF772F994F8250020B184F82550E06885
:104F1000FFF726F994F8260028B9D4F89C0042F24D
:104F20001071884204D300F08BF908B984F8265038
:104F3000607EA8B139464046FCF776FE01280FD1C5
:104F400060697060002239464046FCF776FE022018
:104F5000FCF7C0FB012239464046FCF76EFE657641
:104F600094F8290050B194F83100012806D1FFF7D8
:104F70000DFE1CA0FFF7E4FE84F8295094F82A00E7
:104F8000012816D194F83100012812D199F80000B7
:104F900020B1012806D0022807D00AE00120FFF73F
:104FA00009FE06E0FFF7A2FD03E0FFF773FD84F8BA
:104FB0002A50706800289DDA0120FEF779FB99E7F6
:104FC0005CFF01200008024020000020BCFF0120FF
:104FD0000400022044000220B4010020000402402A
:104FE0004CFE0120574946495F5245535445440001
:104FF0002DE9F041054600783C2831D195F83F0075
:105000003E282DD13D2201212846FBF75EFB95F875
:105010003E10884224D16878012823D00126314CE3
:10502000022824D00027032828D0042848D00528A7
:1050300016D1A878F0B3012812D194F82A000028DC
:105040000ED104F1640038218046FBF715F93822AF
:10505000E91C4046FBF7F7F82348077084F82A60FC
:10506000BDE8F0812846BDE8F04100F0B7B894F8FB
:1050700033000028F4D184F82660F1E7A878D0B195
:105080000128EDD1194960690860207E0028E7D128
:105090001748007884F820001648007884F821002A
:1050A000154800886084267654F8040F2830A061E3
:1050B0006675D5E712E02776E761E8782074CFE7D8
:1050C0000848A91C383024220546FBF7BCF82421E7
:1050D0002846FFF7ADFD84F82760C1E784F8296012
:1050E000BEE70000B40100204CFE01202400002097
:1050F00000000020040000200A00002070B50546D2
:1051000041210E48FBF7B8F80C4C3C202946207092
:1051100004206070A01CFBF7CFF83E22012120463E
:10512000FBF7D3FA04F83F0F3E206070BDE87040F3
:10513000412202490248FEF779BA000032010020FC
:105140000400022010B5114C3C2020700220607039
:1051500004F1410090F82010C069491D002801DDCC
:10516000012000E0002041EA0010A0703E22012151
:105170000648FBF7AAFA84F83F003E2084F8400076
:10518000BDE8104041210148FFF79ABA73010020A1
:1051900010B5114C3C2020700220607004F14100D9
:1051A00090F82110C069491D002801DD012000E0B0
:1051B000002041EA0010A0703E2201210648FBF7C2
:1051C00084FA84F83F003E2084F84000BDE8104097
:1051D00041210148FFF774BA7301002070B5164DE4
:1051E000044680782870E07868702079A870237A67
:1051F000E279A1796079FFF797FD6860607A4FF4F2
:105200007A7110FB01F0AA680121824202D0A860E5
:1052100085F82410A07A642210FB02F0EA6882422A
:1052200002D0E86085F82510E07A4EF66021484308
:1052300002496861086070BDB401002024000020AC
:1052400070B51B4C3C20242220700120607004F5B6
:105250009E71A01CFAF7F7FF04F5827504F1260091
:10526000696B1435FFF7EAFD95ED060A04F12A0093
:10527000FFF782FD287F04F82E0FA87F6070E87F7B
:10528000A07028684EF66021B0FBF1F0E0703E227D
:1052900001210748FBF719FA60743E20A074002032
:1052A000C5F88800BDE8704041210148FFF708BA01
:1052B000B0000020000610160006101600000000C6
:1052C00000000000010203040607080900000000B6
:1052D00001020304F452000800000020B0000000A6
:1052E000964C0008A4530008B0000020B00902004A
:1052F000A64C0008000000000000000000000000B4
:10530000000000000000000000000000000000009D
:10531000000000000000000000000000000000008D
:10532000000000008813000040000000050000009D
:1053300000000000102700008000000005000000B1
:1053400000000000983A0000C000000005000000C6
:1053500000000000204E00000001000005000000D9
:105360000000000050C30000000100000200000027
:1053700000000000C0D40100C000000002000000D6
:1053800000000000400D030040010000020000008A
:1053900000000000010000001000000000000000FC
:0453A0000024F400F1
:04000005080001AD41
:00000001FF
